:020000040000FA
:1000000010210010791500008115000083150000F3
:10001000851500008715000089150000000000000C
:100020000000000000000000000000008B15000030
:100030008D15000000000000C3540000211A0000CC
:100040009315000093150000931500009315000010
:10005000931500001510000077120000BB1400007B
:1000600093150000931500009315000093150000F0
:1000700093150000931500009315000093150000E0
:1000800093150000931500009315000093150000D0
:1000900093150000931500009315000093150000C0
:1000A00093150000931500009315000093150000B0
:1000B00093150000931500009315000093150000A0
:1000C00093150000DFF80CD005F0C8F90048004790
:1000D000C102000010210010704770477047704740
:1000E00070477047704770477047704710B50920D8
:1000F0008E49087000F09AFB10BD10B500F096FB19
:100100001A228A49002000F054FD142000F0B2FDAC
:100110001A228649002000F04CFD0920834908700E
:1001200001208349087010BD10B58248006840F076
:1001300010008049A039C1F8A0000846D0F8B800E6
:1001400040F01000C1F8B8000846006A40F00040D6
:1001500008620846D0F8800040F4FF507549203905
:100160000860042071494870FFF7C7FF00F08BFE5C
:100170004FF4E13000F0C7FF4FF4E13001F0F3F845
:100180006C48A038D0F8BC0040F010006949A03994
:10019000C1F8BC0067480C38006800F01F00401C24
:1001A0006549087008460078604948746348C1068C
:1001B00048600320087010BD08B500243EE0AA2066
:1001C00041070872552008725D48007858B15948B7
:1001D000A038806B40F000405649A0398863002069
:1001E0005749087015E05348A038C06B40F00040F4
:1001F0005049A039C8630120514908704B48801C00
:100200000090801E43784C4802784EA1514805F07A
:1002100087F9601CC4B20A2C0CDD002445480C3858
:10022000006800F01F00401C434908700846007831
:100230003E4948744FF4FA7004F08EFCBFE708B5ED
:100240004FF4FA7004F088FC0EE06A460021424840
:10025000006803F047F8414800F08AF8041E03DD07
:1002600021463E4800F0BCFFEFE728E03B4C00BFD2
:1002700000F0CFFF20703C28FAD1641C002512E06A
:1002800000F0C7FF064604F8016B0A2E09D12E467E
:1002900004E0002004F8010B681CC5B2302DF8DB27
:1002A00003E0681CC5B2322DEADB00BF2A480068B3
:1002B00002F070FF29492848006803F0DBF8D5E711
:1002C00010B501F0BBFAFFF72FFF05F016F902F0A9
:1002D00042F8234800684FF47A71B0FBF1F42046ED
:1002E00001F0B1FB01231F4A0021AFF2331004F0EB
:1002F0007EF805231C4A0021AFF2BD0004F077F818
:1003000006231A4A0021AFF29D0004F070F8002085
:1003100002F056FF104908600846006808B901203D
:1003200010BD02F002F90020FAE7000018010010E9
:1003300004000010A08009200500001048E801001A
:10034000000000103C253032645F253031755F2598
:10035000733E0A008C00001008000010A00000107E
:10036000180000103003001030070010300B001090
:100370002DE9F84F04464FF00008E8A1204605F0AB
:1003800045F8002835D0E64800780A2190FBF1F0C6
:100390003030E17888422CD1E14800780A2190FB86
:1003A000F1F201FB1200303021798842F3D16079FB
:1003B0005F28F0D1DBA1A01D05F028F8002842D06D
:1003C000207B3E2802D0E07C3E283CD1E07A3F28CA
:1003D00010D1D6480090801E407800EB8000D449B0
:1003E0004318CF480278D3A1204605F099F81FFAA8
:1003F00080F868E1002606E006F10B00215CCB489E
:100400008155701CC6B2082EF6DB0021C748801E3D
:1004100081720921801C00F014FBC4480090801EEA
:100420004378BF480278C9A1CC4805F079F8CB4899
:1004300000F0E4FEBA480278C9A1204605F070F841
:100440001FFA80F83FE1CBA1A01D04F0DFFFE0B16F
:10045000E07A3E2819D1C948006840F01000C74929
:10046000B839C1F8B800AE480278C5A1204605F0F9
:1004700057F81FFA80F8204600F0F0FF4FF47A702A
:1004800004F06AFB01F078F81DE1C2A1A01D04F0A0
:10049000BDFF48B1C14BA2480278C1A1204605F07A
:1004A0003FF81FFA80F80EE1C1A1A01D04F0AEFFD5
:1004B00038B1C1A000F0D2FFFFF718FE01F05CF8E0
:1004C00001E1C1A1601D04F0A1FF051E25D0E07A65
:1004D0003E2822D104F1030904F1040A9AF800002D
:1004E000303899F80010303901EB810100EB410000
:1004F00000F0FF0B8D48801E407C58450AD18B4888
:10050000801E427C0823B2A1204605F009F81FFA9C
:1005100080F8D8E04FF00008D5E0B2A104F108005F
:1005200004F074FF051E75D0207B3E2872D1E0795F
:100530003038A179303901EB810100EB4100C7B2BD
:1005400004F10B05082F73DC002F65D128783F28B4
:1005500025D1082000907548801E427C3B46A2A110
:10056000204604F0DDFF1FFA80F800260CE06F49FA
:1005700010318A5D04EB0800A1A104F0D1FF4044D2
:100580001FFA80F8701CC6B2082EF0DB04EB0800DE
:1005900081A104F0C5FF40441FFA80F893E0287859
:1005A000302802D02878312835D1002607E0287875
:1005B0003038C1B25D4810308155701CC6B2082E6B
:1005C000F5DB2878302809D16C481C38006840F4E5
:1005D000FF506A49B839C1F89C000BE028783128EF
:1005E00008D166482038006840F4FF506349B839A4
:1005F000C1F898004D48801E427C3B4682A12046AF
:1006000004F08EFF1FFA80F808214848103000F0EF
:1006100018FA58E04BE04BE028783F2809D1781EC3
:1006200042491031085C303028704FF00D084AE024
:100630003CE02878302802D02878312835D1287835
:100640003038C2B2781E394910310A54287830281F
:100650000BD14A481C380068391D01228A401043DA
:100660004649B839C1F89C000DE0287831280AD1F4
:10067000424820380068391D01228A4010433F4912
:10068000B839C1F898002948801E427C3B465EA1DB
:10069000204604F045FF1FFA80F8791E234A1032E5
:1006A0008818012100F0CDF90DE001E000E000BF65
:1006B0001B48027859A1204604F032FF1FFA80F847
:1006C0004046BDE8F88F4046FBE7F0B503460024FE
:1006D0001DE00125002607E005EB85004FF6FF77BA
:1006E00007EA4005701CC6B2481EB042F4DC187818
:1006F0003038092803DD012010700020F0BD187883
:10070000303800FB054084B25B1C481EC1B2002992
:10071000DFD1002010702046F0E700003C4144008B
:1007200005000010494E464F5F0000001A010010FE
:10073000BA5800003C4144253032755F494E464F5F
:100740005F25735F25733E0A000000003C253032B0
:10075000645F253031755F25733E0A008C00001000
:100760003C4144253032755F494E464F5F4F4B3E0A
:100770000A00000052455345543E0000B88009204D
:100780003C4144253032755F52455345545F4F4BD1
:100790003E0A000053565F3F3E000000B458000080
:1007A0003C4144253032755F535625733E0A0000A4
:1007B000524553554D453E003C524553554D455FBE
:1007C0004F4B3E0A000000005F4D41585F3F000064
:1007D0003C4144253032755F4D41585F25303375BB
:1007E0003E0000005F535F003C4144253032755F9E
:1007F000253032755F253032755F535F0000000091
:1008000025303175000000003C4144253032755FD1
:10081000253032755F535F4F4B3E00003C4144250D
:100820003032755F45523E0A000000000022FE4B48
:100830001A60FE4A1168FE4AB1FBF2F2501E4FF4F4
:100840000012C2F89400FB4AB1FBF2F2C2EB0212B2
:100850004FF47A73B2FBF3F2501CF64AB1FBF2F29A
:1008600002EBC203C3EB82124FF47A73B2FBF3F2D2
:10087000521C40EA0220EF4AB1FBF2F2C2EBC20284
:1008800002EB8202B2FBF3F2521C40EA0240E64A5B
:10089000083A106070472DE9F043079F1546164649
:1008A00094464FF0A058DFF89093C9F80080012BD0
:1008B00006D100F00108B8F1000F0AD000BFFEE732
:1008C000022B06D100F00308B8F1000F01D000BFE1
:1008D000FEE700F03F084FF40019C9F884800024B7
:1008E0008DE07BB94FF003084FF40019C9F8808000
:1008F00095F80080C9F888806D1C00F101081FFA86
:1009000088F021E0012B0FD14FF004084FF40019BB
:10091000C9F88080B6F80080C9F88880B61C00F15C
:1009200002081FFA88F00FE04FF005084FF4001995
:10093000C9F88080DCF80080C9F888800CF1040CCC
:1009400000F104081FFA88F000BFDFF8EC82A8F17C
:100950000808D8F80080C8F38068B8F1000FF4D018
:100960004FF08068DFF8D092C9F80080402802DBA1
:100970004FF0010801E04FF00008A7F10109A1457F
:1009800002D14FF0010901E04FF0000948EA0908DF
:10099000B8F1000F23D04FF08058DFF89C92C9F8CF
:1009A00000804FEA81684FEA18584FF40019C9F8DF
:1009B00084804FF00608C9F8808000BFDFF8788295
:1009C000A8F10808D8F80080C8F30078B8F1000F43
:1009D000F4D04FF08058DFF86092C9F800804028CA
:1009E0000CDB002001F101081FFA88F180464FF46A
:1009F0000019C9F884803E2900DD0021641CBC4236
:100A0000FFF46FAFBDE8F0832DE9F8430746884651
:100A100091468A48381A84B22546E21704EB92625E
:100A200091112646E21704EB92629211A4EB821216
:100A300090B200234246CDF80090FFF72CFFBDE8AE
:100A4000F8832DE9F841064688467C48301A84B27E
:100A50002546E21704EB926291112746E21704EB58
:100A600092629211A4EB821290B200233246CDF82A
:100A70000080FFF710FFBDE8F8812DE9F043DDF8B5
:100A80001CC01446164617464FF0A058DFF8A89130
:100A9000C9F8008001F03F09804669F39F184FF4C0
:100AA0000019C9F8848023B94FF00808C9F880807C
:100AB0001BE0012B0CD14FF009084FF40019C9F8C5
:100AC000808000F00108B8F1000F0ED000BFFEE7F3
:100AD0004FF00A084FF40019C9F8808000F00308AD
:100AE000B8F1000F01D000BFFEE700255DE05BB963
:100AF0004FF40018D8F88C8084F80080641C00F152
:100B000001081FFA88F018E0012B0BD14FF40018F0
:100B1000D8F88C80A6F80080B61C00F102081FFAF5
:100B200088F00AE04FF40018D8F88C80C7F80080ED
:100B30003F1D00F104081FFA88F000BFDFF8F880BD
:100B4000A8F10808D8F80080C8F38068B8F1000F51
:100B5000F4D04FF08068DFF8E090C9F800804028BA
:100B600022DB002001F101081FFA88F101F03F09A2
:100B7000804669F39F184FF40019C9F8848023B99F
:100B80004FF00808C9F880800EE0012B06D14FF025
:100B900009084FF40019C9F8808005E04FF00A08F1
:100BA0004FF40019C9F880806D1C65459FD3BDE8DE
:100BB000F0832DE9F84104460F4690462546E2179A
:100BC00004EB9262C2F38F112646E21704EB9262A5
:100BD0009211A4EB821290B200233A46CDF8008025
:100BE000FFF74BFFBDE8F88103220F4B183B1A605B
:100BF00000210CE000220C4B103B1A6000BF0E4A93
:100C0000083A1268C2F38062002AF8D0491C4029D1
:100C1000F0D34FF08052084B1A608206120D024B3F
:100C2000143B1A6006220BE0980020001800001008
:100C3000D8B8050040420F00E80F2000180100104E
:100C40004FF40013C3F8802000BF084A1268C2F3B3
:100C50000072002AF9D07047012803D10121044A0B
:100C6000116002E00021024A11607047E00F20008D
:100C700098002000002109E0002201E0531C9AB2F4
:100C800042F228339A42F9DB4B1C99B28142F3DBE2
:100C9000704710B500230DE05C1CA3B2002105E0F5
:100CA000541CA2B2541EA2B24C1CA1B241F2301488
:100CB000A142F5DD8342EFDB10BD2DE9F04704468C
:100CC0000E4617469846ECB11C2E1BD3254604F061
:100CD000D7FB8146A6F11800E881E9892C4605F189
:100CE00018000844A86005F118002860686000201A
:100CF000A8812F61C5F81480484604F0C5FB012087
:100D0000BDE8F087FF20FBE72DE9F04105460C46E2
:100D10000027264604F0B4FB8046B089002804DD95
:100D2000306800782870012700E00027404604F072
:100D3000ABFB3846BDE8F0812DE9F04106460D4693
:100D40004FF0FF082DB32C4604F09AFB0746A0890C
:100D5000002812DD2068007830702068401C206078
:100D6000A1682068884202D304F118002060A0899D
:100D7000401EA0814FF0010808E04FF004082069F0
:100D800020B121463046226990478046384604F01B
:100D90007BFB4046BDE8F0812DE9F04105460E465B
:100DA0004FF0FF0835B32C4604F06AFB0746A089D4
:100DB000E189884211DA606806706068401C6060F2
:100DC000D4E90101884202D304F118006060A089CF
:100DD000401CA0814FF0010809E04FF0080860694D
:100DE00028B101223146204663699847804638463B
:100DF00004F04AFB4046BDE8F08170B5044600258A
:100E000034B104F03DFB0646A589304604F03CFBB6
:100E1000284670BD70B50446002534B104F030FB9F
:100E20000646E589304604F02FFB284670BD70B5B4
:100E300004466CB1254604F023FB06462C4605F11A
:100E40001800286068600020A881304604F01CFB70
:100E500070BD00002DE9F04105460E46144600BF66
:100E60002846FFF7D7FF074602E00A2003F074FE8A
:100E70002846FFF7C2FFB842F7DA31462846FFF7A7
:100E80008BFFBDE8F08170B58B48006840F008002A
:100E90008949C439C1F8C400012088498860C86004
:100EA000874800780A2821D2DFE800F02005080BE7
:100EB0000E1114171A1D4FF4166418E04FF49654CF
:100EC00015E04FF4165412E04FF461540FE04FF464
:100ED00096440CE04FF4164409E04DF6C02406E0B9
:100EE0004FF4614403E04FF4E13400E000BF00BF81
:100EF000802074490873744800680009B0FBF4F05E
:100F000085B22846E91705EB1161090A6D4A11718E
:100F1000E91705EB11610912A5EB012111700320FE
:100F200011460873052048608720087205200121BA
:100F300081404209920002F1E022C2F8001100BF94
:100F4000AFF2EF0300224FF480716048FFF7B5FE67
:100F5000FF2801D1002070BD002002F09FFF5C49F6
:100F600008600846006808B10120F4E70020F2E7B5
:100F700038B5044621465548FFF70EFF04F080FAC5
:100F800005465048007D00F0200060B14F4968469A
:100F9000FFF7D2FE9DF800004A49087008464068F5
:100FA00040F002004860284604F06EFA38BD70B583
:100FB00004460D4603E014F8010BFFF7D9FF281E85
:100FC000A5F101018DB2F6DC70BD10B5044603E059
:100FD00014F8010BFFF7CCFF20780028F8D110BDE2
:100FE00008B50BE03748406840F0010035494860DB
:100FF0006A4600213648006802F0E2FF3148007D71
:1010000000F001000028EDD02E48007800909DF8F7
:10101000000008BDF8B504F033FA064641E004F0DC
:101020000E00022806D004281CD0062825D00C2843
:1010300032D126E0002512E024496846FFF77CFE05
:10104000012804D19DF800001E49087005E01D48E4
:10105000406820F002001B494860681CC5B2102D92
:10106000EADB1DE01A48006803F065F8154840689F
:1010700020F001001349486012E01248007D009002
:101080000EE01348006803F056F80E48406820F060
:1010900001000C49486003E00A48007D009000BF51
:1010A00000BF08488068C4B204F001000028B6D030
:1010B000304604F0E9F9F8BDC4C00F4000C002405A
:1010C0001801001000C000401C000010340B00107C
:1010D0000C0000102DE9F04105460E46144600BFF5
:1010E0002846FFF797FE074602E00A2003F034FD8A
:1010F0002846FFF782FEB842F7DA31462846FFF766
:101100004BFEBDE8F08170B505468448006840F0AC
:1011100010008249C439C1F8C40001208049C86365
:10112000086480207F4908737F4800680009B0FB8D
:10113000F5F084B22046E11704EB1161090A794AFF
:101140001171E11704EB11610912A4EB0121117077
:101150000320114608730520486087200872062086
:10116000012181404209920002F1E022C2F80011FF
:1011700000BFAFF29F0300224FF480716B48FFF76E
:101180009CFDFF2801D1002070BD002002F086FEEA
:10119000674908600846006808B10120F4E70020AC
:1011A000F2E738B5044621466048FFF7F5FD04F044
:1011B00067F905465B48007D00F0200060B15B499F
:1011C0006846FFF7B9FD9DF80000564908700846CB
:1011D000406840F002004860284604F055F938BDE8
:1011E00070B504460D4603E014F8010BFFF7D9FF74
:1011F000281EA5F101018DB2F6DC70BD10B50446C4
:1012000003E014F8010BFFF7CCFF20780028F8D199
:1012100010BD08B50BE04348406840F0010041496B
:1012200048606A4600214248006802F0C9FE3D4815
:10123000007D00F001000028EDD03A4800780090D1
:101240009DF8000008BD08B53648007D00F001009B
:1012500058B93448406840F00100324948606A4655
:1012600000213348006802F0ABFE2E480078009061
:101270009DF8000008BDF8B504F002F9064641E00B
:1012800004F00E00022806D004281CD0062825D021
:101290000C2832D126E0002512E024496846FFF7E9
:1012A0004BFD012804D19DF800001E49087005E09F
:1012B0001C48406820F002001A494860681CC5B20A
:1012C000082DEADB1DE01A48006802F034FF1548DB
:1012D000406820F001001349486012E01148007D89
:1012E00000900EE01248006802F025FF0D484068AB
:1012F00020F001000B49486003E00A48007D00909F
:1013000000BF00BF07488068C4B204F00100002895
:10131000B6D0304604F0B8F8F8BD0000C4C00F40A5
:1013200000C00240000001401C000010340C0010FE
:10133000100000102DE9F04105460E46144600BF8E
:101340002846FFF767FD074602E00A2003F004FC89
:101350002846FFF752FDB842F7DA31462846FFF734
:101360001BFDBDE8F08170B505467D48006840F082
:1013700080707B49C439C1F8C40001207949886272
:10138000C862802078490873784800680009B0FB7B
:10139000F5F084B22046E11704EB1161090A724AA4
:1013A0001171E11704EB11610912A4EB0121117015
:1013B0000320114608730520486087200872072023
:1013C000012181404209920002F1E022C2F800119D
:1013D00000BFAFF29F0300224FF480716448FFF713
:1013E0006CFCFF2801D1002070BD002002F056FDEA
:1013F000604908600846006808B10120F4E7002051
:10140000F2E738B5044621465948FFF7C5FC04F019
:1014100037F805465448007D00F0200060B154497B
:101420006846FFF789FC9DF800004F4908700846A0
:10143000406840F002004860284604F025F838BDB6
:1014400070B504460D4603E014F8010BFFF7D9FF11
:10145000281EA5F101018DB2F6DC70BD10B5044661
:1014600003E014F8010BFFF7CCFF20780028F8D137
:1014700010BD08B50BE03C48406840F001003A4917
:1014800048606A4600213B48006802F099FD3648F2
:10149000007D00F001000028EDD033480078009076
:1014A0009DF8000008BD3049097D01F0010111B12E
:1014B0002D49087800E000207047F8B503F0E0FF00
:1014C000064641E004F00E00022806D004281CD095
:1014D000062825D00C2832D126E0002512E0244928
:1014E0006846FFF729FC012804D19DF800001E4939
:1014F000087005E01C48406820F002001A49486066
:10150000681CC5B2082DEADB1DE01A48006802F02D
:1015100012FE1548406820F001001349486012E0AF
:101520001148007D00900EE01248006802F003FEB2
:101530000D48406820F001000B49486003E00A486C
:10154000007D009000BF00BF07488068C4B204F06F
:1015500001000028B6D0304603F096FFF8BD000029
:10156000C4C00F4000C00240008009401C000010B1
:10157000340D00101400001006488047064800474C
:10158000FEE7FEE7FEE7FEE7FEE7FEE7FEE7FEE733
:10159000FEE7FEE73D180000C5000000D7480068E0
:1015A00000F48070002851D1D4480830006800F061
:1015B0000100F0B9D148006800F01F00D049B1FB2C
:1015C000F0F0D0490860D048D0F8A80100F01F0022
:1015D000CB49B1FBF0F0CD490860C848001F006856
:1015E00000F00100401CC649B1FBF0F0C84908609A
:1015F000B8E0C2489C30006800F0400038B90020D4
:10160000C0490860C1490860C1490860AAE0BB48F8
:10161000006800F01F00BA49B1FBF0F0B94908605A
:10162000B948D0F8A80100F01F00B549B1FBF0F0AF
:10163000B6490860B148001F006800F00100401C76
:10164000AF49B1FBF0F0B24908608BE0AB487C38A1
:10165000006800F4807038B90020AA490860AB49DE
:101660000860AB4908607DE0A4480830006800F0DD
:101670000100A0BBA1487C38006800F01F00401C9E
:101680009F494843A049D1F8041101F01F01B0FB64
:10169000F1F09C49086099487C38006800F01F0010
:1016A000401C974948439549A431096801F01F013E
:1016B000B0FBF1F09549086090487C38006800F074
:1016C0001F00401C8E4948438F49D1F8001101F09A
:1016D0000101491CB0FBF1F08D49086042E0FFE7D1
:1016E00086489C30006800F0400038B900208549E9
:1016F0000860864908608649086033E07F487C3886
:10170000006800F01F00401C7D4948437E49D1F825
:10171000041101F01F01B0FBF1F07A49086077482D
:101720007C38006800F01F00401C7549484373492D
:10173000A431096801F01F01B0FBF1F073490860A2
:101740006E487C38006800F01F00401C6C4948431C
:101750006D49D1F8001101F00101491CB0FBF1F015
:101760006B4908606548001D006800F48070C8B3CC
:101770006248001D006800F01F0020B1042806D058
:10178000062830D104E00020624908602FE000BF45
:101790005A480830006800F0010088B157487C388A
:1017A000006800F01F00401C554948435649D1F8D5
:1017B000081101F01F01B0FBF1F05649086010E07C
:1017C0004E487C38006800F01F00401C4C494843DC
:1017D0004D49D1F8081101F01F01B0FBF1F04D495E
:1017E000086004E004E000204A49086000BF24E0EB
:1017F0004248001D006800F40070D8B13F4808302E
:10180000006800F0010050B13C485C38006800F00E
:101810001F00401C3A4948433E4908600DE03748E4
:101820007C38006800F01F00401C354948433949A6
:10183000086002E0002037490860704721202F49E6
:101840009C31086000BF2D489C30006800F04000CB
:101850000028F8D0012029490831086009202A49C8
:10186000C1F884000120284980310860AA2023495A
:10187000783908605520086000BF20487C3800682F
:1018800000F480600028F8D023201C4960390860EB
:1018900001201D49C1F8A000AA2018495839086044
:1018A00055201949C1F8AC0000BF14485C380068E5
:1018B00000F480600028F8D040F201100F49086061
:1018C00040F201201049C1F8080101200B49091F0D
:1018D000086002200949A43108600F4807494039CF
:1018E000086088150549C431086045F23A00064988
:1018F00008600020094908607047000004C10F40DB
:10190000001BB7001800001000C00F401C000010A2
:101910002000001024000010DE87280408ED00E0FD
:101920000020534908807047704710B50446204690
:10193000FEF7D3FB10BD10B504462046FEF7CEFBE4
:1019400010BD10B5FEF7CBFB10BD10B5FEF7C9FBFF
:1019500010BD70B5044610464FF080750560051F38
:1019600028462C60434E051F28462E604FF0123645
:10197000051F28462E604FF00336051F28462E60AF
:101980004FF00236051F28462E607610051F2846A8
:101990002E60051F284629604FF01136051F284686
:1019A0002E604FF01036051F28462E604FF0093686
:1019B000051F28462E604FF00836051F28462E606A
:1019C0004FF00736051F28462E604FF00636051FDC
:1019D00028462E604FF00536051F28462E604FF032
:1019E0000436051F28462E6070BD10B5FEF77AFB41
:1019F00010BD10B504462046FEF775FB10BD10B5AE
:101A0000FEF772FB1A480088401C194908800846F6
:101A10000088642803D30020088003F013FC10BD65
:101A200010B503F02DFD044613480078401C124900
:101A30000870FEF75AFB00F0AFFD204603F024FDCE
:101A400000F0B3FC10BD411E4FF0E0225161FF21B8
:101A50000A4A11704FF0E021096941F005014FF089
:101A6000E02211611146096941F0020111617047DC
:101A7000280000103F4B00004500001023ED00E05F
:101A80001D481E481E481F481F482048204821481E
:101A900021482248224823482348244824482548EE
:101AA00025482648264827482748284828482948BE
:101AB00029482A482A482B482B482C482C482D488E
:101AC0002D482E482E482F482F483048304831485E
:101AD000314832483248334833483448344835482E
:101AE00035483648364837483748384838483948FE
:101AF000394800BF70470000D4580000D858000093
:101B0000DE580000E0580000DC580000E2580000F9
:101B1000E4580000E6580000E8580000EA580000C9
:101B2000EC580000EE580000F0580000F258000099
:101B3000F4580000F6580000F8580000FA58000069
:101B4000FC580000FE580000005900000259000037
:101B50000459000006590000085900000A59000005
:101B60000C5900000E5900001059000012590000D5
:101B70001459000016590000185900001A590000A5
:101B80001C5900001E590000205900002259000075
:101B900024590000265900002A5900002C59000041
:101BA0002E590000305900004C1B0010CC1E0010B4
:101BB0003459000036590000385900003A590000E5
:101BC0003C5900003E5900004059000042590000B5
:101BD00044590000325900004659000001460020D7
:101BE00002E0491C421CD0B20A78002AF9D17047A1
:101BF0002DE9F04105460E461446002725B904207C
:101C000020700020BDE8F0811EB90C20207000205B
:101C1000F8E7F748007818B1112020700020F1E7AC
:101C20002878012808D0022807D0032802D00428E9
:101C300004D100E000BF00BF00BF03E0012020701E
:101C40000020DFE700BF03F01BFC07466869306037
:101C50003068FFF7C3FF8046384603F015FC0020CC
:101C600020704046CEE72DE9F04105460E46144669
:101C700000271DB904202070BDE8F08116B90C20A2
:101C80002070F9E7DA48007810B112202070F3E7ED
:101C90002878012808D0022807D0032802D0042879
:101CA00004D100E000BF00BF00BF02E001202070AF
:101CB000E2E700BF03F0E4FB07466E61384603F03D
:101CC000E3FB0020207000BFD6E7F0B5024612F813
:101CD000384F95785678383A0B4618680FE000F17F
:101CE0000B073F5DB74300F10B0C0CF8047067461F
:101CF0003F5D17B9877AAF4387721B1D18680028AC
:101D0000EDD1F0BDBB49BC4A1278885CBB49095C87
:101D1000B84A515C01EBC001B94A1170704710B567
:101D2000002403F0ADFB0446B1480078F8B9B5488B
:101D30000078E0B9FFF7E6FFB348B149097850F8F9
:101D40002100B2490860AE480078B149097888425C
:101D50000DD0AE480068C06B401CAC490968C86330
:101D6000AC480068401CAB49086003F0A0FB20466B
:101D700003F08AFB10BD70B501460024A64D2D6806
:101D8000EC61A54C246821620B4618681BE0A24C4C
:101D9000246894F8385000F10B04645D9E4D2D6862
:101DA00095F839502C439C4D2D6895F8386000F11A
:101DB0000B05AC55847A984D2D6895F83A502C4314
:101DC00084721B1D18680028E1D1934C246894F894
:101DD00038208A4CA45C904D2D6895F83950AC435E
:101DE000864DAC542C46A45C44B98B4C246894F8C2
:101DF0003A50814C2478AC437F4D2C7070BD2DE956
:101E0000FF4F83B081460E461546109F002000907C
:101E1000B9F1000F05D104203870002007B0BDE8EB
:101E2000F08FD9F8000018B9042038700020F5E7C9
:101E30001EB9042038700020F0E71DB90420387066
:101E40000020EBE700203060CA46DAF8004015E0D9
:101E50002078062807D2DFE800F00604050307080B
:101E600007E006E005E000BF00BF01203870002059
:101E7000D4E700BF0AF1040ADAF80040002CE7D1E9
:101E80005B48007818B1022038700020C6E75D4832
:101E9000007818B10D2038700020BFE703F0F0FA89
:101EA00000900020029083460190CA46DAF8004074
:101EB00066E02078062853D2DFE800F052172A03A4
:101EC0005354208960B12089401E208110C6012012
:101ED0000290002001C50BF101001FFA80FB03E016
:101EE000019840F00100019045E0606858B16068D9
:101EF00001C50020606010C6012002900BF10100B6
:101F00001FFA80FB03E0019840F00200019032E0EC
:101F1000D4F80480B8F81600E8B1D8F81010081DFD
:101F2000C8F81000086801C5D8F80810D8F81000E3
:101F3000884203D1D8F80400C8F81000B8F8160099
:101F4000401EA8F8160010C6012002900BF10100F7
:101F50001FFA80FB03E0019840F0040001900AE0C2
:101F600000BF00BF009803F08FFA0020306001200E
:101F70003870584652E700BF0AF1040ADAF8004008
:101F8000002C96D10298012808D1002030600098DA
:101F900003F07AFA0020387058463FE71E48006880
:101FA00090F83400019941F0800108431A4909680A
:101FB00081F8340000201849096881F83500164975
:101FC0000698096808634846FFF7D5FE009803F0B5
:101FD0005BFAFFF7A4FE03F053FA00900E48006886
:101FE00090F83500D0B1012831D002282ED116E06A
:101FF0004500001048590000490000104A00001038
:102000004800001046000010E411001060000010AD
:10201000470000102C0000105800001000BFFE48C0
:102020000068C4693CB110C6002030600BF10100AB
:102030001FFA80FB09E00120F749096881F83500A3
:102040004946F5480068FFF740FE06E000BF4946F4
:10205000F1480068FFF739FE00BF00BFEE48006896
:1020600090F8350020B1012828D0022825D11FE0A2
:10207000207806280DD2DFE800F00C0607030D0ECD
:10208000002001C510E000BFE3480068406A01C5B8
:102090000AE000BF00BF009803F0F6F900203060AE
:1020A000012038705846B9E600BF002038700AE0B9
:1020B000002001C50E20387005E000BF002001C5DA
:1020C0000A20387000BF00BF0020D349096881F89A
:1020D0003400D149096881F83500CF490968C861E1
:1020E000CD4909680862CC4909684862009803F044
:1020F000CBF9584692E67CB5002514E0694628469F
:1021000002F0E5FB064666B9C44850F8254044B1E4
:10211000012C06D0D4E9020100EB8100A0640198F3
:10212000E064681CC5B23F2DE8D97CBD002400BF27
:1021300002E0C82002F010FDB94800780028F8D06D
:10214000B84800686421B0FBF1F0B6490860084661
:10215000006828B90020B4490870FF2002F002FC92
:1021600000BF03F08DF90446B0480068B04908602C
:102170000020AE490860204603F086F9AC480068AC
:10218000A8490968B0FBF1F0C0F16400A6490870E5
:10219000FFF7DBFBFFF7AFFF642002F0DDFCE0E7B9
:1021A00000B587B0032000214022A24BCDE90132C7
:1021B000CDE903104FF6FE703E239E4AFC3200909C
:1021C000AFF2970002F06EF906AA9BA13E2002F042
:1021D000F1FA07B000BD002400BF00BF03F050F9C2
:1021E000044692480068401C90490860204603F06D
:1021F0004BF9FFF7A6FBF1E700B587B003200021FC
:102200002022914BCDE90132CDE903104FF6FF704A
:102210003F238D4A7C320090AFF2450002F042F934
:1022200006AA8AA13F2002F0C5FA07B000BD04E06B
:10223000002200F8012B4A1E91B20029F8D1704704
:1022400070B54FF4F0718548FFF7F1FF002411E0FD
:10225000601C85B204EB4400804901EBC00305EB30
:10226000450001EBC006002018705E607CA058613C
:10227000601C84B2132CEBD304EB4400774901EBD0
:10228000C00300201870586075A058610846754951
:10229000086070BD70B54FF4F2617348FFF7C7FF77
:1022A0004FF480715D48FFF7C2FF002413E0601C0B
:1022B000C5B204EB440000EBC4006B4901EBC00362
:1022C00005EB450000EBC50001EBC0065E6164A0B4
:1022D0001865601CC4B2152CE9D304EB440000EB74
:1022E000C400614901EBC003002058615CA018657F
:1022F00000205E4908605C485D49086070BD0021AF
:102300005C4A1170002004E000215B4A1154411C1A
:10231000C8B20828F8D30021584A1170584A1170E1
:10232000584A11603C4A11607047002056490860C5
:102330005649087056490870564908705649087041
:1023400056490860394908603949086035490860CC
:1023500033490870704710B5FFF7E2FAFFF7E5FF61
:10236000FFF7CDFFFFF796FFFFF76AFF00F0E4FEEF
:1023700001F025FA01F051FDFFF73EFFFFF710FFD6
:1023800002F0BBFFFFF7D0FAFFF77AFB10BD42481F
:102390000078012808D13D480078FF2804D23B4846
:1023A0000078401C39490870704710B500243A483D
:1023B0000078012876D103F063F8044633480078AA
:1023C00020B132480078401E304908702F4800780C
:1023D000F8B92F480078E0B9FFF794FC0F48284976
:1023E000097850F8210027490860254800782349DA
:1023F000097888420DD023480068C06B401C2149F1
:102400000968C86325480068401C2449086003F037
:1024100053F8204644E045E058000010E411001055
:10242000440000103C000010380000105400001060
:10243000400000106410001075432F4F532D494980
:1024400020537461740000006411001075432F4F15
:10245000532D49492049646C65000000340E00107A
:102460003F00000030000010E41200106400001073
:102470005C000010490000104A00001047000010E6
:1024800048000010600000107400001045000010AB
:102490004600001053000010520000102C000010E5
:1024A00002F0F2FF10BD10B50024FE4800780128AC
:1024B00011D102F0E5FF0446FB48007840B9FB4823
:1024C0000078FF2804D2F9480078401CF7490870CA
:1024D000204602F0D9FF10BD10B50024F148007865
:1024E000012821D102F0CCFF0446F0480078C0B1A9
:1024F000EE480078401EED4908700846007860B943
:10250000E948007828B9204602F0BEFFFFF707FC33
:102510000AE0204602F0B8FF06E0204602F0B4FFD1
:1025200002E0204602F0B0FF10BD10B5DD48007893
:1025300090B9FFF7E7FBDE480078DE490870DE4817
:10254000DB49097850F82100DC490860084600683A
:10255000DB49086002F09BFF10BD10B5002402208B
:1025600002F0FAFA02F08CFF04460020D549086018
:10257000204602F089FF642002F0EEFA02F080FFAC
:102580000446D0480068D04908600120CF4908704F
:10259000204602F079FF10BD70B50026FFF72FFA34
:1025A00002F06EFF0646CA480068401CC849086031
:1025B000304602F069FFBB480078012853D1C54876
:1025C000007820B1012804D0022809D103E00125B8
:1025D0000BE0002509E001250120BE49087004E058
:1025E00001250020BB49087000BF00BF05B970BDC0
:1025F000B948046833E002F043FF0646206B50B34D
:10260000206B401E2063206B28BB94F8340000F040
:10261000370040B114F8340F00F0C80020700120DA
:102620006070343C02E0002084F8350094F83400F7
:1026300000F0080078B93834A078A8490978084330
:10264000A64908702078A649085C6178084314F808
:102650003819A34A50546469304602F015FF94F8C3
:1026600036003F28C7D100BFC1E740F223107047B2
:10267000704710B590F8382001F10B039B5C90F87F
:102680003940A34301F10B04A35423469B5C23B9B7
:102690008B7A90F83A40A3438B7210BD2DE9F04F2E
:1026A00005460F4690469946A87A8E490E5C05F17C
:1026B0000B00805D11F800B00BEBC60000F0FF0AC4
:1026C0007D4850F82A4000202434E0602760207CB8
:1026D00020EA0800207484F81190207C243C00F04B
:1026E000080068B994F83A007C49097808437B49A6
:1026F00008707B48805D94F8391008437849885504
:1027000029462046FFF7B5FF206A20B12046216AFE
:10271000FFF7DBFAE5615046BDE8F08F10B5684A77
:102720001268D061664A126892F8383000F10B02E4
:10273000D25C634B1B6893F839301A43604B1B68BB
:1027400093F8384000F10B031A55827A5C4B1B68F2
:1027500093F83A301A438272594A126892F8381044
:102760005F4A525C564B1B6893F839309A435C4B76
:102770005A541A46525C42B9514A126892F83A3099
:10278000564A12789A43554B1A7010BD01460022E2
:102790008A72002005E0002301F10B021354421C51
:1027A000D0B20828F7D3704705E011F8013B00F8D4
:1027B000013B531E9AB2002AF7D170472DE9F84F1A
:1027C00005460F4690469946DDE90AAB0020009089
:1027D00002F056FE009044480468002C60D01C347F
:1027E00054F8080C40490860009802F04DFE44F887
:1027F0001C7CA576002020766076606144F818BCC9
:1028000044F810AC44F8148C0C9824F80C0C24F800
:102810000A9C0020E077E810207705F00700E076BA
:10282000217F01208840A077E17E012088406077E9
:10283000002020606060E060A0602062A0626062B2
:10284000E0622063AFF2E83060631C3C002606E0E3
:10285000002104F1540040F82610701CC6B2002E6E
:10286000F6D02046FFF7C5F82046FFF75EF802F0E5
:1028700007FE0090104840F8254017480068606146
:102880000020A0611448006810B1134800688461FA
:10289000114804603834A07810490978084325E0CD
:1028A0003AE0000052000010450000104600001001
:1028B0004800001047000010E411001060000010F4
:1028C00058000010540000103C000010440000109C
:1028D000740000106800001064000010490000102F
:1028E0004A000010485900005C0000100D490870B3
:1028F00020780D49085C6178084314F838190A4AB1
:1029000050540A480078401C08490870009802F0AA
:10291000BBFD0020BDE8F88F009802F0B5FD422015
:10292000F8E70000490000104A00001053000010B2
:102930002DE9F05F04460F4691461E464FF0000B0E
:1029400024B96E2030700020BDE8F09F2078052863
:1029500003D0012030700020F6E709F0800ABAF1B8
:10296000000F04D029F080094FF0010801E04FF07A
:1029700000080020307002F083FD8346B9F1000F9B
:102980002CD0B9F1010F3BD0B9F1020F03D0B9F14E
:10299000030F46D111E0208900EA0705BD4206D1A8
:1029A000B8F1010F05D12089A843208101E07020F2
:1029B0003070584602F068FD3AE0208900EA0705C9
:1029C00035B1B8F1010F05D12089A843208101E07C
:1029D00070203070584602F057FD29E0208927EA20
:1029E0000005BD4206D1B8F1010F05D12089284369
:1029F000208101E070203070584602F045FD17E05C
:102A0000208927EA000535B1B8F1010F05D12089E9
:102A10002843208101E070203070584602F034FDD8
:102A200006E0584602F030FD00256F20307000BFF0
:102A300000BF284688E72DE9F04106460D460027ED
:102A4000F748007820B1102028700020BDE8F08100
:102A500002F016FD0746F348046884B10068406838
:102A6000F049086005202070268100206060EEA0FB
:102A7000E060384602F008FD0020287004E0384687
:102A800002F002FD722028702046DFE730B50146D3
:102A90004A6808682AB9CC68606028B1002545609A
:102AA00002E0106000B142608B6800259D6230BD7D
:102AB000F0B506460F46B46800202C3460602780CD
:102AC000207A00F0DF00207200206072207A2C3C17
:102AD00088B93834A078D54909780843D3490870B3
:102AE0002078D349085C6178084314F83819D04A33
:102AF0005054012500E000253046FFF7C7FF284667
:102B0000F0BD2DE9F0470446894615464FF0000A0E
:102B100024B96E2028702046BDE8F087C0480078B0
:102B200018B10F2028702046F6E72078052803D03A
:102B3000012028702046EFE702F0A2FC8246606880
:102B400008B1012700E00027B9F1000F03D0B9F167
:102B5000010F3CD119E08FB9B3A0E06000202070D4
:102B6000B0480068606000202081AE480460504694
:102B700002F08AFC00202870002605E0504602F092
:102B800083FC49202870264628E0D4F8048005E01C
:102B900000214046FFF78CFFD8F80080B8F1000F05
:102BA000F6D1A1A0E060002020709E48006860601F
:102BB000002020819B480460504602F065FC012FF4
:102BC00001D1FFF7ACF800202870002606E050463F
:102BD00002F05AFC07202870264600BF00BF30468E
:102BE0009AE72DE9F04105460E461446002725B91F
:102BF0006E2020700020BDE8F0811EB90C202070EE
:102C00000020F8E78648007818B1112020700020D5
:102C1000F1E702F035FC07462878052806D038464B
:102C200002F032FC012020700020E4E7E868306008
:102C30003068FEF7D3FF8046384602F025FC0020BE
:102C400020704046D7E72DE9F04105460E46144670
:102C500000271DB96E202070BDE8F08116B90C2048
:102C60002070F9E76E48007810B112202070F3E769
:102C700002F006FC07462878052805D0384602F001
:102C800003FC01202070E7E7EE60384602F0FCFB11
:102C90000020207000BFDFE7F0B51446059E654FA9
:102CA0003F6897F8347047F02007DFF888C1DCF8F8
:102CB00000C08CF834700027DFF878C1DCF800C061
:102CC0008CF835705B4F3F683E635A4F3F68B9627E
:102CD0000C828B74574F3F688F6047680F600027E6
:102CE0004F60C860456805B169604160514F3F68F9
:102CF00097F838204E4FBF5CDFF838C1DCF800C0D1
:102D00009CF839C027EA0C07DFF824C10CF80270E0
:102D10006746BF5C5FB9474F3F6897F83AC0434F7B
:102D20003F7827EA0C07DFF804C18CF80070F0BD8B
:102D30002DE9F04F89B005460F4691469A46129EFE
:102D4000002002902DB96E203070002009B0BDE83F
:102D5000F08F3348007818B1022030700020F5E77A
:102D60003548007818B10D2030700020EEE7287843
:102D7000052803D0012030700020E7E709F0800B20
:102D8000BBF1000F04D009F07F094FF0010801E00A
:102D90004FF0000802F074FB0290B9F1000F59D017
:102DA000B9F1010F79D0B9F1020F03D0B9F1030FD6
:102DB00072D120E0288900EA0704BC420FD1B8F1A3
:102DC000010F02D12889A04328811A480068848510
:102DD000029802F059FB002030702046B6E74B46BF
:102DE0003A4604A92846CDF800A0FFF755FF0298FF
:102DF00002F04AFB79E0288900EA0704F4B1B8F14F
:102E0000010F02D12889A04328810A4800688485DF
:102E1000029802F039FB00203070204696E700004F
:102E200045000010340000103F0000004900001071
:102E30004A00001058000010460000104B463A4669
:102E400004A92846CDF800A0FFF726FF029802F05B
:102E50001BFB4AE0288927EA0004BC420FD1B8F1E5
:102E6000010F02D1288920432881C7480068848542
:102E7000029802F009FB00203070204666E74B46BE
:102E80003A4604A92846CDF800A0FFF705FF0298AE
:102E900002F0FAFA29E000E01FE0288927EA00049E
:102EA0007CB1B8F1010F02D1288920432881B648AE
:102EB00000688485029802F0E7FA0020307020460E
:102EC00044E74B463A4604A92846CDF800A0FFF750
:102ED000E3FE029802F0D8FA07E0029802F0D4FA72
:102EE00000246F203070204630E700BFFEF717FF48
:102EF00002F0C6FA0290A448006890F8350020B3AA
:102F0000A148006890F83500039000209E490968A8
:102F100081F8350004A8FFF7B9FD00209A49096837
:102F200081F83400029802F0AFFA002403980128D7
:102F300005D0022802D10E20307003E000BF0A2025
:102F4000307000BF00BF204600E78F480068848DC6
:102F5000B8F1010F1ED1B9F1000F0ED0B9F1010F78
:102F60000CD0B9F1020F03D0B9F1030F0AD100E080
:102F700000BF2889A04328810BE000BF2889204397
:102F8000288106E0029802F07FFA6F20307000205E
:102F9000DCE600BF029802F077FA0020307020468D
:102FA000D4E670B5002502F06BFA05467648006855
:102FB000848D284602F068FA204670BD2DE9FC5F3A
:102FC0000446894692461E460020009024B96E2091
:102FD00030700020BDE8FC9F2078052803D0012038
:102FE00030700020F6E702F04BFA0090BAF1000FC3
:102FF00003D0BAF1010F0AD104E0208920EA0900C8
:1030000020810BE0208940EA0900208106E0009839
:1030100002F03AFA712030700020DBE700BF4FF079
:10302000000B656855E0A87C40B3012838D0022821
:1030300002D0032844D111E02089298A00EA01073F
:10304000288AB84209D139462846FFF731FD804623
:10305000B8F1010F01D14FF0010B38E02089298A26
:1030600000EA01074FB139462846FFF721FD8046A7
:10307000B8F1010F01D14FF0010B28E0288A218916
:1030800020EA0107288AB84209D139462846FFF7C5
:103090000FFD8046B8F1010F01D14FF0010B16E092
:1030A000288A218920EA01074FB139462846FFF7CF
:1030B000FFFC8046B8F1010F01D14FF0010B06E093
:1030C000009802F0E1F96F203070002082E700BF25
:1030D0002D68002DA7D1009802F0D6F9BBF1010FA1
:1030E00001D1FEF71CFE02F0CBF90090208901907F
:1030F000009802F0C9F90020307001986AE72DE9C4
:10310000F04104460D46002724B96E2028700020A7
:10311000BDE8F0812078052803D001202870002028
:10312000F6E702F0ADF907462689384602F0ACF919
:10313000002028703046EBE72DE9F041502113487C
:10314000FFF775F800250EE0681C86B20F4800EB0B
:10315000051400EB0617002020706760AFF23830CE
:10316000E060681C85B2042DEED3084800EB05141E
:10317000002020706060AFF25030E06003480449E6
:103180000860BDE8F0810000580000101410001025
:103190003400001070B5044600260CB9002070BD44
:1031A0002078012801D00020F9E702F069F90646ED
:1031B000656800206060304602F066F92846EEE758
:1031C00070B505460026F948007808B1002070BDAA
:1031D00002F056F90646F6480468006820B1F44843
:1031E00000684068F2490860304602F04DF94CB181
:1031F00001202070002020816560EEA060612046E3
:10320000FFF7C4FA2046E2E72DE9F0470446884676
:1032100015464FF0000924B9042028702046BDE867
:10322000F0872078012803D0012028702046F6E797
:10323000DE48007818B10F2028702046EFE702F032
:103240001FF98146A07A08B1012700E00027B8F1F4
:10325000000F03D0B8F1010F3AD119E08FB9D5A012
:10326000606100202070D2480068606000202081EA
:10327000CF480460484602F007F900202870002675
:1032800005E0484602F000F949202870264626E06D
:1032900005E00023022219462046FFF7FFF9A07A35
:1032A0000028F6D1C3A0606100202070C0480068EB
:1032B000606000202081BE480460484602F0E4F8C7
:1032C000012F01D1FEF72BFD00202870002606E01B
:1032D000484602F0D9F807202870264600BF00BFF4
:1032E00030469CE72DE9F04105460F4614464FF065
:1032F000000825B9042020700020BDE8F08128785E
:10330000012803D0012020700020F6E7A7480078AC
:1033100018B1022020700020EFE7A748007818B10C
:103320000D2020700020E8E702F0AAF880466E68C1
:1033300046B100206860404602F0A6F800202070E8
:103340003046DAE79D48006890F8340040F002000B
:103350009A49096881F8340000209849096881F881
:1033600035009648006807632846FFF7D7F94046BE
:1033700002F08AF8FEF7D3FC02F082F880468F480C
:10338000006890F8350020B101280DD002280AD13C
:1033900005E08A480068466A002020700DE000269B
:1033A0000E20207009E000BF294684480068FFF71E
:1033B00060F900260A20207000BF00BF00207F496E
:1033C000096881F834007D49096881F835007B4936
:1033D0000968C861794909680862784909684862DA
:1033E000404602F051F8304687E72DE9F0410446A7
:1033F0000F4615464FF0000824B90420287000201D
:10340000BDE8F0812078012803D001202870002039
:10341000F6E702F035F88046A07A20B300267FB1A7
:10342000012F0CD107E002231A4600212046FFF7A6
:1034300035F9701CC6B2A07A0028F4D109E000BFAB
:1034400002231A4600212046FFF728F9701CC6B255
:1034500000BF00BF404602F017F8FEF760FC0E20E8
:1034600028703046CCE7404602F00EF80020287065
:1034700000BFC5E770B504460D4600260CB9042010
:1034800070BD0DB90320FBE72078012801D0012091
:10349000F6E701F0F5FF0646A07A60B100230222AC
:1034A00029462046FFF7FAF8304601F0EDFFFEF717
:1034B00036FC0020E4E7606820B1304601F0E4FF0C
:1034C0001420DDE76560304601F0DEFF0020D7E71D
:1034D0002DE9F04104460D461646002714B9042094
:1034E000BDE8F0810DB90320FAE72078012801D06A
:1034F0000120F5E701F0C4FF0746A07AE8B106F025
:10350000010050B105E00023022229462046FFF7C2
:10351000C5F8A07A0028F6D105E00023022229464A
:103520002046FFF7BBF8384601F0AEFF06F0040076
:1035300008B9FEF7F4FB0020D2E7606820B13846F6
:1035400001F0A2FF1420CBE76560384601F09CFF34
:103550000020C5E72DE9F04704460D464FF000096D
:1035600014B90420BDE8F0870DB90920FAE72078E6
:10357000012801D00120F5E701F082FF8146A07A01
:10358000287304F10B0705F10408002605E017F87D
:10359000010B08F8010B701CC6B2082EF7D3606847
:1035A0002860484601F070FF0020DBE7450000106E
:1035B000300000103F0000004600001058000010CE
:1035C0002DE9FC5F05460F4691461E4600200090FF
:1035D00025B9622030700020BDE8FC9F05F0030093
:1035E00018B1622030700020F6E7022F03D25B2072
:1035F00030700020F0E7B9F1040F03D25C20307086
:103600000020E9E701F03CFF00907F480468006873
:1036100020B17D48006840687B490860009801F04F
:1036200033FF1CB95A2030700020D5E7AA46A846BF
:10363000781E01904FF0000B05E0C844CAF80080E6
:10364000C2460BF1010B01988345F6D30020CAF85E
:103650000000256065602761E760C4F8089030705D
:103660002046B9E72DE9F04104460D46002724B96C
:10367000602028700020BDE8F08101F001FF0746BE
:10368000206960B16668306860602069401E206112
:10369000384601F0F9FE002028703046EBE7384646
:1036A00001F0F2FE5D2028700020E4E72DE9F041F2
:1036B00006460D461446002726B9602020700020DB
:1036C000BDE8F0811DB90C2020700020F8E74F48BC
:1036D000007818B1112020700020F1E701F0D0FE31
:1036E0000746706928602868FEF778FA80463846F1
:1036F00001F0CAFE002020704046E1E72DE9F041CC
:1037000005460E46144600271DB960202070BDE80E
:10371000F08116B90C202070F9E73C48007810B110
:1037200012202070F3E701F0ABFE07466E613846C9
:1037300001F0AAFE0020207000BFE8E770B5044643
:103740000D4600260CB9602070BD0DB95F20FBE767
:1037500001F096FE0646D4E90310884204D33046B1
:1037600001F092FE5E20EFE76068286065602069E6
:10377000401C2061304601F087FE0020E4E770B570
:1037800005460C4600260DB9602070BD0CB96120BD
:10379000FBE701F075FE06462868206068686060F7
:1037A000A868A060E868E06028692061304601F000
:1037B0006BFED4E90301401A60610020E5E770B5B3
:1037C00078211348FEF733FD00240EE004EB44009B
:1037D0000F4901EBC005601C00EB400001EBC0008D
:1037E00068600CA06861601C84B2042CEED304EB0A
:1037F0004400074901EBC0050020686005A068612E
:1038000008460149086070BD6C00001045000010BA
:10381000741A00103F0000002DE9F04106460D46E5
:103820004FF0000826B9042028700020BDE8F08180
:103830003078022803D0012028700020F6E701F03C
:103840001FFE80467468E08A78B12169081D2061F6
:103850000F68E08A401EE082A1682069884201D199
:10386000606820610020287002E01F202870002777
:10387000404601F009FE3846D8E72DE9F0410646FA
:103880000F464FF00008FA48007810B10020BDE85C
:10389000F08101F0F5FD8046F6480468006820B12B
:1038A000F44800684068F3490860404601F0ECFDC8
:1038B000FCB101F0E5FD8046EF480568D5B1006830
:1038C0000068ED490860404601F0DEFD6E6006EBE1
:1038D0008700A860EE602E61AF820020E88202209F
:1038E0002070002020816560E4A060612046FEF722
:1038F0004DFF08E0DF4800686060DE480460404635
:1039000001F0C2FD00242046C1E72DE9F04704463E
:10391000894615464FF0000A24B904202870204635
:10392000BDE8F0872078022803D0012028702046C7
:10393000F6E7CF48007818B10F2028702046EFE74F
:1039400001F09EFD8246A07A10B14FF0010801E01F
:103950004FF00008B9F1000F03D0B9F1010F49D1C0
:1039600021E0B8F1000F17D1C4A060616668C248B9
:1039700000683060C048066000202070BD480068C4
:10398000606000202081BB480460504601F07CFD4F
:1039900000202870002705E0504601F075FD492001
:1039A000287027462DE005E0002304221946204612
:1039B000FEF774FEA07A0028F6D1B0A060616668B8
:1039C000AD4800683060AC48066000202070A9480F
:1039D0000068606000202081A6480460504601F025
:1039E00053FDB8F1010F01D1FEF799F900202870BD
:1039F000002706E0504601F047FD072028702746C3
:103A000000BF00BF38468BE770B5054600260DB9EC
:103A1000042070BD2878022801D00120F9E701F0C8
:103A20002FFD06466C686068E060606820610020D9
:103A3000E082304601F028FD0020EAE72DE9F0475A
:103A40000646884615464FF0000926B9042028701E
:103A50000020BDE8F0873078022803D001202870CC
:103A60000020F6E78248007818B102202870002074
:103A7000EFE78348007818B10D2028700020E8E7B0
:103A800001F0FEFC81467468E08A98B12169081D46
:103A900020610F68E08A401EE082A16820698842A8
:103AA00001D160682061484601F0EEFC00202870DA
:103AB0003846CEE77348006890F8340040F00400C0
:103AC0007049096881F8340000206E49096881F85E
:103AD00035006C480068C0F830803046FEF71EFEA6
:103AE000484601F0D1FCFEF71AF901F0C9FC814605
:103AF0006448006890F8350020B101280DD00228F4
:103B00000AD105E05F480068476A002028700DE090
:103B100000270E20287009E000BF31465948006890
:103B2000FEF7A7FD00270A20287000BF00BF002075
:103B30005449096881F834005249096881F8350010
:103B400050490968C8614F49096808624D490968C8
:103B50004862484601F098FC38467AE72DE9F04182
:103B600004460F4615464FF0000824B9042028707B
:103B70000020BDE8F0812078022803D001202870C1
:103B80000020F6E701F07CFC8046A07A20B30026F6
:103B90007FB1012F0CD107E002230422002120462F
:103BA000FEF77CFD701CC6B2A07A0028F4D109E0B3
:103BB00000BF0223042200212046FEF76FFD701C87
:103BC000C6B200BF00BF404601F05EFCFEF7A7F89A
:103BD0000E2028703046CCE7404601F055FC00200E
:103BE000287000BFC5E72DE9F04105460E460027C5
:103BF00015B90420BDE8F0812878022801D0012001
:103C0000F8E701F03DFC0746A87A60B100230422E2
:103C100031462846FEF742FD384601F035FCFEF7F6
:103C20007EF80020E6E76C68E08AA18A884204DB1F
:103C3000384601F029FC1E20DCE7E168081DE06041
:103C40000E60E08A401CE082D4E90210884201D173
:103C50006068E060384601F017FC0020CAE72DE9F3
:103C6000F04105460E46002775B90420BDE8F081F5
:103C70004500001030000010700000103F000000F0
:103C800046000010580000102878022801D00120BA
:103C9000ECE701F0F5FB0746A87A60B100230422A7
:103CA00031462846FEF7FAFC384601F0EDFBFEF7F8
:103CB00036F80020DAE76C68E08AA18A884204DBE3
:103CC000384601F0E1FB1E20D0E761682069884298
:103CD00001D1A06820612069001F20612069066071
:103CE000E08A401CE082384601F0CEFB0020BDE7B0
:103CF0002DE9F04105460F4616464FF0000815B96C
:103D00000420BDE8F0812878022801D00120F8E7DE
:103D100001F0B6FB8046A87AE8B106F0010050B188
:103D200005E00023042239462846FEF7B7FCA87AAE
:103D30000028F6D105E00023042239462846FEF784
:103D4000ADFC404601F0A0FB06F0040008B9FDF709
:103D5000E6FF0020D5E76C68E08AA18A884204DB90
:103D6000404601F091FB1E20CBE706F0020058B15F
:103D700061682069884201D1A06820612069001F24
:103D800020612069076009E0E168081DE0600F60BC
:103D9000D4E90210884201D16068E060E08A401CEA
:103DA000E082404601F070FB0020AAE72DE9F047D1
:103DB00005460C464FF0000A15B90420BDE8F0870F
:103DC0000CB90920FAE72878022801D00120F5E78C
:103DD00001F056FB8246A87A207405F10B0804F125
:103DE0000809002705E018F8010B09F8010B781CF9
:103DF000C7B2082FF7D36E68F08A18B1306900682F
:103E0000206001E000202060F08AA080B08AE0807D
:103E1000504601F039FB0020D0E72DE9F041602148
:103E20001048FEF704FA00240DE0601C86B204EB93
:103E300044000C4901EBC00506EB460001EBC0074E
:103E40002F60601C84B2032CEFD304EB44000549BF
:103E500001EBC00500202860084603490860BDE862
:103E6000F0810000EC1A00107000001070B50446DC
:103E700000260CB9002070BD2078032801D0002056
:103E8000F9E701F0FDFA0646258915B12089401EA3
:103E90002081304601F0F8FA2846ECE770B5054677
:103EA0000026E548007808B1002070BD01F0E8FA6E
:103EB0000646E2480468006820B1E04800684068AF
:103EC000DE490860304601F0DFFA4CB10320207073
:103ED000258100206060DAA060612046FEF756FC74
:103EE0002046E2E72DE9F0470446884615464FF0A4
:103EF000000924B9042028702046BDE8F087207806
:103F0000032803D0012028702046F6E7CA4800782D
:103F100018B10F2028702046EFE701F0B1FA814672
:103F2000A07A08B1012700E00027B8F1000F03D004
:103F3000B8F1010F3AD119E08FB9C1A0606100203A
:103F40002070BE480068606000202081BB4804608B
:103F5000484601F099FA00202870002605E04846FE
:103F600001F092FA49202870264626E005E0002359
:103F7000012219462046FEF791FBA07A0028F6D1CF
:103F8000AFA0606100202070AC4800686060002035
:103F90002081AA480460484601F076FA012F01D139
:103FA000FDF7BDFE00202870002606E0484601F01F
:103FB0006BFA07202870264600BF00BF30469CE7FA
:103FC0002DE9F04105460E46144600271DB9042090
:103FD0002070BDE8F0812878032802D001202070ED
:103FE000F7E79548007810B102202070F1E7954876
:103FF000007810B10D202070EBE701F041FA074680
:10400000288940B12889401E2881384601F03CFAB1
:1040100000202070DDE78C48006890F8340040F004
:1040200001008949096881F834000020864909683F
:1040300081F835008448006806632846FEF76EFB69
:10404000384601F021FAFDF76AFE01F019FA074639
:104050007D48006890F8350020B1012809D0022879
:1040600006D102E0002020700BE00E20207008E056
:1040700000BF294674480068FEF7FBFA0A2020704A
:1040800000BF00BF00207049096881F834006E4904
:10409000096881F835006C490968C8616A4909688E
:1040A0000862384601F0F0F900BF92E72DE9F041CF
:1040B00004460F4615464FF0000824B90420287026
:1040C0000020BDE8F0812078032803D0012028706B
:1040D0000020F6E701F0D4F98046A07A20B300264C
:1040E0007FB1012F0CD107E00223012200212046DD
:1040F000FEF7D4FA701CC6B2A07A0028F4D109E009
:1041000000BF0223012200212046FEF7C7FA701CDF
:10411000C6B200BF00BF404601F0B6F9FDF7FFFD93
:104120000E2028703046CCE7404601F0ADF9002063
:10413000287000BFC5E770B5044600250CB90420FF
:1041400070BD2078032801D00120F9E701F098F92B
:104150000546A07A60B10023012219462046FEF7E9
:104160009DFA284601F090F9FDF7D9FD0020E7E718
:1041700020894FF6FF71884207D22089401C208198
:10418000284601F081F90020DAE7284601F07CF9A1
:104190003320D5E72DE9F04704460D464FF00009DE
:1041A00014B90420BDE8F0870DB90920FAE720789A
:1041B000032801D00120F5E701F062F98146A07AD9
:1041C000A87204F10B0705F10208002605E017F8B4
:1041D000010B08F8010B701CC6B2082EF7D320891A
:1041E0002880484601F050F90020DBE72DE9F04136
:1041F00004460E46154600271CB904202870BDE869
:10420000F0812078032802D001202870F7E701F020
:1042100037F9074600202870208908B1268105E07B
:10422000A07A08B9268101E049202870384601F0BB
:104230002BF900BFE3E7000045000010300000103C
:104240003F00000046000010580000102DE9F04F1C
:1042500085B08146884600200090B9F13F0F06D313
:10426000B9F1FF0F03D02A2005B0BDE8F08FB8F1F7
:104270003F0F01D32A20F7E701F002F90090F94837
:1042800050F8280020B1009801F0FEF82820EBE754
:10429000B9F1FF0F03D1F448006890F83690F14867
:1042A00050F8295025B9009801F0EEF82920DBE7F5
:1042B000012D04D1009801F0E7F84320D4E74FEA3C
:1042C000E80708F0070003900120B84000F0FF0A5B
:1042D00001210398814001F0FF0B0020E14941F8E2
:1042E0002900084640F8285015F8386FA878029041
:1042F0006878383D0190DD48815D01980140D1B179
:10430000DA48805D01998843D84988550846805D20
:1043100028B9D748007802998843D5490870D4480D
:10432000007840EA0A00D2490870D048C05D40EAEF
:104330000B00CE49C855EC69D4B104F10B00805D87
:104340000199884304F10B0188550846805D18B92E
:10435000A07A02998843A072A07A40EA0A00A0726B
:1043600004F10B00C05D40EA0B0004F10B01C855DD
:10437000286A30B3286A0490049804681FE004F1A6
:104380000B00805D0199884304F10B0188550846B4
:10439000805D18B9A07A02998843A072A07A40EA99
:1043A0000A00A07204F10B00C05D40EA0B0004F1AA
:1043B0000B01C8550498001D049004980468002C53
:1043C000DDD185F8368085F83870039885F8370098
:1043D00085F83AA085F839B0009801F055F8A5485D
:1043E0000078012801D1FDF79AFC00203CE72DE977
:1043F000FE4F06460F4690461C464FF000093F2CE4
:1044000002D92A20BDE8FE8F01F03AF881469A4889
:10441000007820B1484601F037F83C20F2E7914897
:1044200050F8240060BB01208E4941F82400484622
:1044300001F02AF80023424639463046FDF789FA52
:1044400082460020009001900346024651460290A9
:104450002046FEF7B3F9054635B9864800780128AD
:104460000CD1FDF75CFC09E001F00AF88146002060
:104470007C4941F82400484601F006F82846C1E787
:10448000484601F001F82820BCE702F0010343B1DF
:1044900002F002032BB102E0491E002308C00029EC
:1044A000FAD170472DE9F04F85B081468A46934690
:1044B0001C46DDE90F78129D002003903F2C03D9A4
:1044C0002A2005B0BDE8F08F00F0DAFF03906A48BB
:1044D000007820B1039800F0D7FF3C20F1E7614855
:1044E00050F8240088BB01205E4941F8240003985D
:1044F00000F0CAFF2A4641463846FFF7C6FF2B4662
:104500005A4651464846FDF724FA04901198CDE9E1
:10451000008002953A4620460E9B0499FEF74EF91C
:10452000064636B95348007801280CD1FDF7F7FB51
:1045300009E000F0A5FF039000204A4941F824005B
:10454000039800F0A1FF3046BBE7FFE7039800F0B7
:104550009BFF2820B5E72DE9F04105460027464896
:10456000007810B14020BDE8F0813F2D01D13E2000
:10457000F9E73F2D03D3FF2D01D02A20F3E700F008
:104580007FFF0746FF2D03D13748006890F836506B
:10459000344850F8254024B9384600F075FF4320D0
:1045A000E1E7012C04D1384600F06EFF3D20DAE748
:1045B00014F8380F2D49085C6178884321782B4A1C
:1045C000505414F838091146085C30B994F83A1080
:1045D00027480078884326490870E06918B12046CA
:1045E000E169FEF746F8206A18B12046216AFDF716
:1045F0006CFBA66A16B13046FEF748FA002020632D
:1046000084F8340084F835001C480078FF2804D270
:104610001A480078401C19490870384600F034FFE9
:10462000FEF726F800F02CFF07461448007820B16A
:1046300012480078401E114908702046FDF77BF9AA
:104640000F480078401E0E4908700020054941F8C7
:104650002500A069C0B900206169886109496069C5
:10466000086017E0E4110010580000104A00001024
:1046700049000010520000104500001046000010D4
:104680005300001064000010D4E905014861D4E92A
:1046900005108861F74800686061F6480460F6A07C
:1046A0002065384600F0F0FEF4480078012801D17A
:1046B000FDF735FB002056E72DE9F04104460027C1
:1046C0003F2C02D13E20BDE8F0813F2C03D3FF2CCC
:1046D00001D02A20F7E7FF2C0BD100F0D1FE0746CE
:1046E000E748006890F83B60384600F0CDFE304661
:1046F000E9E700F0C5FE0746E24850F8245025B926
:10470000384600F0C1FE4320DDE7012D04D13846D4
:1047100000F0BAFE3D20D6E73F2085F83B00384642
:1047200000F0B2FE0020CEE72DE9F04705460E4628
:1047300014464FF000083F2D06D9FF2D04D02A2043
:1047400020700020BDE8F0871EB90C2020700020EA
:10475000F8E7CD48007818B1112020700020F1E76B
:1047600000F08EFE8046FF2D03D1C548006890F80A
:104770003650C44850F8257037B9404600F084FEE2
:10478000432020700020DDE7012F06D1404600F0D5
:104790007BFE432020700020D4E7386D3060306805
:1047A000FDF71CFA8146404600F06EFE00202070A6
:1047B0004846C7E72DE9F04105460F4614464FF03D
:1047C00000083F2D05D9FF2D03D02A202070BDE819
:1047D000F08117B90C202070F9E7AB48007810B1D0
:1047E00012202070F3E700F04BFE8046FF2D03D12E
:1047F000A348006890F83650A24850F825602EB9BA
:10480000404600F041FE43202070E0E7012E05D134
:10481000404600F039FE43202070D8E73765404617
:1048200000F032FE0020207000BFD0E770B50546D2
:1048300000263F2D01D32A2070BD00F021FE064640
:10484000904850F8254024B9304600F01DFE46201F
:10485000F2E7012C04D1304600F016FE4320EBE7CE
:1048600094F8340000F0080060B314F8340F00F03E
:10487000F700207014F83409F8B9206BC8B938343F
:10488000A0788249097808438049087020788049D7
:10489000085C6178084314F838197D4A5054304652
:1048A00000F0F2FD75480078012809D1FDF737FACC
:1048B00006E0304600F0E8FD02E0304600F0E4FD9E
:1048C0000020B9E7304600F0DFFD4420B4E72DE9D1
:1048D000F04706460C464FF0000A3F2E04D9FF2E43
:1048E00002D02A20BDE8F0870CB90920FAE70020A1
:1048F0002060606000F0C4FD8246FF2E03D1604856
:10490000006890F836605F4850F8265025B9504648
:1049100000F0BAFD4320E5E7012D04D1504600F038
:10492000B3FD4320DEE7287C00F0010020B95046AB
:1049300000F0AAFD4520D5E70027D5F80C90D5F862
:104940000880504600F0A0FD00E07F1C58F8041BD2
:104950000029FAD0B8002060A9EB07008000606051
:104960000020BFE72DE9F04105464FF000083F2D3C
:1049700002D14720BDE8F0813F2D03D3FF2D01D0A8
:104980002A20F7E700F07CFD8046FF2D05D13C484A
:10499000006890F83650012608E03948006890F821
:1049A0003600A84201D1012600E00026354850F823
:1049B000254024B9404600F067FD4820DAE7012C85
:1049C00004D1404600F060FD4320D3E794F83870EE
:1049D0002F48C05D94F8391088432D49C8550846C2
:1049E000C05D30B994F83A102848007888432749C8
:1049F000087094F8340040F0080084F83400404611
:104A000000F042FD012E01D1FDF789F90020B1E748
:104A10002DE9F04104460E4600273F2C04D9FF2C17
:104A200002D02A20BDE8F0810EB90920FAE700F093
:104A300027FD0746FF2C03D11148006890F8364047
:104A4000104850F8245025B9384600F01DFD2920A3
:104A5000E8E7012D04D1384600F016FD4320E1E7D8
:104A6000582229463046FDF79FFE384600F00CFDDF
:104A70000020D7E75C0000103F000000520000104B
:104A800058000010E411001045000010490000100B
:104A90004A0000102DE9F04704460E4615464FF037
:104AA00000093F2C06D3FF2C04D02A2028700020B8
:104AB000BDE8F0871EB1082028700020F8E700F05C
:104AC000DFFC8146FF2C02D12148076802E0214823
:104AD00050F8247007F1540050F82680484600F042
:104AE000D3FC002028704046E2E72DE9F047044659
:104AF0000E4690461D464FF000093F2C05D3FF2C73
:104B000003D02A202870BDE8F08716B1082028704D
:104B1000F9E700F0B5FC8146FF2C02D10C4807688C
:104B200002E00C4850F8247007F1540040F8268049
:104B3000484600F0A9FC0020287000BFE3E710B54C
:104B400003480068FBF7C8FAFF20FFF704FD10BD1B
:104B500058000010E411001070B5054600266C489E
:104B6000007800B170BD6B48007800B1FAE71DB362
:104B700000F086FC06466848006890F838406748B0
:104B8000005D6549096891F8391088436349085503
:104B90000846005D40B96048006890F83A106048E7
:104BA000007888435E4908705B48006805633046BA
:104BB00000F06AFCFDF7B3F800BFD3E72DE9F04140
:104BC00007460D4616461C465148007810B1552040
:104BD000BDE8F0814F48007808B13220F8E727B9E6
:104BE0001DB916B90CB95420F2E73B2D01D951205B
:104BF000EEE73B2E01D95220EAE7B4F57A7F01D3E4
:104C00005320E5E74FF47A7060434FF47A71B0FBBC
:104C1000F1F14FF461607843C5EB051200EB8200BF
:104C2000304400EB4002C2EBC01001EBC00840462C
:104C3000FFF792FF0020CBE770B5054600263F2D19
:104C400001D32A2070BD00F01BFC0646354850F801
:104C5000254024B9304600F017FC4320F2E7012C30
:104C600004D1304600F010FC4320EBE7206B20B964
:104C7000304600F009FC5020E4E70020206394F85F
:104C8000340000F0370040B114F8340F20F0370042
:104C9000207001206070343C02E0002084F8350070
:104CA00094F8340000F00800A8B93834A0781C4902
:104CB000097808431A49087020781849085C617817
:104CC000084314F83819154A5054304600F0DCFBFC
:104CD000FDF725F802E0304600F0D6FB0020B1E7F2
:104CE00070B5002500F0CCFB05460F480468284647
:104CF00000F0CAFB204670BD70B50446002500F0E8
:104D0000BFFB054608480460284600F0BDFB70BDA7
:104D10004500001046000010580000104A00001026
:104D200049000010E411001074000010F7480068FA
:104D300008B900207047F5480168F44AC868106057
:104D40000020C8600861F2480088401CF04A1080CA
:104D5000F0480088401EEF4A10800846EAE72DE937
:104D6000F05F06460F4690469946DDE90AAB0C9D7A
:104D7000B8F1010F09D0B8F1020F0CD127B9832087
:104D800028700020BDE8F09F09E01EB9822028703D
:104D90000020F7E703E0842028700020F2E700BF3E
:104DA000DD48007818B18B2028700020EAE7FDF775
:104DB0007AFBFFF7BBFF04462CB9FDF78DFB86207D
:104DC00028700020DEE7012084F82500A661E76155
:104DD00084F82480C4F80490C4F808A0C4F820B073
:104DE000FDF77AFB002028702046CBE7002180F8F1
:104DF000251080F82410C161416141608160C7A124
:104E0000016200210161C1490968C160BF490860B0
:104E1000BF490988491EBE4A1180BE490988491CFC
:104E2000BC4A1180704730B5057D05F00704BC4DC4
:104E300005EBC4031D68854205D1C168196039B10D
:104E400000250D6104E00169C268CA6002B1116108
:104E5000012580F825500025C56005619D886D1EDF
:104E60009D8030BD70B505460C461DB98A20207066
:104E7000002070BD2878642803D08920207000208D
:104E8000F7E7A548007818B18B2020700020F0E7E4
:104E9000FDF709FB95F82500D8B101280FD00228AD
:104EA0000ED003281BD12846FFF7BDFF2846FFF789
:104EB0009DFFFDF711FB002020700120D9E700BF06
:104EC0002846FFF793FFFDF707FB00202070012025
:104ED000CFE7FDF701FB872020700020C9E7FDF731
:104EE000FBFA8D2020700020C3E72DE9F041054634
:104EF0000E46144626B9882020700020BDE8F081B7
:104F00001DB98A2020700020F8E72878642803D093
:104F1000892020700020F1E77F48007818B1112027
:104F200020700020EAE7FDF7BEFA95F8250098B159
:104F3000012804D0022803D0032813D100BF00BFEA
:104F4000286A30603068FCF749FE0746FDF7C4FA6E
:104F5000002020703846D1E7FDF7BEFA8720207088
:104F60000020CBE7FDF7B8FA8D2020700020C5E7C0
:104F700070B504460D461CB98A202870002070BD0B
:104F80002078642803D0892028700020F7E7624841
:104F9000007818B18B2028700020F0E7FDF783FA25
:104FA00094F8250070B301280DD0022825D00328DD
:104FB0002ED15C4960690968461AFDF78DFA002018
:104FC00028703046DBE794F8240001280CD0022832
:104FD00009D1A06908B9E66900E0A669FDF77CFA85
:104FE0000020287006E000BFA669FDF775FA0020D2
:104FF000287000BF00BF3046C1E7FDF76DFA002002
:105000002870BCE7FDF768FA872028700020B6E713
:10501000FDF762FA8D2028700020B0E770B50546D4
:105020000C461DB98A202070002070BD28786428A5
:1050300003D0892020700020F7E73748007818B1A6
:105040008B2020700020F0E7FDF72DFA95F8256001
:1050500036B1012E05D0022E04D0032E06D102E077
:1050600000BF00BF00BF0020207002E08D20207034
:1050700000BF00BFFDF730FA3046D6E770B50B46EB
:10508000032580F82550012B05D1264EC5693668C9
:10509000354445610CE085692DB9224EC5693668F5
:1050A0003544456104E01F4E8569366835444561E5
:1050B000057D05F007041A4D05EBC4010D682DB9F7
:1050C00008600025C56001258D8006E00A6808603B
:1050D000C26010618D886D1C8D800025056170BDDA
:1050E00070B505460C461DB98A202070002070BDA1
:1050F0002878642803D0892020700020F7E706482C
:10510000007888B18B2020700020F0E78800001024
:105110007A00001078000010450000103F000000E9
:10512000CC1E00107C000010FDF7BDF995F825009D
:10513000E8B1012810D002280FD003281DD128463D
:10514000FFF771FE00212846FFF798FFFDF7C4F92D
:10515000002020700120CAE700BF00212846FFF789
:105160008DFFFDF7B9F9002020700120BFE7FDF7A2
:10517000B3F9872020700020B9E7FDF7ADF98D2045
:1051800020700020B3E72DE9F04105460F46904618
:105190001C4625B98A2020700020BDE8F0812878BF
:1051A000642803D0892020700020F6E77E4800782C
:1051B00018B18B2020700020EFE7FDF774F995F807
:1051C000250090B301282AD0022827D0032833D104
:1051D0002846FFF728FE00202070B7B1032F02D029
:1051E000042F13D108E06E681EB12846A968B047A5
:1051F00001E08F2020700CE06E681EB14146284609
:10520000B04701E08F20207003E002E0842020708E
:1052100000BF00BFFDF760F90120BEE700BFFDF74A
:105220005BF98E2020700120B7E7FFE7FDF754F906
:10523000872020700020B0E7FDF74EF98D20207008
:105240000020AAE710B559480068FEF774FF04462D
:10525000204610BD08B500BF00BF6A460021534874
:105260000068FEF7ADFEFDF71EF951480068401CCE
:105270004F4908600846007800F007084D4800EBE9
:10528000C8073C681AE0E6684949606909688842CD
:1052900013D12046FFF7C7FD94F82400022804D15B
:1052A00001212046FFF7EAFE02E0022084F82500F3
:1052B000656815B12046A168A8473446002CE2D1A4
:1052C000FDF70AF9C9E700B587B0032000214022A5
:1052D000394BCDE90132CDE903104FF6FD703D2386
:1052E000354AFC3200903548FFF7DCF806AA34A1B5
:1052F0003D20FFF75FFA07B000BDF8B54FF420710D
:105300003348FCF794FF40212A48FCF790FF002522
:1053100015E0681C86B205EB85002D4901EBC00441
:1053200006EB860001EBC00764202070002084F8A3
:105330002500E760AFF21C202062681C85B20F2DAB
:10534000E7D305EB8500224901EBC00464202070FF
:10535000002084F82500E060AFF2402020620020A9
:10536000134908601B49088010201B490880184811
:105370001A4908600120FEF791FD194908600020D4
:10538000FEF78CFD094908606A4616A114480068BA
:10539000FCF769FC6A4618A104480068FCF763FC46
:1053A000FFF791FFF8BD00004500001084000010D9
:1053B0007C000010CC1E0010CC1D001055520000C7
:1053C00075432F4F532D494920546D720000000042
:1053D0004C1B00107A0000107800001088000010AC
:1053E0008000001075432F4F532D494920546D7292
:1053F0004C6F636B0000000075432F4F532D4949DC
:1054000020546D725369676E616C000030B50546BB
:105410002A460B4612F8010B13F8014B08B1A042C3
:10542000F8D01CB1002802D06D1CF1E7284630BD31
:1054300030B50B46014600202022012409E021FA64
:1054400002F59D4205D303FA02F5491B04FA02F561
:105450002844151EA2F10102F1DC30BD064C074DB7
:1054600006E0E06840F0010394E807009847103434
:10547000AC42F6D3FAF72AFE485A0000685A0000F8
:10548000EFF3108072B6704780F3108870471D48A4
:105490004FF0FF010170002080F309881A480121B4
:1054A00001701A484FF08051016062B6FEE717485C
:1054B0004FF080510160704714484FF080510160F7
:1054C000704772B6EFF3098028B1203880E8F00FFA
:1054D0000F49096808600F480F490A7802700C48A4
:1054E0000E490A680260106890E8F00F203080F3DF
:1054F00009884EF0040E62B670474FF0010080F349
:105500001088704722ED00E05200001004ED00E02A
:105510005800001047000010480000106000001004
:105520000FB4084B10B504A902AA039800F01CF8A8
:10553000044602A9002000F0B8F9204610BC5DF82E
:1055400014FB0000AB58000002E008C8121F08C19D
:10555000002AFAD170477047002001E001C1121FF4
:10556000002AFBD1704700002DE9FF4F8BB0884621
:105570000546002606E025280BD0DDE90D129047F0
:105580006D1C761C28780028F5D10FB03046BDE898
:10559000F08F0024A146A2460122AE4900E0044358
:1055A00015F8013F203B02FA03F00842F7D12878B2
:1055B0002A2810D06FF02F022878A0F13001092995
:1055C00015D809EB890102EB410144F0020400EB1C
:1055D00001096D1CF0E758F8041B5FEA010903D5C7
:1055E00044F40054C9F1000944F002046D1C287809
:1055F0002E2817D115F8010F44F004042A280ED0E4
:105600006FF02F022878A0F1300109290AD80AEB9F
:105610008A0102EB410100EB010A6D1CF2E758F828
:1056200004AB6D1C28786C280FD006DC4C2817D0F2
:1056300068280DD06A2814D104E0742810D07A2884
:105640000FD10DE044F400140AE044F4801401E0AA
:1056500044F440146978814202D104F580146D1C31
:105660006D1C2878692865D006DC00288DD0632859
:1056700027D0642806D15DE06E2808D073282AD090
:10568000752877D0DDE90D129047761CE0E0C4F371
:105690000250022809D003280DD0D8F800100428A1
:1056A0000DD00E6008F10408D2E0D8F80010F2170F
:1056B000C1E90062F6E7D8F800100E80F2E70E703C
:1056C000F0E718F8041B8DF8001000208DF8010099
:1056D000EB46012003E058F804BB4FF0FF306107B0
:1056E0004FF0000701D40AE07F1C57450DDA8742CE
:1056F000FADB1BF807100029F6D106E07F1C874271
:10570000FCDB1BF807100029F8D1DDE90D23A9EB1C
:1057100007008146214600F0B1F83044C61904E084
:10572000DDE90D121BF8010B90477F1EF8D22146D0
:10573000484688E058F8040BC4F302514FF00A0BB6
:10574000032900D100B2042900D140B2002802DAB6
:1057500040422D2102E0210505D52B218DF8241092
:10576000012104E006E0E10710D02021F6E708AFB0
:10577000089113E058F8040BC4F302514FF00A0BE0
:10578000032900D180B2042900D1C0B20021EEE784
:105790005946FFF74DFE303107F8011D0028F7D1BB
:1057A000ADEB070000F1200B600702D524F4803434
:1057B00001E04FF0010ADA4502DDAAEB0B0000E040
:1057C0000020824600EB0B0108980144A9EB010080
:1057D0000A90E00306D4DDE90D2321460A9800F083
:1057E0004DF806444FF0000908E009A911F8090036
:1057F000DDE90D12904709F10109761C08998945E8
:10580000F3DBE0030CD5DDE90D2321460A9800F017
:1058100035F8064404E0DDE90D1230209047761C8F
:10582000BAF10001AAF1010AF5DC05E0DDE90D128B
:1058300017F8010B9047761CBBF10001ABF1010B8F
:10584000F4DC0A982146DDE90D2300F005F8064452
:105850006D1C97E6092801002DE9F041044600255A
:105860001E461746880404D405E039462020B04778
:105870006D1C641EF9D52846BDE8F0812DE9F04184
:10588000044600251E469046C80301D5302700E097
:105890002027880404D505E041463846B0476D1CF2
:1058A000641EF9D52846BDE8F0810A68531C0B60D8
:1058B00010707047342E3130000046535700004FAF
:1058C000544452004F504D000057444D00004F5378
:1058D000000000000100000078563412010014009E
:1058E00001001800E0010100010010001400020096
:1058F000050001003F000100010005000100180043
:1059000078000100040001000400180008000100F4
:105910000400010001000100200001001600010048
:105920000100400001000100010040005800E803B0
:105930000100230101001000010008000A002800F6
:105940008002080040003211000001000200010046
:105950000300010002000100040001000200010038
:105960000300010002000100050001000200010027
:105970000300010002000100040001000200010018
:105980000300010002000100060001000200010006
:1059900003000100020001000400010002000100F8
:1059A00003000100020001000500010002000100E7
:1059B00003000100020001000400010002000100D8
:1059C00003000100020001000700010002000100C5
:1059D00003000100020001000400010002000100B8
:1059E00003000100020001000500010002000100A7
:1059F0000300010002000100040001000200010098
:105A00000300010002000100060001000200010085
:105A10000300010002000100040001000200010077
:105A20000300010002000100050001000200010066
:105A30000300010002000100040001000200010057
:105A40000300010002000100685A0000000000107D
:105A50008C00000048550000F45A00008C00001033
:105A600084200000585500000000000000000000E5
:105A70000000000000000000000000000000000026
:105A8000000E27070087930300879303006CDC0256
:105A90000000000000000000000000000000000006
:105AA00000000000000000000000000000000000F6
:105AB00000000000000000000000000000000000E6
:105AC00000000000000000000000000000000000D6
:105AD00000000000000000000000000000000000C6
