:020000040000FA
:1000000008320010253300002D3300002F3300008C
:1000100031330000333300003533000000000000AE
:100020000000000000000000000000003733000066
:100030003933000000000000437A0000CD37000093
:100040003F3300003F3300003F3300003F330000E8
:100050003F33000045200000A7220000EB240000F1
:100060003F3300003F3300003F3300003F330000C8
:100070003F3300003F3300003F3300003F330000B8
:100080003F3300003F3300003F3300003F330000A8
:100090003F3300003F3300003F3300003F33000098
:1000A0003F3300003F3300003F3300003F33000088
:1000B0003F3300003F3300003F3300003F33000078
:1000C0003F330000DFF80CD007F078FC0048004711
:1000D0002D040000083200107047704770477047C9
:1000E00070477047704770477047704710B50920D8
:1000F000F549087001F0B2FB10BD10B501F0AEFB80
:100100004FF49A72F049002001F06BFD142001F0C9
:10011000C9FD4FF49A72EC49002001F062FD0920FC
:10012000E94908700120E949087010BD10B5E84898
:10013000006840F01000E649A039C1F8A000084668
:10014000D0F8B80040F01000C1F8B8000846006AC6
:1001500040F0004008620320DB4948704FF4C8704B
:1001600002F022FAFFF7C9FF01F0A5FE4FF4E130DB
:1001700001F0E1FF4FF4E13002F00DF9D448A0386E
:10018000D0F8BC0040F01000D149A039C1F8BC0043
:10019000CF480C38006800F01F00401CCD490870A3
:1001A00008460078C849C874CB48C1064860032097
:1001B000087010BD10B5C94A1278002A36D000BFA9
:1001C000C64A1278012A32D1002020E0BE4AB2F895
:1001D0000D20521E024102F0010159B1BC4A083AF9
:1001E0001268431D01249C402243B94BA03BC3F835
:1001F00098200AE0B64A121F1268431D01249C4051
:100200002243B34BA03BC3F89C20421CD0B207282A
:10021000DCDBAD4AB2F80D20B14B1A80AA4A527B02
:10022000521EB04B1A700222AC4B1A7068E0AC4AF6
:100230001288521CAA4B1A80A34AB2F80F20A24B74
:10024000B3F80D309A420ADD9F4AB2F80F20A44B52
:100250001B889A422BDA0122A04B1A70B0E79A4A07
:10026000B2F80F20984BB3F80D309A421BDA964A39
:10027000B2F80B209A4B1B889A4202DA0122984B63
:100280001A80914AB2F80F20954B1B889A420EDAD9
:100290008D4AB2F80D20924B1B889A4207DD01224D
:1002A0008E4B1A708CE701228C4B1A7088E78C4AAF
:1002B0001278521E8B4B1A7000201FE0884A128859
:1002C000521E024102F0010159B1814A083A1268F6
:1002D000431D01249C4022437D4BA03BC3F8982042
:1002E0000AE07B4A121F1268431D01249C402243EE
:1002F000774BA03BC3F89C20421CD0B20728DDDB23
:1003000010BD08B500243EE0AA2041070872552020
:1003100008727548007858B16D48A038806B40F07D
:1003200000406B49A039886300206F49087015E0D0
:100330006748A038C06B40F000406549A039C863E9
:100340000120694908706048801C0090801E437835
:100350006048027865A1694807F0A2FB601CC4B23E
:100360000A2C0CDD00245A480C38006800F01F00ED
:10037000401C58490870084600785349C8744FF427
:10038000FA7006F0BFFABFE708E0FFF713FF4F4926
:100390000978642201FB02F006F0B4FAF5E708B52B
:1003A0004FF4FA7006F0AEFA10E06A4600215448A5
:1003B000006804F06DFE534800F0E4F8041E03DD0D
:1003C0002146504801F024FF00F034FFEDE72CE017
:1003D0004C4C00BF01F035FF20703C28FAD1641C62
:1003E000002512E001F02DFF064604F8016B0A2EED
:1003F00009D12E4604E0002004F8010B681CC5B2A8
:10040000302DF8DB03E0681CC5B2322DEADB00BFFB
:1004100031463C4801F0FCFE3948006804F090FD8C
:1004200038493748006804F0FBFED1E710B503F007
:10043000DBF8FFF77BFE07F020FB03F062FE32489B
:1004400000684FF47A71B0FBF1F4204603F0D1F963
:1004500001232E4A0021AFF2551005F09EFE022323
:100460002B4A0021AFF2DF0005F097FE0323294A53
:100470000021AFF2D50005F090FE0423264A0021AA
:10048000AFF2B50005F089FE0523244A0021244877
:1004900005F083FE0623234A0021234805F07DFE54
:1004A0000723224A0021224805F077FE002004F0AD
:1004B0005DFD134908600846006808B9012010BDB9
:1004C00003F009FF0020FAE73C01001004000010CF
:1004D000A08009200500001048E80100010000107C
:1004E0000200001006000010000000103C25303211
:1004F000645F253031755F25733E0A00A00000104F
:1005000008000010B4000010280000105C05001066
:100510005C1100105C0900105C0D00105C150010EF
:10052000011400005C190010171500005C1B00107E
:100530000F160000F0B5034600241DE0012500263B
:1005400007E005EB85004FF6FF7707EA4005701CD2
:10055000C6B2481EB042F4DC18783038092803DDF2
:10056000012010700020F0BD1878303800FB0540E5
:1005700084B25B1C481EC1B20029DFD1002010707C
:100580002046F0E72DE9F04F8DB004464FF000090A
:10059000FEA1204606F022FE002835D0FC48007857
:1005A0000A2190FBF1F03030E17888422CD1F848F4
:1005B00001780A2091FBF0F200FB12103030217913
:1005C0008842F3D160795F28F0D1F2A1A01D06F036
:1005D00005FE002842D0207B3E2802D0E07C3E2849
:1005E0003CD1E07A3F2810D1EC480090801E407842
:1005F00000EB8000EA494318E5480278E9A120466B
:1006000007F04EFA1FFA80F9F8E2002506E005F13E
:100610000B00215CE1484155681CC5B2082DF6DB92
:100620000021DE48801E81720921801C01F021FA20
:10063000DA480090801E4378D5480278DFA1E3486D
:1006400007F02EFAE14801F0F1FDD1480278E0A16F
:10065000204607F025FA1FFA80F9D5E7E1A1A01D91
:1006600006F0BCFDE0B1E07A3E2819D1DF48006811
:1006700040F01000DD49B839C1F8B800C44802782C
:10068000DBA1204607F00CFA1FFA80F9204601F0A2
:10069000FDFE4FF47A7006F035F902F043FEB3E741
:1006A000D8A1A01D06F09AFD48B1D84BB8480278F1
:1006B000D7A1204607F0F4F91FFA80F9A4E7D8A1E2
:1006C000A01D06F08BFD38B1D7A001F0DFFEFFF7CB
:1006D0000DFD02F027FE97E7D7A104F1080006F010
:1006E0007DFDB0F1000B6FD0207B3E286CD1E0790E
:1006F0003038A179303901EB810100EB4100C6B2FD
:10070000102E7DDC002E4CD1E07A3F2825D1102020
:100710000090A248801EC27C3346C8A1204607F044
:10072000BFF91FFA80F900250CE09C4912314A5D9F
:1007300004EB0900C7A107F0B3F948441FFA80F998
:10074000681CC5B2102DF0DB04EB0900AEA107F068
:10075000A7F948441FFA80F956E7E07A302802D01A
:10076000E07A31281CD1002507E0E07A3038C1B2A8
:100770008A4812304155681CC5B2102DF5DB0120A6
:10078000B6490870B649087048708448801EC27C1B
:100790003346B4A1204607F083F91FFA80F933E706
:1007A00040E2E07A3F2810D1701E7C491231085C8B
:1007B0000090A1F11400C27C3346AFA1204607F09F
:1007C0006FF91FFA80F91FE723E0E07A302802D0A2
:1007D000E07A31281BD1E07A3038C2B2701E6F49FE
:1007E00012310A5401209D4908709D490870887093
:1007F000701EC8706948801EC27C334699A100E013
:1008000006E0204607F04CF91FFA80F9FCE6C7E73E
:10081000C6E79EA104F1080006F0E0FCB0F1000B71
:1008200070D0207B3E286DD1E0793038A179303905
:1008300001EB810100EB4100C6B204F10B0B102E5D
:100840007EDC002E50D19BF800003F2825D11020DF
:1008500000905248801EC27C33468DA1204607F08E
:100860001FF91FFA80F900250CE04C49E2314A5D7E
:1008700004EB090077A107F013F948441FFA80F947
:10088000681CC5B2102DF0DB04EB09005EA107F077
:1008900007F948441FFA80F9B6E69BF800003028B3
:1008A00003D09BF8000031281DD1002508E09BF8FB
:1008B00000003038C1B23948E2304155681CC5B239
:1008C000102DF4DB012065490870774908704870E5
:1008D0003248801EC27C334674A1204607F0E0F8FF
:1008E0001FFA80F990E65BE79BF800003F280AD1E9
:1008F000701E2A49E231085C30308BF800004FF05E
:100900000D0981E626E09BF80000302803D09BF813
:10091000000031281CD19BF800003038C2B2701E94
:100920001E49E2310A5401204C4908705E490870A2
:100930008870701EC8701948801EC27C334600E063
:1009400007E05AA1204607F0ABF81FFA80F95BE6F2
:1009500026E725E75AA104F1080006F03FFCB0F1B4
:10096000000B11D0207B3E2802D0607C3E280BD1AA
:10097000E0793038A179303901EB810100EB410099
:10098000C6B204F10B0A9DE033E300003C41440091
:1009900005000010494E464F5F0000003E01001068
:1009A000528300003C4144253032755F494E464F2A
:1009B0005F25735F25733E0A000000003C2530323E
:1009C000645F253031755F25733E0A00A00000107A
:1009D0003C4144253032755F494E464F5F4F4B3E98
:1009E0000A00000052455345543E0000B8800920DB
:1009F0003C4144253032755F52455345545F4F4B5F
:100A00003E0A000053565F3F3E0000004C8300004A
:100A10003C4144253032755F535625733E0A000031
:100A2000524553554D453E003C524553554D455F4B
:100A30004F4B3E0A000000005F435F003C414425ED
:100A40003032755F253032755F253032755F435F18
:100A50000000000025303175000000000C0000107F
:100A60000F0000103C4144253032755F253032754F
:100A70005F435F4F4B3E00003C4144253032755F81
:100A8000253032755F435F2531753E005F575F004B
:100A90003C4144253032755F253032755F25303258
:100AA000755F575F00000000130000103C414425B3
:100AB0003032755F253032755F575F4F4B3E000017
:100AC0005F415F0004F10F000B90102E7EDC002EC2
:100AD0007DD19AF800003F287AD10220079010219A
:100AE0000798CDE90010FE48C27C3346FDA12046A0
:100AF00006F0D6FF1FFA80F900200690002569E075
:100B0000F749F43101EB85010868002106F058FE31
:100B10000FD82B208DF82400F149F43101EB850129
:100B20000868F74906F0C4FB059006F0CBFD804647
:100B300012E02D208DF82400E948F43000EB850008
:100B40000168002006F0AEFBED49049006F0B0FB12
:100B5000059006F0B7FD80464FF47A70B8FBF0F0D0
:100B60003030C0B28DF825004FF47A70B8FBF0F148
:100B700000FB11816420B1FBF0F03030C0B28DF881
:100B800026002E208DF827006420B8FBF0F100FB32
:100B900011800A21B0FBF1F030308DF828000A20D6
:100BA000B8FBF0F100FB118030308DF82900D548FA
:100BB000062101FB050009990160BDF8281081801C
:100BC0000698801DC0B20690681C02E010E2C9E0E1
:100BD00015E0C5B2102D93DB3E21CA4A0698115488
:100BE0000698401CC0B2069004EB0900C549069A5D
:100BF00006F0E2FA069848441FFA80F918E39AF8DA
:100C000000002D2856D108AA02210AF10100FFF7A1
:100C100091FCC7B2632F05DC9DF8200010B98DF858
:100C2000247000E0F8E208AA02210B98FFF782FC8A
:100C3000C7B2632F05DC9DF8200010B98DF8257030
:100C400000E0E9E2002523E09DF8250006F02DFDF7
:100C5000AD4AAE4BCDE9000106F041FCCDE90401FF
:100C60009DF8240006F021FDCDE90201DDE9042311
:100C700006F08EFB81F00041CDE9060106F07AFD19
:100C800001469748F43000EB85000160681CC5B24E
:100C9000102DD9DB01209E4908709E4908704870CC
:100CA0008F48C27C33469CA1204606F0F9FE1FFA0D
:100CB00080F9BDE29AF800002B289FD108AA0221F2
:100CC0000AF10100FFF736FCC7B2632F05DC9DF87F
:100CD000200010B98DF8247000E09DE208AA0221DE
:100CE0000B98FFF727FCC7B2632F05DC9DF82000A7
:100CF00010B98DF8257000E08EE2002520E09DF807
:100D0000250006F0D2FC804A804BCDE9000106F0B8
:100D1000E6FBCDE904019DF8240006F0C6FCCDE910
:100D20000201DDE9042306F033FBCDE9060106F0FC
:100D300021FD6B49F43101EB85010860681CC5B2E7
:100D4000102DDCDB01207249087072490870487070
:100D50006348C27C334670A1204606F0A1FE1FFA0C
:100D600080F965E29AF800003F2868D1711E5C4A5C
:100D7000F43202EB81010868002106F021FD10D851
:100D80002B208DF82400711E554AF43202EB8101AC
:100D900008685B4906F08CFA079006F093FC8046E1
:100DA00013E02D208DF82400701E4D4AF43202EB22
:100DB00080000168002006F075FA5149069006F09F
:100DC00077FA079006F07EFC80464FF47A70B8FB05
:100DD000F0F03030C0B28DF825004FF47A70B8FBD7
:100DE000F0F100FB11806421B0FBF1F03030C0B2B3
:100DF0008DF826002E208DF827006420B8FBF0F136
:100E000000FB11800A21B0FBF1F030308DF8280092
:100E10000A20B8FBF0F100FB118030308DF829007A
:100E200000208DF82A0009AA40A1504606F038FE9D
:100E30001FFA80F909F110001FFA80F9F8E19AF819
:100E400000002D287DD108AA02210AF10100FFF738
:100E500071FBC7B2632F05DC9DF8200010B98DF837
:100E6000247000E0D8E108AA02210B98FFF762FB8A
:100E7000C7B2632F05DC9DF8200010B98DF82570EE
:100E800000E0C9E19DF8250006F00FFC1E4A1F4B4B
:100E9000CDE9000106F023FBCDE904019DF8240013
:100EA00006F003FCCDE90201DDE9042306F070FA47
:100EB00081F00041CDE9060106F05CFC711E084A94
:100EC000F43202EB810108600120114908701149D8
:100ED00008708870701EC8700148C27C334628E0D4
:100EE0003C0100103C4144253032755F253032759D
:100EF0005F253032755F253032755F415F0000003D
:100F00000000C842700200107B14AE47E17A843FB3
:100F10000C000010170000103C4144253032755F72
:100F2000253032755F415F4F4B3E000025733E0018
:100F300007E0AFF21C01204606F0B2FD1FFA80F96F
:100F400076E19AF800002B2851D108AA02210AF173
:100F50000100FFF7EFFAC7B2632F05DC9DF8200010
:100F600010B98DF8247000E056E108AA02210B9810
:100F7000FFF7E0FAC7B2632F05DC9DF8200010B937
:100F80008DF8257000E047E19DF8250006F08DFB07
:100F9000E84AE94BCDE9000106F0A1FACDE90401E8
:100FA0009DF8240006F081FBCDE90201DDE9042370
:100FB00006F0EEF9CDE9060106F0DCFB711EDF4A12
:100FC00002EB810108600120DD490870DD490870ED
:100FD0008870701EC870A2F1F400C27C3346AFF274
:100FE000C801204606F05CFD1FFA80F920E113E1FC
:100FF00012E1D5A104F1080006F0F0F8B0F1000B01
:101000004BD0207B3E2848D1E0793038A179303967
:1010100001EB810100EB4100C6B2102E3CDC46BB67
:10102000E07A3F2824D1C548F438C27C3346C7A1B2
:10103000204606F035FD1FFA80F900250CE0C7496F
:101040004A5D04EB0900AFF2F45106F029FD484473
:101050001FFA80F9681CC5B2102DF0DB04EB090003
:10106000AFF25C6106F01CFD48441FFA80F9DFE036
:10107000D2E0E07A3F280ED1701EB849085C00909B
:10108000AE48F438C27C3346B5A1204606F008FDD0
:101090001FFA80F9CCE0BFE0BEE0B7A104F1080080
:1010A00006F09CF8B0F1000B7ED0A07B3E287BD1EF
:1010B00004F1060AE01D0B900B9800789AF80010D6
:1010C00001EB810100EB4100C6B2102E77DC96B92E
:1010D00002200790AA4910220798CDE9002002912A
:1010E0009648F438C27C3346A6A1204606F0D8FCC8
:1010F0001FFA80F99CE0711EAA4A52F821000021D3
:1011000006F05EFB0ED82B208DF82400711EA54A38
:1011100052F82100A44906F0CBF8079006F0D2FA65
:10112000804611E02D208DF82400701E9D4A52F853
:101130002010002006F0B6F89B49069006F0B8F89B
:10114000079006F0BFFA80464FF47A70B8FBF0F0D3
:101150003030C0B28DF825004FF47A70B8FBF0F152
:1011600000FB11806421B0FBF1F03030C0B28DF88B
:1011700026002E208DF827006420B8FBF0F100FB3C
:1011800011800A21B0FBF1F030308DF828000A20E0
:10119000B8FBF0F100FB118030308DF8290009A870
:1011A00000906648F43801E00AE008E0C27C33466B
:1011B0007EA1204606F074FC1FFA80F938E02BE08F
:1011C00080A1601D06F00AF8B0F1000B23D0E07A90
:1011D0003E2820D104F1030A201D0B900B980178C2
:1011E0009AF80000303800EB800001EB4000C7B2F5
:1011F0005248F438C07CB8420AD15048F438C27C16
:10120000102372A1204606F04BFC1FFA80F90FE074
:101210004FF000090CE000BF7148027871A1204630
:1012200006F03EFC1FFA80F948460DB0BDE8F08F8D
:101230004846FAE710B542480078012878D10020E6
:101240003F4908706B480078012805D100206949A2
:10125000087002F067F86BE06748007801281DD13C
:1012600000206549087008464078012807D1002011
:10127000487010213148E03800F0FBFB58E05E4830
:101280008078012854D100205B498870CA782B49A6
:10129000E0395018012100F0ECFB49E05748007894
:1012A00001281DD1002055490870084640780128C2
:1012B00007D10020487010212048103800F0D9FBD9
:1012C00036E04E488078012832D100204B498870A2
:1012D000CA781A4910395018012100F0CAFB27E0DA
:1012E00018480078012823D10020164908700846C4
:1012F000407801280ED100204870002407E00F49F3
:1013000001EB8400042100F0B4FB601CC4B2102C7B
:10131000F5DB0DE00B488078012809D10020094950
:101320008870CA78054901EB8200042100F0A1FB16
:1013300010BD00007B14AE47E17A843F30020010FC
:101340000C000010170000105F425F003C41442574
:101350003032755F253032755F425F001C1F001010
:101360003C4144253032755F253032755F425F2540
:101370003031753E000000005F504F575F3F000066
:10138000E80200103C4144253032755F253032754B
:101390005F253032755F253032755F504F575F25BE
:1013A000733E00005C1E00100000C8423C41442512
:1013B0003032755F253032755F504F575F25733E71
:1013C000000000005F4D41585F3F00003C41442554
:1013D0003032755F4D41585F253033753E00000057
:1013E000050000103C4144253032755F45523E0AED
:1013F000000000000D0000100F000010130000108E
:1014000086B0002404E00420FE490855601CC4B2E4
:10141000082CF8DB642005F075FA4FF4C87001F071
:10142000C3F8642005F06EFA74E000246DE006F065
:10143000E7FA0190F448C06F40F01C00F249C86719
:101440000846806F40EA84008867019806F0DCFA5D
:10145000052005F057FAEB48015D204601F065FADA
:10146000322005F04FFA4FF000090EE0E548015D2B
:10147000204601F0FAFB02A941F82900022005F0FC
:1014800041FA09F1010000F0FF09B9F1040FEDDBA9
:10149000DDE9020105F0B4FE0090049905F0B0FE0C
:1014A0008346059905F0ACFE824606F01FF9074613
:1014B0000022D64B06F085F8054606F05BF9D449C4
:1014C00041F82400D348005D012812D1D14AE0320E
:1014D00002EB84021168CE4A52F8240006F066F945
:1014E00003D80120CC4908550AE00020CA49085514
:1014F00006E0CA48C64941F824000020C6490855FC
:101500000A2005F0FFF9601CC4B2082C8FDB0A200A
:1015100005F0F8F989E71FB5082404E00420B9496B
:101520000855601CC4B2102CF8DB642005F0EAF901
:101530006CE0082465E006F063FA8146A4F1080037
:10154000C6B2B148C06B40F46030AF49C8630846CA
:10155000806F40EAC6308867484606F055FA052095
:1015600005F0D0F9A748015D204601F0DEF93220F0
:1015700005F0C8F900250BE0A248015D204601F006
:1015800052FC4DF82500022005F0BCF9681CC5B2DC
:10159000042DF1DBDDE9000105F032FE82460299FF
:1015A00005F02EFE8046039905F02AFE07464FF00F
:1015B000814105F0AFFE964941F824009548005D51
:1015C000012812D1934AE03202EB84021168904A5A
:1015D00052F8240006F0EAF803D801208E49085595
:1015E0000AE000208C49085506E08C48884941F8FB
:1015F00024000020884908550A2005F083F9601C62
:10160000C4B2102C97DB0A2005F07CF991E79EB05C
:1016100080491439B1F8111001EB4102C2EBC1113C
:101620004FF4FA6202EBC10005F06CF913E10024FB
:10163000002562E0764951F82500002106F0C0F847
:101640000FD82B200DF80400601CC4B2704951F86B
:101650002500734905F02CFE074606F033F886B2E4
:1016600012E02D200DF80400601CC4B2684850F848
:101670002510002005F016FE8146694905F018FE88
:10168000074606F01FF886B24FF47A7096FBF0F02A
:101690003030C0B20DF80400601CC4B24FF47A7050
:1016A00096FBF0F100FB1160642190FBF1F030300B
:1016B000C0B20DF80400601CC4B22E200DF8040066
:1016C000601CC4B2642096FBF0F100FB11600A219B
:1016D00090FBF1F03030C0B20DF80400601CC4B2D1
:1016E0000A2096FBF0F100FB11603030C0B20DF81B
:1016F0000400601CC4B2681CC5B2102D9ADB06F051
:101700007FF98046002509E01DF805004549485548
:10171000602D01D100204855681CC5B2612DF3DB56
:10172000404606F071F90024002568E03949E031AF
:1017300001EB85010868002106F042F811D82B2042
:101740000DF80400601CC4B23249E03101EB8501A0
:101750000868334905F0ACFD074605F0B3FF86B2D3
:1017600014E02D200DF80400601CC4B22948E030BC
:1017700000EB85000168002005F094FD81462849B2
:1017800005F096FD074605F09DFF86B24FF47A708E
:1017900096FBF0F03030C0B20DF80400601CC4B20B
:1017A0004FF47A7096FBF0F100FB1160642190FB1E
:1017B000F1F03030C0B20DF80400601CC4B22E202D
:1017C0000DF80400601CC4B2642096FBF0F100FB2D
:1017D00011600A2190FBF1F03030C0B20DF8040026
:1017E000601CC4B20A2096FBF0F100FB116030309F
:1017F000C0B20DF80400601CC4B2681CC5B2102D44
:1018000094DB11E02C010010008009200000104042
:101810005C1E0010500100101C1F0010000048C288
:101820000000C842E802001006F0EAF880460025F1
:1018300009E01DF8050008494855602D01D1002038
:101840004855681CC5B2612DF3DB404606F0DCF854
:10185000142005F057F8EAE6700200100022FE4B53
:101860001A60FE4A1168FE4AB1FBF2F2501E4FF4B4
:101870000012C2F89400FB4AB1FBF2F2C2EB021272
:101880004FF47A73B2FBF3F2501CF64AB1FBF2F25A
:1018900002EBC203C3EB82124FF47A73B2FBF3F292
:1018A000521C40EA0220EF4AB1FBF2F2C2EBC20244
:1018B00002EB8202B2FBF3F2521C40EA0240E64A1B
:1018C000083A106070472DE9F043079F1546164609
:1018D00094464FF0A058DFF89093C9F80080012B90
:1018E00006D100F00108B8F1000F0AD000BFFEE7F2
:1018F000022B06D100F00308B8F1000F01D000BFA1
:10190000FEE700F03F084FF40019C9F88480002476
:101910008DE07BB94FF003084FF40019C9F88080BF
:1019200095F80080C9F888806D1C00F101081FFA45
:1019300088F021E0012B0FD14FF004084FF400197B
:10194000C9F88080B6F80080C9F88880B61C00F11C
:1019500002081FFA88F00FE04FF005084FF4001955
:10196000C9F88080DCF80080C9F888800CF1040C8C
:1019700000F104081FFA88F000BFDFF8EC82A8F13C
:101980000808D8F80080C8F38068B8F1000FF4D0D8
:101990004FF08068DFF8D092C9F80080402802DB61
:1019A0004FF0010801E04FF00008A7F10109A1453F
:1019B00002D14FF0010901E04FF0000948EA09089F
:1019C000B8F1000F23D04FF08058DFF89C92C9F88F
:1019D00000804FEA81684FEA18584FF40019C9F89F
:1019E00084804FF00608C9F8808000BFDFF8788255
:1019F000A8F10808D8F80080C8F30078B8F1000F03
:101A0000F4D04FF08058DFF86092C9F80080402889
:101A10000CDB002001F101081FFA88F180464FF429
:101A20000019C9F884803E2900DD0021641CBC42F5
:101A3000FFF46FAFBDE8F0832DE9F8430746884611
:101A400091468A48381A84B22546E21704EB92621E
:101A500091112646E21704EB92629211A4EB8212D6
:101A600090B200234246CDF80090FFF72CFFBDE86E
:101A7000F8832DE9F841064688467C48301A84B23E
:101A80002546E21704EB926291112746E21704EB18
:101A900092629211A4EB821290B200233246CDF8EA
:101AA0000080FFF710FFBDE8F8812DE9F043DDF875
:101AB0001CC01446164617464FF0A058DFF8A891F0
:101AC000C9F8008001F03F09804669F39F184FF480
:101AD0000019C9F8848023B94FF00808C9F880803C
:101AE0001BE0012B0CD14FF009084FF40019C9F885
:101AF000808000F00108B8F1000F0ED000BFFEE7B3
:101B00004FF00A084FF40019C9F8808000F003086C
:101B1000B8F1000F01D000BFFEE700255DE05BB922
:101B20004FF40018D8F88C8084F80080641C00F111
:101B300001081FFA88F018E0012B0BD14FF40018B0
:101B4000D8F88C80A6F80080B61C00F102081FFAB5
:101B500088F00AE04FF40018D8F88C80C7F80080AD
:101B60003F1D00F104081FFA88F000BFDFF8F8807D
:101B7000A8F10808D8F80080C8F38068B8F1000F11
:101B8000F4D04FF08068DFF8E090C9F8008040287A
:101B900022DB002001F101081FFA88F101F03F0962
:101BA000804669F39F184FF40019C9F8848023B95F
:101BB0004FF00808C9F880800EE0012B06D14FF0E5
:101BC00009084FF40019C9F8808005E04FF00A08B1
:101BD0004FF40019C9F880806D1C65459FD3BDE89E
:101BE000F0832DE9F84104460F4690462546E2175A
:101BF00004EB9262C2F38F112646E21704EB926265
:101C00009211A4EB821290B200233A46CDF80080E4
:101C1000FFF74BFFBDE8F88103220F4B183B1A601A
:101C200000210CE000220C4B103B1A6000BF0E4A52
:101C3000083A1268C2F38062002AF8D0491C402991
:101C4000F0D34FF08052084B1A608206120D024BFF
:101C5000143B1A6006220BE09800200028000010B8
:101C6000D8B8050040420F00E80F20003C010010EA
:101C70004FF40013C3F8802000BF084A1268C2F373
:101C80000072002AF9D07047012803D10121044ACB
:101C9000116002E00021024A11607047E00F20004D
:101CA00098002000002109E0002201E0531C9AB2B4
:101CB00042F228339A42F9DB4B1C99B28142F3DBA2
:101CC000704710B500230DE05C1CA3B2002105E0B5
:101CD000541CA2B2541EA2B24C1CA1B241F2301448
:101CE000A142F5DD8342EFDB10BD2DE9F04704464C
:101CF0000E4617469846ECB11C2E1BD3254605F020
:101D00007FFE8146A6F11800E881E9892C4605F19D
:101D100018000844A86005F11800286068600020D9
:101D2000A8812F61C5F81480484605F06DFE01209A
:101D3000BDE8F087FF20FBE72DE9F04105460C46A2
:101D40000027264605F05CFE8046B089002804DDA9
:101D5000306800782870012700E00027404605F031
:101D600053FE3846BDE8F0812DE9F04106460D46A8
:101D70004FF0FF082DB32C4605F042FE0746A08920
:101D8000002812DD2068007830702068401C206038
:101D9000A1682068884202D304F118002060A0895D
:101DA000401EA0814FF0010808E04FF004082069B0
:101DB00020B121463046226990478046384605F0DA
:101DC00023FE4046BDE8F0812DE9F04105460E4670
:101DD0004FF0FF0835B32C4605F012FE0746A089E8
:101DE000E189884211DA606806706068401C6060B2
:101DF000D4E90101884202D304F118006060A0898F
:101E0000401CA0814FF0010809E04FF0080860690C
:101E100028B10122314620466369984780463846FA
:101E200005F0F2FD4046BDE8F08170B5044600259E
:101E300034B105F0E5FD0646A589304605F0E4FD20
:101E4000284670BD70B50446002534B105F0D8FDB4
:101E50000646E589304605F0D7FD284670BD70B5C9
:101E600004466CB1254605F0CBFD06462C4605F12F
:101E70001800286068600020A881304605F0C4FD85
:101E800070BD00002DE9F04105460E46144600BF26
:101E90002846FFF7D7FF074602E00A2004F032FD8C
:101EA0002846FFF7C2FFB842F7DA31462846FFF767
:101EB0008BFFBDE8F08170B58B48006840F00800EA
:101EC0008949C439C1F8C400012088498860C860C4
:101ED000874800780A2821D2DFE800F02005080BA7
:101EE0000E1114171A1D4FF4166418E04FF496548F
:101EF00015E04FF4165412E04FF461540FE04FF424
:101F000096440CE04FF4164409E04DF6C02406E078
:101F10004FF4614403E04FF4E13400E000BF00BF40
:101F2000802074490873744800680009B0FBF4F01D
:101F300085B22846E91705EB1161090A6D4A11714E
:101F4000E91705EB11610912A5EB012111700320BE
:101F5000114608730520486087200872052001217A
:101F600081404209920002F1E022C2F8001100BF54
:101F7000AFF2EF0300224FF480716048FFF7B5FE27
:101F8000FF2801D1002070BD002003F05DFE5C49F8
:101F900008600846006808B10120F4E70020F2E775
:101FA00038B5044621465548FFF70EFF05F028FDD9
:101FB00005465048007D00F0200060B14F4968465A
:101FC000FFF7D2FE9DF800004A49087008464068B5
:101FD00040F002004860284605F016FD38BD70B597
:101FE00004460D4603E014F8010BFFF7D9FF281E45
:101FF000A5F101018DB2F6DC70BD10B5044603E019
:1020000014F8010BFFF7CCFF20780028F8D110BDA1
:1020100008B50BE03748406840F00100354948609A
:102020006A4600213648006803F0A0FE3148007D72
:1020300000F001000028EDD02E48007800909DF8B7
:10204000000008BDF8B505F0DBFC064641E004F0F1
:102050000E00022806D004281CD0062825D00C2803
:1020600032D126E0002512E024496846FFF77CFEC5
:10207000012804D19DF800001E49087005E01D48A4
:10208000406820F002001B494860681CC5B2102D52
:10209000EADB1DE01A48006803F023FF154840689A
:1020A00020F001001349486012E01248007D0090C2
:1020B0000EE01348006803F014FF0E48406820F05B
:1020C00001000C49486003E00A48007D009000BF11
:1020D00000BF08488068C4B204F001000028B6D0F0
:1020E000304605F091FCF8BDC4C00F4000C002406E
:1020F0003C01001000C000402C0000105C1B0010D0
:102100001C0000102DE9F04105460E46144600BFA4
:102110002846FFF797FE074602E00A2004F0F2FB8C
:102120002846FFF782FEB842F7DA31462846FFF725
:102130004BFEBDE8F08170B505468448006840F06C
:1021400010008249C439C1F8C40001208049C86325
:10215000086480207F4908737F4800680009B0FB4D
:10216000F5F084B22046E11704EB1161090A794ABF
:102170001171E11704EB11610912A4EB0121117037
:102180000320114608730520486087200872062046
:10219000012181404209920002F1E022C2F80011BF
:1021A00000BFAFF29F0300224FF480716B48FFF72E
:1021B0009CFDFF2801D1002070BD002003F044FDEC
:1021C000674908600846006808B10120F4E700206C
:1021D000F2E738B5044621466048FFF7F5FD05F003
:1021E0000FFC05465B48007D00F0200060B15B49B4
:1021F0006846FFF7B9FD9DF800005649087008468B
:10220000406840F002004860284605F0FDFB38BDFC
:1022100070B504460D4603E014F8010BFFF7D9FF33
:10222000281EA5F101018DB2F6DC70BD10B5044683
:1022300003E014F8010BFFF7CCFF20780028F8D159
:1022400010BD08B50BE04348406840F0010041492B
:1022500048606A4600214248006803F087FD3D4817
:10226000007D00F001000028EDD03A480078009091
:102270009DF8000008BD08B53648007D00F001005B
:1022800058B93448406840F00100324948606A4615
:1022900000213348006803F069FD2E480078009063
:1022A0009DF8000008BDF8B505F0AAFB064641E020
:1022B00004F00E00022806D004281CD0062825D0E1
:1022C0000C2832D126E0002512E024496846FFF7A9
:1022D0004BFD012804D19DF800001E49087005E05F
:1022E0001C48406820F002001A494860681CC5B2CA
:1022F000082DEADB1DE01A48006803F0F2FD1548DE
:10230000406820F001001349486012E01148007D48
:1023100000900EE01248006803F0E3FD0D484068AD
:1023200020F001000B49486003E00A48007D00905E
:1023300000BF00BF07488068C4B204F00100002855
:10234000B6D0304605F060FBF8BD0000C4C00F40B9
:1023500000C00240000001402C0000105C1C001076
:10236000200000102DE9F04105460E46144600BF3E
:102370002846FFF767FD074602E00A2004F0C2FA8C
:102380002846FFF752FDB842F7DA31462846FFF7F4
:102390001BFDBDE8F08170B505467D48006840F042
:1023A00080707B49C439C1F8C40001207949886232
:1023B000C862802078490873784800680009B0FB3B
:1023C000F5F084B22046E11704EB1161090A724A64
:1023D0001171E11704EB11610912A4EB01211170D5
:1023E00003201146087305204860872008720720E3
:1023F000012181404209920002F1E022C2F800115D
:1024000000BFAFF29F0300224FF480716448FFF7D2
:102410006CFCFF2801D1002070BD002003F014FCEB
:10242000604908600846006808B10120F4E7002010
:10243000F2E738B5044621465948FFF7C5FC05F0D8
:10244000DFFA05465448007D00F0200060B1544991
:102450006846FFF789FC9DF800004F490870084660
:10246000406840F002004860284605F0CDFA38BDCB
:1024700070B504460D4603E014F8010BFFF7D9FFD1
:10248000281EA5F101018DB2F6DC70BD10B5044621
:1024900003E014F8010BFFF7CCFF20780028F8D1F7
:1024A00010BD08B50BE03C48406840F001003A49D7
:1024B00048606A4600213B48006803F057FC3648F4
:1024C000007D00F001000028EDD033480078009036
:1024D0009DF8000008BD3049097D01F0010111B1EE
:1024E0002D49087800E000207047F8B505F088FA1B
:1024F000064641E004F00E00022806D004281CD055
:10250000062825D00C2832D126E0002512E02449E7
:102510006846FFF729FC012804D19DF800001E49F8
:10252000087005E01C48406820F002001A49486025
:10253000681CC5B2082DEADB1DE01A48006803F0EC
:10254000D0FC1548406820F001001349486012E0B3
:102550001148007D00900EE01248006803F0C1FCB5
:102560000D48406820F001000B49486003E00A482C
:10257000007D009000BF00BF07488068C4B204F02F
:1025800001000028B6D0304605F03EFAF8BD000044
:10259000C4C00F4000C00240008009402C00001061
:1025A0005C1D0010240000100146F848006840F44B
:1025B0008050F64AC43AC2F8C4000120F44AD065FB
:1025C00010660020F34A1060F3480068F34AB0FB3D
:1025D000F2F0401E012242EA002040F09070ED4AE5
:1025E000106000BFEB48406800F000400028F9D0C0
:1025F0007047014649B9E74A1268E94B1A40521C34
:1026000042F08072E34B1A600AE0012908D1E14AE6
:102610001268E34B1A40921C42F08072DD4B1A6044
:1026200000BFDC4A526802F00042002AF9D0D94AC1
:10263000126842F08072D74B1A6000BFD54A5268C8
:1026400002F00042002AF9D0D24A5068C0F3891043
:1026500070472DE9FC4705460C469046D149404657
:1026600005F0AEF80BD234B1641ECF49404604F0F9
:1026700051FE804614E000BFDFF8288310E0CB490C
:10268000404605F093F80BD2072C06D2641CC649CD
:10269000404604F00DFE804602E000BFDFF80C83E8
:1026A000C049404605F08CF80BD234B1641EBE49D7
:1026B000404604F02FFE804614E000BFDFF8E482BD
:1026C00010E0BA49404605F071F80BD2072C06D24B
:1026D000641CB549404604F0EBFD804602E000BFB3
:1026E000DFF8C88274B3404605F000F881464A46D8
:1026F0000B460020AE4904F064FF064605F03AF8A8
:102700008046404604F0F2FF064605F0ADFD00228B
:10271000A84BCDE9000104F0E2FE814605F02AF85D
:102720008046611E01EB8101480004F0B9FF0646B6
:10273000414604F065FD804641469F4804F0B8FDDF
:10274000804626E0404604F0D1FF064600229B4B1F
:1027500004F037FF814605F00DF88046404604F04E
:10276000C5FF814605F080FD06460022914B04F02E
:10277000B6FECDE9000104F0FDFF8046614201EBA9
:102780008101480004F08CFF0646414604F038FD04
:102790008046404604F0AAFF06460022884B04F01B
:1027A000D1FF01D2DFF81C82404604F09FFF0646AD
:1027B0000022854B04F0AEFF01D2DFF8108284487E
:1027C00040F82580834A02EB85021168024652F8E0
:1027D000250004F0EBFF03D801207F49485502E0B3
:1027E00000207D494855BDE8FC872DE9F05F0C4687
:1027F00091466C49484604F0E3FF0BD234B1641EA5
:102800006949484604F086FD814614E000BFDFF8C0
:10281000949110E06549484604F0C8FF0BD2072C9C
:1028200006D2641C6049484604F042FD814602E03D
:1028300000BFDFF878915B49484604F0C1FF0BD236
:1028400034B1641E5849484604F064FD814614E0E2
:1028500000BFDFF8509110E05449484604F0A6FF4D
:102860000BD2072C06D2641C4F49484604F020FDC9
:10287000814602E000BFDFF834916CB3484604F0B3
:1028800035FF07463A460B460020494904F099FEB9
:10289000054604F06FFF8146484604F027FF0746CF
:1028A00005F0E2FC05460022424B04F018FE824689
:1028B00004F060FF8146611E01EB8101480004F0D5
:1028C000EFFE0546494604F09BFC814649463A48DE
:1028D00004F0EEFC814625E0484604F007FF05467B
:1028E0000022364B04F06DFE074604F043FF81469C
:1028F000484604F0FBFE054605F0B6FC07460022FC
:102900002C4B04F0ECFD824604F034FF814661421A
:1029100001EB8101480004F0C3FE0546494604F07E
:102920006FFC81464846BDE8F09F102870D2DFE872
:1029300000F00814205763707C8894A4B4C0CCDCE9
:10294000E7F4264AD26F42F0E062244BDA671A4677
:10295000926F42EA01629A67ECE0204AD26942F043
:1029600060421E4BDA611A46926942EA41729A61EC
:10297000E0E01A4AD26B42F4E012184BDA631A46CE
:10298000926B42EA81429A63D4E00000C4C00F40D7
:1029900000C00240004003402C00001040420F00E5
:1029A00000FFFF0000004844000020410000A0425A
:1029B0000000894000002440000080BF0000544017
:1029C00000003E400000F041000049C0000048C245
:1029D0005C1E0010300200101C1F00100080092037
:1029E000FE4AD26B42F46002FC4BDA631A46926BE9
:1029F00042EA41529A639DE0F84AD26B42F0E062AB
:102A0000F64BDA631A46926B42EA01629A6391E0EE
:102A10008FE0F24AD26F42F0E002F04BDA671A46DA
:102A2000926F42EA41129A6784E0EC4AD26B42F01C
:102A30006052EA4BDA631A46926B42EAC1629A63C9
:102A400078E0E64AD26D42F46052E44BDA651A4609
:102A5000926D42EAC1229A656CE0E04A9C321268AB
:102A600042F0E002DD4BC3F89C201A46D2F89820D1
:102A700042EA4112C3F898205CE0D84A9C321268BE
:102A800042F4E052D54BC3F89C201A46D2F8982065
:102A900042EA8122C3F898204CE0D04AD26D42F439
:102AA000E072CE4BDA651A46926D42EA81129A655F
:102AB00040E0CA4AD26D42F03802C84BDA651A4685
:102AC000926D42EAC1029A6534E0C44A9C321268AF
:102AD00042F46052C14BC3F89C201A46D2F89820A9
:102AE00042EAC122C3F8982024E0BC4AD26D42F0E9
:102AF0000702BA4BDA651A46926D0A439A6519E0E5
:102B0000B64AD26942F46062B44BDA611A469269FD
:102B100042EA41229A610DE0FFE7B04AD26942F0F1
:102B20007002AE4BDA611A46926942EA01129A616A
:102B300000E000BF00BF70472DE9FE4F04460D4680
:102B4000082C02DA4FF0000B01E04FF0010B00BF40
:102B50005846FFF74EFD1FFA80F9B9F1320F11DA2E
:102B6000072D24DA681CC5B204F04AFF02902946FA
:102B70002046FFF7DAFE029804F046FF0A2003F031
:102B8000C1FEE5E7B9F57A7F11DD002D0FDD681E86
:102B9000C5B204F035FF029029462046FFF7C5FE76
:102BA000029804F031FF0A2003F0ACFED0E748465B
:102BB00004F076FD82468A4800EB8401C030005D57
:102BC00001EB4000B0F9000000281CDD00260EE0FB
:102BD000504604F08BFD834A834BCDE9000104F09D
:102BE0007EFC074604F0C6FD8246701CC6B27C48D7
:102BF00000EB8401C030005D01EB4000B0F9000043
:102C0000B042E5DC28E0764800EB8401C030005D8E
:102C100001EB4000B0F9000000281DDA00260EE0AC
:102C2000504604F063FD714A714BCDE9000104F098
:102C300056FC074604F09EFD8246701CC6B26848EA
:102C400000EB8401C030005D01EB4000B0F90000F2
:102C5000401EC043B042E3DC524629462046FFF7FF
:102C6000F8FC64480555BDE8FE8F2DE9FF5F04467A
:102C70000D46082C02DA4FF0000A01E04FF0010A7D
:102C800000BF5046FFF7B5FC87B2322F11DA072D8F
:102C900024DA681CC5B204F0B3FE834629462046F8
:102CA000FFF743FE584604F0AFFE0A2003F02AFE69
:102CB000E7E7B7F57A7F11DD002D0FDD681EC5B29D
:102CC00004F09EFE834629462046FFF72EFE584616
:102CD00004F09AFE0A2003F015FED2E7384604F00D
:102CE000DFFC80463E48403000EB44018030005D10
:102CF000085C01281DD100260FE0404604F0F6FCD8
:102D0000384A394BCDE9000104F0E9FBCDE9020175
:102D100004F030FD8046701CC6B2314800EB8401DF
:102D2000C030005D01EB4000B0F90000B042E4DCCF
:102D300024E02B48403000EB44018030005D085C0B
:102D4000E0B900260FE0404604F0D0FC274A284BAB
:102D5000CDE9000104F0C3FBCDE9020104F00AFD56
:102D60008046701CC6B21E4800EB8401C030005D76
:102D700001EB4000B0F90000B042E4DC04F040FE9A
:102D80008346424629462046FFF72FFD8146584696
:102D900004F03AFE184840F8249016480555012DD5
:102DA0000DD1484604F0A2FC0022144BCDE90001ED
:102DB00004F08FFBCDE9020104F0DCFC81464846BB
:102DC00004F094FC00220E4BCDE9020104F0BAFCA1
:102DD00001D2DFF83090484616E00000008009205C
:102DE00060010010959C137B685FF03FEB1D6E87C0
:102DF0008645EF3F2C0100109C1E00100000E03FB4
:102E0000000037400000B84104F070FC0022FE4B87
:102E1000CDE9020104F07EFC01D2DFF8F0934846D0
:102E200004B0BDE8F09F2DE9FF5F04460D46082C75
:102E300002DA4FF0000A01E04FF0010A00BF5046ED
:102E4000FFF7D7FB87B2322F11DA072D24DA681C7F
:102E5000C5B204F0D5FD834629462046FFF765FD3F
:102E6000584604F0D1FD0A2003F04CFDE7E7B7F522
:102E70007A7F11DD002D0FDD681EC5B204F0C0FDA4
:102E8000834629462046FFF750FD584604F0BCFD16
:102E90000A2003F037FDD2E7384604F001FC8046F3
:102EA000DB4800EB44018030005D085C01281ED146
:102EB00000260FE0404604F019FCD64AD64BCDE977
:102EC000000104F00CFBCDE9020104F053FC804644
:102ED000701CC6B2CE48403800EB8401C030005DA3
:102EE00001EB4000B0F90000B042E3DC24E0C84848
:102EF00000EB44018030005D085CE8B900260FE07B
:102F0000404604F0F3FBC54AC54BCDE9000104F08F
:102F1000E6FACDE9020104F02DFC8046701CC6B231
:102F2000BB48403800EB8401C030005D01EB40003D
:102F3000B0F90000B042E3DC04F062FD8346424693
:102F400029462046FFF751FC8146584604F05CFDB7
:102F5000B44840F82490B4480555012D0DD1484699
:102F600004F0C4FB0022B14BCDE9000104F0B1FA3A
:102F7000CDE9020104F0FEFB8146484604F0B6FBB1
:102F80000022AB4BCDE9020104F0DCFB01D2DFF8FB
:102F9000A492484604F0AAFB00229B4BCDE9020113
:102FA00004F0B8FB01D2DFF86492484604B0BDE8F3
:102FB000F09F2DE9FC5F04468B464FF47A700BFBC3
:102FC00000F69D4886420AD9301A9149403101EBFA
:102FD00044010988B0FBF1F64FF0010910E0964872
:102FE00086420AD2811B8A48403000EB44000088A8
:102FF000B1FBF0F64FF0000902E000264FF00109A6
:10300000304604F04DFB8246B9F1000F68D18B4980
:10301000504604F07FF9834941F82400874950461F
:1030200004F078F982467A4800EB44018030005D74
:10303000085C01281DD100250EE0504604F056FB27
:103040007F4A804BCDE9000104F0A2F9074604F065
:1030500091FB8246681C85B26D48403800EB8401C4
:10306000C030005D01EB4000B0F90000A842E4DC94
:1030700023E0674800EB44018030005D085CE0B964
:1030800000250EE0504604F031FB07466C4A6D4BBC
:1030900004F01FFACDE9000104F06CFB8246681CC5
:1030A00085B25B48403800EB8401C030005D01EB25
:1030B0004000B0F90000A842E4DC634840F824A0D6
:1030C000014651F8240004F011FB074600225F4B33
:1030D00004F038FB03D25E485B4941F82400F1E07C
:1030E0005649504604F016F90746002104F0DDF871
:1030F0004C4941F824005149504604F00BF9074669
:10310000002104F0D2F88246504604F0EFFA074658
:103110000022504B04F016FB4BD83D4800EB440115
:103120008030005D085C01281DD100250EE050466E
:1031300004F0DCFA0746424A424B04F029F9CDE993
:10314000000104F017FB8246681C85B23048403805
:1031500000EB8401C030005D01EB4000B0F90000DD
:10316000A842E4DC9CE02A4800EB44018030005D8A
:10317000085C00281CD100250EE0504604F0B6FA89
:1031800007462F4A2F4B04F0A4F9CDE9000104F0C3
:10319000F1FA8246681C85B21D48403800EB840174
:1031A000C030005D01EB4000B0F90000A842E4DC53
:1031B00076E0504604F09AFA07460022254B04F0C8
:1031C000A9FA6DD21248203000EB44016030005D56
:1031D000085C012843D100250EE0504604F086FA31
:1031E0000746174A174B04F0D3F8CDE9000104F065
:1031F000C1FA8246681C85B20548603000EB440184
:103200002030005D085627E0000049C0000048C299
:10321000A0010010959C137B685FF03FEB1D6E874B
:103220008645EF3F9C1E00102C0100100000E03F7F
:10323000000037400000B841420801000000C842C9
:103240009A9999999999B93F5C1E001000003E40E7
:103250000000F041008042C0A842BEDC20E02A48C5
:1032600000EB44016030005D085CC8B900250EE049
:10327000504604F03BFA0746244A254B04F029F94E
:10328000CDE9000104F076FA8246681C85B21E483A
:10329000403000EB44012030005D0856A842E7DCD6
:1032A0001C4840F824A0014651F8240004F01EFAFE
:1032B00007460022184B04F02DFA03D2174815498F
:1032C00041F8240010487038005D012812D10E4AE0
:1032D000703202EB840211680E4A52F8240004F0A6
:1032E00065FA03D801200E4908550AE000200C4970
:1032F000085506E00948074941F82400002008491C
:103300000855BDE8FC9F0000C00100109A999999EA
:103310009999B93F5C1E0010000049C0000048C2E6
:103320001C1F00100648804706480047FEE7FEE7DE
:10333000FEE7FEE7FEE7FEE7FEE7FEE7FEE7FEE765
:10334000E9350000C5000000D748006800F480702F
:10335000002851D1D4480830006800F00100F0B9CD
:10336000D148006800F01F00D049B1FBF0F0D0490F
:103370000860D048D0F8A80100F01F00CB49B1FB8D
:10338000F0F0CD490860C848001F006800F0010057
:10339000401CC649B1FBF0F0C8490860B8E0C2481B
:1033A0009C30006800F0400038B90020C049086037
:1033B000C1490860C1490860AAE0BB48006800F044
:1033C0001F00BA49B1FBF0F0B9490860B948D0F81C
:1033D000A80100F01F00B549B1FBF0F0B649086044
:1033E000B148001F006800F00100401CAF49B1FB6C
:1033F000F0F0B24908608BE0AB487C38006800F41C
:10340000807038B90020AA490860AB490860AB4910
:1034100008607DE0A4480830006800F00100A0BB0F
:10342000A1487C38006800F01F00401C9F494843B9
:10343000A049D1F8041101F01F01B0FBF1F09C4943
:10344000086099487C38006800F01F00401C9749CC
:1034500048439549A431096801F01F01B0FBF1F020
:103460009549086090487C38006800F01F00401CB7
:103470008E4948438F49D1F8001101F00101491CE0
:10348000B0FBF1F08D49086042E0FFE786489C30D0
:10349000006800F0400038B900208549086086497E
:1034A00008608649086033E07F487C38006800F097
:1034B0001F00401C7D4948437E49D1F8041101F0AA
:1034C0001F01B0FBF1F07A49086077487C3800684A
:1034D00000F01F00401C754948437349A431096836
:1034E00001F01F01B0FBF1F0734908606E487C38B1
:1034F000006800F01F00401C6C4948436D49D1F83A
:10350000001101F00101491CB0FBF1F06B490860AA
:103510006548001D006800F48070C8B36248001D53
:10352000006800F01F0020B1042806D0062830D122
:1035300004E00020624908602FE000BF5A480830CC
:10354000006800F0010088B157487C38006800F03E
:103550001F00401C554948435649D1F8081101F055
:103560001F01B0FBF1F05649086010E04E487C386E
:10357000006800F01F00401C4C4948434D49D1F8F9
:10358000081101F01F01B0FBF1F04D49086004E0A3
:1035900004E000204A49086000BF24E04248001DC2
:1035A000006800F40070D8B13F480830006800F0AF
:1035B000010050B13C485C38006800F01F00401C1E
:1035C0003A4948433E4908600DE037487C38006876
:1035D00000F01F00401C354948433949086002E0AB
:1035E000002037490860704721202F499C3108602E
:1035F00000BF2D489C30006800F040000028F8D043
:10360000012029490831086009202A49C1F88400AD
:103610000120284980310860AA20234978390860B0
:103620005520086000BF20487C38006800F48060A6
:103630000028F8D023201C496039086001201D496A
:10364000C1F8A000AA201849583908605520194926
:10365000C1F8AC0000BF14485C38006800F480601A
:103660000028F8D040F201100F49086040F2012014
:103670001049C1F8080101200B49091F0860022008
:103680000949A43108600F48074940390860881586
:103690000549C431086045F23A0006490860002037
:1036A000094908607047000004C10F40001BB700C3
:1036B0002800001000C00F402C0000103000001047
:1036C00034000010DE87280408ED00E00020534994
:1036D00008807047704710B504462046FCF7FDFC93
:1036E00010BD10B504462046FCF7F8FC10BD10B51F
:1036F000FCF7F5FC10BD10B5FCF7F3FC10BD70B580
:10370000044610464FF080750560051F28462C6062
:10371000434E051F28462E604FF01236051F2846DF
:103720002E604FF00336051F28462E604FF00236FC
:10373000051F28462E607610051F28462E60051F9F
:10374000284629604FF01136051F28462E604FF09D
:103750001036051F28462E604FF00936051F2846F3
:103760002E604FF00836051F28462E604FF00736B2
:10377000051F28462E604FF00636051F28462E608E
:103780004FF00536051F28462E604FF00436051F02
:1037900028462E6070BD10B5FCF7A4FC10BD10B516
:1037A00004462046FCF79FFC10BD10B5FCF79CFCBE
:1037B0001A480088401C1949088008460088642877
:1037C00003D30020088003F013FC10BD10B504F0F3
:1037D00017F9044613480078401C12490870FCF79A
:1037E00084FC00F0AFFD204604F00EF900F0B3FCBD
:1037F00010BD411E4FF0E0225161FF210A4A1170B5
:103800004FF0E021096941F005014FF0E02211611C
:103810001146096941F0020111617047380000103A
:10382000EB6800005500001023ED00E01D481E4825
:103830001E481F481F482048204821482148224848
:103840002248234823482448244825482548264818
:1038500026482748274828482848294829482A48E8
:103860002A482B482B482C482C482D482D482E48B8
:103870002E482F482F483048304831483148324888
:103880003248334833483448344835483548364858
:10389000364837483748384838483948394800BFEB
:1038A000704700006C830000708300007683000086
:1038B00078830000748300007A8300007C8300001A
:1038C0007E830000808300008283000084830000E8
:1038D00086830000888300008A8300008C830000B8
:1038E0008E83000090830000928300009483000088
:1038F00096830000988300009A8300009C83000058
:103900009E830000A0830000A2830000A483000027
:10391000A6830000A8830000AA830000AC830000F7
:10392000AE830000B0830000B2830000B4830000C7
:10393000B6830000B8830000BA830000BC83000097
:10394000BE830000C2830000C4830000C683000061
:10395000C8830000442C0010C42F0010CC8300004A
:10396000CE830000D0830000D2830000D483000007
:10397000D6830000D8830000DA830000DC830000D7
:10398000CA830000DE8300000146002002E0491CDB
:10399000421CD0B20A78002AF9D170472DE9F041D3
:1039A00005460E461446002725B904202070002045
:1039B000BDE8F0811EB90C2020700020F8E7F74820
:1039C000007818B1112020700020F1E72878012834
:1039D00008D0022807D0032802D0042804D100E030
:1039E00000BF00BF00BF03E0012020700020DFE720
:1039F00000BF04F005F80746686930603068FFF7DB
:103A0000C3FF8046384603F0FFFF00202070404689
:103A1000CEE72DE9F04105460E46144600271DB9B4
:103A200004202070BDE8F08116B90C202070F9E761
:103A3000DA48007810B112202070F3E728780128C6
:103A400008D0022807D0032802D0042804D100E0BF
:103A500000BF00BF00BF02E001202070E2E700BF0E
:103A600003F0CEFF07466E61384603F0CDFF00201D
:103A7000207000BFD6E7F0B5024612F8384F9578AF
:103A80005678383A0B4618680FE000F10B073F5D97
:103A9000B74300F10B0C0CF8047067463F5D17B993
:103AA000877AAF4387721B1D18680028EDD1F0BDDF
:103AB000BB49BC4A1278885CBB49095CB84A515C76
:103AC00001EBC001B94A1170704710B5002403F032
:103AD00097FF0446B1480078F8B9B5480078E0B9D6
:103AE000FFF7E6FFB348B149097850F82100B24921
:103AF0000860AE480078B149097888420DD0AE48D8
:103B00000068C06B401CAC490968C863AC480068D9
:103B1000401CAB49086003F08AFF204603F074FFA5
:103B200010BD70B501460024A64D2D68EC61A54C72
:103B3000246821620B4618681BE0A24C246894F8A4
:103B4000385000F10B04645D9E4D2D6895F8395096
:103B50002C439C4D2D6895F8386000F10B05AC5551
:103B6000847A984D2D6895F83A502C4384721B1D29
:103B700018680028E1D1934C246894F838208A4CC6
:103B8000A45C904D2D6895F83950AC43864DAC54EB
:103B90002C46A45C44B98B4C246894F83A50814C70
:103BA0002478AC437F4D2C7070BD2DE9FF4F83B05E
:103BB00081460E461546109F00200090B9F1000F77
:103BC00005D104203870002007B0BDE8F08FD9F887
:103BD000000018B9042038700020F5E71EB9042051
:103BE00038700020F0E71DB9042038700020EBE7A2
:103BF00000203060CA46DAF8004015E02078062838
:103C000007D2DFE800F006040503070807E006E036
:103C100005E000BF00BF012038700020D4E700BFDE
:103C20000AF1040ADAF80040002CE7D15B4800787A
:103C300018B1022038700020C6E75D48007818B13E
:103C40000D2038700020BFE703F0DAFE009000205E
:103C5000029083460190CA46DAF8004066E0207878
:103C6000062853D2DFE800F052172A035354208964
:103C700060B12089401E208110C6012002900020E2
:103C800001C50BF101001FFA80FB03E0019840F031
:103C90000100019045E0606858B1606801C50020EE
:103CA000606010C6012002900BF101001FFA80FB3A
:103CB00003E0019840F00200019032E0D4F8048063
:103CC000B8F81600E8B1D8F81010081DC8F81000B0
:103CD000086801C5D8F80810D8F81000884203D148
:103CE000D8F80400C8F81000B8F81600401EA8F86C
:103CF000160010C6012002900BF101001FFA80FB94
:103D000003E0019840F0040001900AE000BF00BF0A
:103D1000009803F079FE002030600120387058468A
:103D200052E700BF0AF1040ADAF80040002C96D1ED
:103D30000298012808D100203060009803F064FE4A
:103D40000020387058463FE71E48006890F834005D
:103D5000019941F0800108431A49096881F834004B
:103D600000201849096881F8350016490698096845
:103D700008634846FFF7D5FE009803F045FEFFF7BD
:103D8000A4FE03F03DFE00900E48006890F8350058
:103D9000D0B1012831D002282ED116E055000010F4
:103DA000E0830000590000105A0000105800001075
:103DB00056000010DC2200107000001057000010A8
:103DC0003C0000106800001000BFFE480068C46995
:103DD0003CB110C6002030600BF101001FFA80FBDF
:103DE00009E00120F749096881F835004946F5489E
:103DF0000068FFF740FE06E000BF4946F148006852
:103E0000FFF739FE00BF00BFEE48006890F83500AC
:103E100020B1012828D0022825D11FE020780628CB
:103E20000DD2DFE800F00C0607030D0E002001C5DF
:103E300010E000BFE3480068406A01C50AE000BF27
:103E400000BF009803F0E0FD0020306001203870D2
:103E50005846B9E600BF002038700AE0002001C5CE
:103E60000E20387005E000BF002001C50A20387020
:103E700000BF00BF0020D349096881F83400D14950
:103E8000096881F83500CF490968C861CD490968DA
:103E90000862CC4909684862009803F0B5FD5846AD
:103EA00092E67CB5002514E06946284602F0E5FB61
:103EB000064666B9C44850F8254044B1012C06D0E6
:103EC000D4E9020100EB8100A0640198E064681C61
:103ED000C5B23F2DE8D97CBD002400BF02E0C82058
:103EE00002F010FDB94800780028F8D0B848006802
:103EF0006421B0FBF1F0B64908600846006828B9B3
:103F00000020B4490870FF2002F002FC00BF03F05B
:103F100077FD0446B0480068B04908600020AE490B
:103F20000860204603F070FDAC480068A8490968A5
:103F3000B0FBF1F0C0F16400A6490870FFF7DBFBAD
:103F4000FFF7AFFF642002F0DDFCE0E700B587B0CB
:103F5000032000214022A24BCDE90132CDE903101C
:103F60004FF6FE703E239E4AFC320090AFF297005F
:103F700002F06EF906AA9BA13E2002F0F1FA07B00A
:103F800000BD002400BF00BF03F03AFD0446924884
:103F90000068401C90490860204603F035FDFFF79B
:103FA000A6FBF1E700B587B0032000212022914B4A
:103FB000CDE90132CDE903104FF6FF703F238D4A62
:103FC0007C320090AFF2450002F042F906AA8AA1C5
:103FD0003F2002F0C5FA07B000BD04E0002200F85F
:103FE000012B4A1E91B20029F8D1704770B54FF4E9
:103FF000F0718548FFF7F1FF002411E0601C85B2E5
:1040000004EB4400804901EBC00305EB450001EBE4
:10401000C006002018705E607CA05861601C84B2ED
:10402000132CEBD304EB4400774901EBC0030020D1
:104030001870586075A0586108467549086070BDD1
:1040400070B54FF4F2617348FFF7C7FF4FF480710A
:104050005D48FFF7C2FF002413E0601CC5B204EB0B
:10406000440000EBC4006B4901EBC00305EB4500C5
:1040700000EBC50001EBC0065E6164A01865601C22
:10408000C4B2152CE9D304EB440000EBC400614931
:1040900001EBC003002058615CA0186500205E4958
:1040A00008605C485D49086070BD00215C4A117081
:1040B000002004E000215B4A1154411CC8B20828CA
:1040C000F8D30021584A1170584A1170584A1160AB
:1040D0003C4A1160704700205649086056490870F4
:1040E0005649087056490870564908705649086084
:1040F0003949086039490860354908603349087012
:10410000704710B5FFF7E2FAFFF7E5FFFFF7CDFFC5
:10411000FFF796FFFFF76AFF00F0E4FE01F025FAD3
:1041200001F051FDFFF73EFFFFF710FF02F0BBFF6C
:10413000FFF7D0FAFFF77AFB10BD4248007801285C
:1041400008D13D480078FF2804D23B480078401C45
:1041500039490870704710B500243A4800780128A2
:1041600076D103F04DFC04463348007820B1324844
:104170000078401E304908702F480078F8B92F4861
:104180000078E0B9FFF794FC0F482849097850F807
:10419000210027490860254800782349097888428A
:1041A0000DD023480068C06B401C21490968C863D2
:1041B00025480068401C2449086003F03DFC204667
:1041C00044E045E068000010DC22001054000010BC
:1041D0004C00001048000010640000105000001057
:1041E0005C21001075432F4F532D494920537461B2
:1041F000740000005C22001075432F4F532D494975
:104200002049646C650000002C1F00103F00000076
:1042100040000010DC230010740000106C0000103F
:10422000590000105A0000105700001058000010EC
:10423000700000108400001055000010560000109F
:1042400063000010620000103C00001003F0DCFB73
:1042500010BD10B50024FE480078012811D103F0EC
:10426000CFFB0446FB48007840B9FB480078FF28A4
:1042700004D2F9480078401CF7490870204603F042
:10428000C3FB10BD10B50024F1480078012821D1EE
:1042900003F0B6FB0446F0480078C0B1EE48007861
:1042A000401EED4908700846007860B9E94800787A
:1042B00028B9204603F0A8FBFFF707FC0AE02046D8
:1042C00003F0A2FB06E0204603F09EFB02E020463E
:1042D00003F09AFB10BD10B5DD48007890B9FFF7E8
:1042E000E7FBDE480078DE490870DE48DB490978E4
:1042F00050F82100DC49086008460068DB49086086
:1043000003F085FB10BD10B50024022002F0FAFA7C
:1043100003F076FB04460020D5490860204603F0F0
:1043200073FB642002F0EEFA03F06AFB0446D04807
:104330000068D04908600120CF490870204603F08A
:1043400063FB10BD70B50026FFF72FFA03F058FB92
:104350000646CA480068401CC8490860304603F059
:1043600053FBBB480078012853D1C548007820B1E1
:10437000012804D0022809D103E001250BE0002523
:1043800009E001250120BE49087004E00125002054
:10439000BB49087000BF00BF05B970BDB9480468CB
:1043A00033E003F02DFB0646206B50B3206B401E1C
:1043B0002063206B28BB94F8340000F0370040B134
:1043C00014F8340F00F0C800207001206070343CF5
:1043D00002E0002084F8350094F8340000F0080072
:1043E00078B93834A078A84909780843A6490870F4
:1043F0002078A649085C6178084314F83819A34A64
:1044000050546469304603F0FFFA94F836003F28B0
:10441000C7D100BFC1E740F223107047704710B505
:1044200090F8382001F10B039B5C90F83940A343CE
:1044300001F10B04A35423469B5C23B98B7A90F8BB
:104440003A40A3438B7210BD2DE9F04F05460F464D
:1044500090469946A87A8E490E5C05F10B00805D66
:1044600011F800B00BEBC60000F0FF0A7D4850F8D1
:104470002A4000202434E0602760207C20EA0800E5
:10448000207484F81190207C243C00F0080068B966
:1044900094F83A007C49097808437B4908707B48C6
:1044A000805D94F83910084378498855294620469C
:1044B000FFF7B5FF206A20B12046216AFFF7DBFA3B
:1044C000E5615046BDE8F08F10B5684A1268D061CA
:1044D000664A126892F8383000F10B02D25C634BE6
:1044E0001B6893F839301A43604B1B6893F83840C7
:1044F00000F10B031A55827A5C4B1B6893F83A3033
:104500001A438272594A126892F838105F4A525C14
:10451000564B1B6893F839309A435C4B5A541A46F1
:10452000525C42B9514A126892F83A30564A1278AF
:104530009A43554B1A7010BD014600228A72002022
:1045400005E0002301F10B021354421CD0B20828ED
:10455000F7D3704705E011F8013B00F8013B531E0B
:104560009AB2002AF7D170472DE9F84F05460F4659
:1045700090469946DDE90AAB0020009003F040FA2E
:10458000009044480468002C60D01C3454F8080C97
:1045900040490860009803F037FA44F81C7CA5767F
:1045A000002020766076606144F818BC44F810ACB6
:1045B00044F8148C0C9824F80C0C24F80A9C002065
:1045C000E077E810207705F00700E076217F0120F2
:1045D0008840A077E17E012088406077002020603D
:1045E0006060E060A0602062A0626062E0622063C0
:1045F000AFF2E83060631C3C002606E0002104F1C5
:10460000540040F82610701CC6B2002EF6D020468A
:10461000FFF7C5F82046FFF75EF803F0F1F90090C8
:10462000104840F825401748006860610020A061EC
:104630001448006810B11348006884611148046090
:104640003834A07810490978084325E03AE00000A2
:1046500062000010550000105600001058000010B5
:1046600057000010DC2200107000001068000010DD
:10467000640000104C000010540000108400001072
:104680007800001074000010590000105A0000104B
:10469000E08300006C0000100D49087020780D497F
:1046A000085C6178084314F838190A4A50540A48DB
:1046B0000078401C08490870009803F0A5F9002014
:1046C000BDE8F88F009803F09FF94220F8E700005A
:1046D000590000105A000010630000102DE9F05F2F
:1046E00004460F4691461E464FF0000B24B96E203B
:1046F00030700020BDE8F09F2078052803D001200D
:1047000030700020F6E709F0800ABAF1000F04D0FB
:1047100029F080094FF0010801E04FF00008002067
:10472000307003F06DF98346B9F1000F2CD0B9F168
:10473000010F3BD0B9F1020F03D0B9F1030F46D1FD
:1047400011E0208900EA0705BD4206D1B8F1010F4A
:1047500005D12089A843208101E07020307058469F
:1047600003F052F93AE0208900EA070535B1B8F1C3
:10477000010F05D12089A843208101E0702030700D
:10478000584603F041F929E0208927EA0005BD4297
:1047900006D1B8F1010F05D120892843208101E01D
:1047A00070203070584603F02FF917E0208927EA6F
:1047B000000535B1B8F1010F05D1208928432081CA
:1047C00001E070203070584603F01EF906E05846AC
:1047D00003F01AF900256F20307000BF00BF284693
:1047E00088E72DE9F04106460D460027F748007896
:1047F00020B1102028700020BDE8F08103F000F9FE
:104800000746F348046884B100684068F0490860CE
:1048100005202070268100206060EEA0E060384610
:1048200003F0F2F80020287004E0384603F0ECF8BA
:10483000722028702046DFE730B501464A680868D4
:104840002AB9CC68606028B10025456002E010609C
:1048500000B142608B6800259D6230BDF0B5064610
:104860000F46B46800202C3460602780207A00F066
:10487000DF00207200206072207A2C3C88B9383426
:10488000A078D54909780843D34908702078D349DE
:10489000085C6178084314F83819D04A505401254F
:1048A00000E000253046FFF7C7FF2846F0BD2DE9A0
:1048B000F0470446894615464FF0000A24B96E2099
:1048C00028702046BDE8F087C048007818B10F2056
:1048D00028702046F6E72078052803D001202870AC
:1048E0002046EFE703F08CF88246606808B10127A4
:1048F00000E00027B9F1000F03D0B9F1010F3CD15E
:1049000019E08FB9B3A0E06000202070B0480068C3
:10491000606000202081AE480460504603F074F8C7
:1049200000202870002605E0504603F06DF849206D
:104930002870264628E0D4F8048005E0002140468F
:10494000FFF78CFFD8F80080B8F1000FF6D1A1A0D6
:10495000E060002020709E48006860600020208198
:104960009B480460504603F04FF8012F01D1FFF738
:10497000ACF800202870002606E0504603F044F80A
:1049800007202870264600BF00BF30469AE72DE971
:10499000F04105460E461446002725B96E202070CA
:1049A0000020BDE8F0811EB90C2020700020F8E73F
:1049B0008648007818B1112020700020F1E703F03C
:1049C0001FF807462878052806D0384603F01CF85B
:1049D000012020700020E4E7E86830603068FEF7CE
:1049E000D3FF8046384603F00FF800202070404681
:1049F000D7E72DE9F04105460E46144600271DB9BC
:104A00006E202070BDE8F08116B90C202070F9E707
:104A10006E48007810B112202070F3E702F0F0FF2A
:104A200007462878052805D0384602F0EDFF01201A
:104A30002070E7E7EE60384602F0E6FF00202070C5
:104A400000BFDFE7F0B51446059E654F3F6897F855
:104A5000347047F02007DFF888C1DCF800C08CF81C
:104A600034700027DFF878C1DCF800C08CF83570AE
:104A70005B4F3F683E635A4F3F68B9620C828B744C
:104A8000574F3F688F6047680F6000274F60C860CE
:104A9000456805B169604160514F3F6897F838201B
:104AA0004E4FBF5CDFF838C1DCF800C09CF839C05D
:104AB00027EA0C07DFF824C10CF802706746BF5CD8
:104AC0005FB9474F3F6897F83AC0434F3F7827EAAE
:104AD0000C07DFF804C18CF80070F0BD2DE9F04F31
:104AE00089B005460F4691469A46129E00200290D4
:104AF0002DB96E203070002009B0BDE8F08F33482A
:104B0000007818B1022030700020F5E735480078B1
:104B100018B10D2030700020EEE72878052803D06A
:104B2000012030700020E7E709F0800BBBF1000F97
:104B300004D009F07F094FF0010801E04FF00008B0
:104B400002F05EFF0290B9F1000F59D0B9F1010FE8
:104B500079D0B9F1020F03D0B9F1030F72D120E07F
:104B6000288900EA0704BC420FD1B8F1010F02D135
:104B70002889A04328811A4800688485029802F099
:104B800043FF002030702046B6E74B463A4604A962
:104B90002846CDF800A0FFF755FF029802F034FF39
:104BA00079E0288900EA0704F4B1B8F1010F02D1D5
:104BB0002889A04328810A4800688485029802F069
:104BC00023FF00203070204696E7000055000010BB
:104BD000440000103F000000590000105A0000106F
:104BE00068000010560000104B463A4604A92846BB
:104BF000CDF800A0FFF726FF029802F005FF4AE07B
:104C0000288927EA0004BC420FD1B8F1010F02D174
:104C1000288920432881C74800688485029802F0CB
:104C2000F3FE00203070204666E74B463A4604A962
:104C30002846CDF800A0FFF705FF029802F0E4FE39
:104C400029E000E01FE0288927EA00047CB1B8F1E0
:104C5000010F02D1288920432881B6480068848545
:104C6000029802F0D1FE00203070204644E74B4607
:104C70003A4604A92846CDF800A0FFF7E3FE0298C3
:104C800002F0C2FE07E0029802F0BEFE00246F2090
:104C90003070204630E700BFFEF717FF02F0B0FE8D
:104CA0000290A448006890F8350020B3A14800683D
:104CB00090F83500039000209E49096881F835007E
:104CC00004A8FFF7B9FD00209A49096881F834006B
:104CD000029802F099FE00240398012805D00228CA
:104CE00002D10E20307003E000BF0A20307000BFF8
:104CF00000BF204600E78F480068848DB8F1010F9F
:104D00001ED1B9F1000F0ED0B9F1010F0CD0B9F1DD
:104D1000020F03D0B9F1030F0AD100E000BF2889C8
:104D2000A04328810BE000BF28892043288106E0AA
:104D3000029802F069FE6F2030700020DCE600BFB0
:104D4000029802F061FE002030702046D4E670B573
:104D5000002502F055FE054676480068848D2846F9
:104D600002F052FE204670BD2DE9FC5F04468946E4
:104D700092461E460020009024B96E20307000201C
:104D8000BDE8FC9F2078052803D00120307000206A
:104D9000F6E702F035FE0090BAF1000F03D0BAF149
:104DA000010F0AD104E0208920EA090020810BE0EC
:104DB000208940EA0900208106E0009802F024FEE4
:104DC000712030700020DBE700BF4FF0000B6568FA
:104DD00055E0A87C40B3012838D0022802D003282F
:104DE00044D111E02089298A00EA0107288AB842C3
:104DF00009D139462846FFF731FD8046B8F1010F49
:104E000001D14FF0010B38E02089298A00EA01071F
:104E10004FB139462846FFF721FD8046B8F1010F12
:104E200001D14FF0010B28E0288A218920EA0107EF
:104E3000288AB84209D139462846FFF70FFD804637
:104E4000B8F1010F01D14FF0010B16E0288A21893A
:104E500020EA01074FB139462846FFF7FFFC80469C
:104E6000B8F1010F01D14FF0010B06E0009802F0FC
:104E7000CBFD6F203070002082E700BF2D68002D31
:104E8000A7D1009802F0C0FDBBF1010F01D1FEF7E0
:104E90001CFE02F0B5FD009020890190009802F000
:104EA000B3FD0020307001986AE72DE9F041044617
:104EB0000D46002724B96E2028700020BDE8F0813F
:104EC0002078052803D0012028700020F6E702F0A2
:104ED00097FD07462689384602F096FD0020287087
:104EE0003046EBE72DE9F04150211348FFF775F804
:104EF00000250EE0681C86B20F4800EB051400EB9D
:104F00000617002020706760AFF23830E060681C40
:104F100085B2042DEED3084800EB05140020207064
:104F20006060AFF25030E060034804490860BDE8BB
:104F3000F0810000680000100C21001044000010F7
:104F400070B5044600260CB9002070BD20780128F9
:104F500001D00020F9E702F053FD06466568002005
:104F60006060304602F050FD2846EEE770B5054619
:104F70000026F948007808B1002070BD02F040FD1D
:104F80000646F6480468006820B1F44800684068A6
:104F9000F2490860304602F037FD4CB10120207024
:104FA000002020816560EEA060612046FFF7C4FA12
:104FB0002046E2E72DE9F0470446884615464FF0C3
:104FC000000924B9042028702046BDE8F087207825
:104FD000012803D0012028702046F6E7DE4800783B
:104FE00018B10F2028702046EFE702F009FD814636
:104FF000A07A08B1012700E00027B8F1000F03D024
:10500000B8F1010F3AD119E08FB9D5A06061002045
:105010002070D2480068606000202081CF48046082
:10502000484602F0F1FC00202870002605E04846C2
:1050300002F0EAFC49202870264626E005E000231D
:10504000022219462046FFF7FFF9A07A0028F6D180
:10505000C3A0606100202070C0480068606000202C
:105060002081BE480460484602F0CEFC012F01D1E9
:10507000FEF72BFD00202870002606E0484602F0CF
:10508000C3FC07202870264600BF00BF30469CE7BF
:105090002DE9F04105460F4614464FF0000825B9AA
:1050A000042020700020BDE8F0812878012803D07A
:1050B000012020700020F6E7A748007818B10220F0
:1050C00020700020EFE7A748007818B10D2020706D
:1050D0000020E8E702F094FC80466E6846B10020AC
:1050E0006860404602F090FC002020703046DAE70D
:1050F0009D48006890F8340040F002009A49096821
:1051000081F8340000209849096881F835009648F4
:10511000006807632846FFF7D7F9404602F074FCA1
:10512000FEF7D3FC02F06CFC80468F48006890F8D4
:10513000350020B101280DD002280AD105E08A48A7
:105140000068466A002020700DE000260E202070C6
:1051500009E000BF294684480068FFF760F900268F
:105160000A20207000BF00BF00207F49096881F835
:1051700034007D49096881F835007B490968C861B8
:10518000794909680862784909684862404602F02E
:105190003BFC304687E72DE9F04104460F461546B3
:1051A0004FF0000824B9042028700020BDE8F081E9
:1051B0002078012803D0012028700020F6E702F0B3
:1051C0001FFC8046A07A20B300267FB1012F0CD1AE
:1051D00007E002231A4600212046FFF735F9701C2C
:1051E000C6B2A07A0028F4D109E000BF02231A4613
:1051F00000212046FFF728F9701CC6B200BF00BF8F
:10520000404602F001FCFEF760FC0E20287030469C
:10521000CCE7404602F0F8FB0020287000BFC5E74D
:1052200070B504460D4600260CB9042070BD0DB9BA
:105230000320FBE72078012801D00120F6E702F0E7
:10524000DFFB0646A07A60B10023022229462046F1
:10525000FFF7FAF8304602F0D7FBFEF736FC0020E5
:10526000E4E7606820B1304602F0CEFB1420DDE7B1
:105270006560304602F0C8FB0020D7E72DE9F04119
:1052800004460D461646002714B90420BDE8F081F7
:105290000DB90320FAE72078012801D00120F5E7B5
:1052A00002F0AEFB0746A07AE8B106F0010050B16B
:1052B00005E00023022229462046FFF7C5F8A07A20
:1052C0000028F6D105E00023022229462046FFF7F8
:1052D000BBF8384602F098FB06F0040008B9FEF768
:1052E000F4FB0020D2E7606820B1384602F08CFB66
:1052F0001420CBE76560384602F086FB0020C5E746
:105300002DE9F04704460D464FF0000914B904207A
:10531000BDE8F0870DB90920FAE72078012801D00F
:105320000120F5E702F06CFB8146A07A287304F1B6
:105330000B0705F10408002605E017F8010B08F833
:10534000010B701CC6B2082EF7D36068286048466F
:1053500002F05AFB0020DBE755000010400000106F
:105360003F00000056000010680000102DE9FC5FAF
:1053700005460F4691461E460020009025B9622042
:1053800030700020BDE8FC9F05F0030018B16220DA
:1053900030700020F6E7022F03D25B20307000202F
:1053A000F0E7B9F1040F03D25C2030700020E9E788
:1053B00002F026FB00907F480468006820B17D4819
:1053C000006840687B490860009802F01DFB1CB92A
:1053D0005A2030700020D5E7AA46A846781E0190D2
:1053E0004FF0000B05E0C844CAF80080C2460BF13C
:1053F000010B01988345F6D30020CAF80000256010
:1054000065602761E760C4F8089030702046B9E70E
:105410002DE9F04104460D46002724B9602028708C
:105420000020BDE8F08102F0EBFA0746206960B188
:105430006668306860602069401E2061384602F06E
:10544000E3FA002028703046EBE7384602F0DCFA39
:105450005D2028700020E4E72DE9F04106460D4666
:105460001446002726B9602020700020BDE8F08196
:105470001DB90C2020700020F8E74F48007818B1C3
:10548000112020700020F1E702F0BAFA0746706997
:1054900028602868FEF778FA8046384602F0B4FAA9
:1054A000002020704046E1E72DE9F04105460E4618
:1054B000144600271DB960202070BDE8F08116B9A0
:1054C0000C202070F9E73C48007810B112202070C1
:1054D000F3E702F095FA07466E61384602F094FA57
:1054E0000020207000BFE8E770B504460D46002696
:1054F0000CB9602070BD0DB95F20FBE702F080FAA7
:105500000646D4E90310884204D3304602F07CFA00
:105510005E20EFE76068286065602069401C2061BC
:10552000304602F071FA0020E4E770B505460C46FB
:1055300000260DB9602070BD0CB96120FBE702F0B8
:105540005FFA06462868206068686060A868A06006
:10555000E868E06028692061304602F055FAD4E935
:105560000301401A60610020E5E770B57821134817
:10557000FEF733FD00240EE004EB44000F4901EB7D
:10558000C005601C00EB400001EBC00068600CA08F
:105590006861601C84B2042CEED304EB440007491C
:1055A00001EBC0050020686005A06861084601495C
:1055B000086070BD7C000010550000106C2B0010BE
:1055C0003F0000002DE9F04106460D464FF000086F
:1055D00026B9042028700020BDE8F0813078022828
:1055E00003D0012028700020F6E702F009FA804677
:1055F0007468E08A78B12169081D20610F68E08A2B
:10560000401EE082A1682069884201D16068206163
:105610000020287002E01F2028700027404602F07A
:10562000F3F93846D8E72DE9F04106460F464FF02A
:105630000008FA48007810B10020BDE8F08102F0BF
:10564000DFF98046F6480468006820B1F448006835
:105650004068F3490860404602F0D6F9FCB102F018
:10566000CFF98046EF480568D5B100680068ED497C
:105670000860404602F0C8F96E6006EB8700A8603B
:10568000EE602E61AF820020E882022020700020B0
:1056900020816560E4A060612046FEF74DFF08E0D0
:1056A000DF4800686060DE480460404602F0ACF904
:1056B00000242046C1E72DE9F047044689461546F7
:1056C0004FF0000A24B9042028702046BDE8F08776
:1056D0002078022803D0012028702046F6E7CF4822
:1056E000007818B10F2028702046EFE702F088F903
:1056F0008246A07A10B14FF0010801E04FF0000897
:10570000B9F1000F03D0B9F1010F49D121E0B8F18F
:10571000000F17D1C4A060616668C248006830609D
:10572000C048066000202070BD480068606000200E
:105730002081BB480460504602F066F900202870C2
:10574000002705E0504602F05FF9492028702746FF
:105750002DE005E00023042219462046FEF774FEE2
:10576000A07A0028F6D1B0A060616668AD480068F4
:105770003060AC48066000202070A9480068606076
:1057800000202081A6480460504602F03DF9B8F19F
:10579000010F01D1FEF799F900202870002706E0DB
:1057A000504602F031F907202870274600BF00BF9D
:1057B00038468BE770B5054600260DB9042070BD4C
:1057C0002878022801D00120F9E702F019F90646ED
:1057D0006C686068E060606820610020E0823046AC
:1057E00002F012F90020EAE72DE9F0470646884664
:1057F00015464FF0000926B9042028700020BDE8A6
:10580000F0873078022803D0012028700020F6E7C6
:105810008248007818B1022028700020EFE7834802
:10582000007818B10D2028700020E8E702F0E8F8B1
:1058300081467468E08A98B12169081D20610F686B
:10584000E08A401EE082A1682069884201D1606838
:105850002061484602F0D8F8002028703846CEE78C
:105860007348006890F8340040F0040070490968FB
:1058700081F8340000206E49096881F835006C48D1
:105880000068C0F830803046FEF71EFE484602F041
:10589000BBF8FEF71AF902F0B3F8814664480068D5
:1058A00090F8350020B101280DD002280AD105E07A
:1058B0005F480068476A002028700DE000270E202E
:1058C000287009E000BF314659480068FEF7A7FD7F
:1058D00000270A20287000BF00BF00205449096833
:1058E00081F834005249096881F835005049096847
:1058F000C8614F49096808624D49096848624846CD
:1059000002F082F838467AE72DE9F04104460F4666
:1059100015464FF0000824B9042028700020BDE887
:10592000F0812078022803D0012028700020F6E7BB
:1059300002F066F88046A07A20B300267FB1012FDE
:105940000CD107E00223042200212046FEF77CFD53
:10595000701CC6B2A07A0028F4D109E000BF02236F
:10596000042200212046FEF76FFD701CC6B200BF66
:1059700000BF404602F048F8FEF7A7F80E20287056
:105980003046CCE7404602F03FF80020287000BFC8
:10599000C5E72DE9F04105460E46002715B904205C
:1059A000BDE8F0812878022801D00120F8E702F054
:1059B00027F80746A87A60B100230422314628461A
:1059C000FEF742FD384602F01FF8FEF77EF8002091
:1059D000E6E76C68E08AA18A884204DB384602F078
:1059E00013F81E20DCE7E168081DE0600E60E08A25
:1059F000401CE082D4E90210884201D16068E06076
:105A0000384602F001F80020CAE72DE9F0410546CA
:105A10000E46002775B90420BDE8F081550000103E
:105A200040000010800000103F00000056000010F1
:105A3000680000102878022801D00120ECE701F06E
:105A4000DFFF0746A87A60B10023042231462846CA
:105A5000FEF7FAFC384601F0D7FFFEF736F80020D3
:105A6000DAE76C68E08AA18A884204DB384601F0F4
:105A7000CBFF1E20D0E761682069884201D1A06871
:105A800020612069001F206120690660E08A401CB7
:105A9000E082384601F0B8FF0020BDE72DE9F04173
:105AA00005460F4616464FF0000815B90420BDE81C
:105AB000F0812878022801D00120F8E701F0A0FF4A
:105AC0008046A87AE8B106F0010050B105E0002355
:105AD000042239462846FEF7B7FCA87A0028F6D1FA
