:020000040000FA
:1000000008320010A9310000B1310000B331000006
:10001000B5310000B7310000B93100000000000028
:10002000000000000000000000000000BB310000E4
:10003000BD31000000000000A37800005136000030
:10004000C3310000C3310000C3310000C3310000E0
:10005000C3310000C91E00002B2100006F230000E7
:10006000C3310000C3310000C3310000C3310000C0
:10007000C3310000C3310000C3310000C3310000B0
:10008000C3310000C3310000C3310000C3310000A0
:10009000C3310000C3310000C3310000C331000090
:1000A000C3310000C3310000C3310000C331000080
:1000B000C3310000C3310000C3310000C331000070
:1000C000C3310000DFF80CD007F0A8FB0048004760
:1000D00029040000083200107047704770477047CD
:1000E00070477047704770477047704710B50920D8
:1000F000F449087001F0F4FA10BD10B501F0F0FAFF
:100100004FF49A72EF49002001F0ADFC142001F089
:100110000BFD4FF49A72EB49002001F0A4FC09207A
:10012000E84908700120E849087010BD10B5E7489B
:10013000006840F01000E549A039C1F8A000084669
:10014000D0F8B80040F01000C1F8B8000846006AC6
:1001500040F0004008620320DA4948704FF4C8704C
:1001600002F064F9FFF7C9FF01F0E7FD4FF4E13059
:1001700001F023FF4FF4E13002F04FF8D348A038EC
:10018000D0F8BC0040F01000D049A039C1F8BC0044
:10019000CE480C38006800F01F00401CCC490870A5
:1001A00008460078C749C874CA48C1064860032099
:1001B000087010BD10B5C84A1278002A36D000BFAA
:1001C000C54A1278012A32D1002020E0BD4AB2F897
:1001D0000D20521E024102F0010159B1BB4A083AFA
:1001E0001268431D01249C402243B84BA03BC3F836
:1001F00098200AE0B54A121F1268431D01249C4052
:100200002243B24BA03BC3F89C20421CD0B207282B
:10021000DCDBAC4AB2F80D20B04B1A80A94A527B05
:10022000521EAF4B1A700222AB4B1A7068E0AB4AF9
:100230001288521CA94B1A80A24AB2F80F20A14B77
:10024000B3F80D309A420ADD9E4AB2F80F20A34B54
:100250001B889A422BDA01229F4B1A70B0E7994A09
:10026000B2F80F20974BB3F80D309A421BDA954A3B
:10027000B2F80B20994B1B889A4202DA0122974B65
:100280001A80904AB2F80F20944B1B889A420EDADB
:100290008C4AB2F80D20914B1B889A4207DD01224F
:1002A0008D4B1A708CE701228B4B1A7088E78B4AB2
:1002B0001278521E8A4B1A7000201FE0874A12885B
:1002C000521E024102F0010159B1804A083A1268F7
:1002D000431D01249C4022437C4BA03BC3F8982043
:1002E0000AE07A4A121F1268431D01249C402243EF
:1002F000764BA03BC3F89C20421CD0B20728DDDB24
:1003000010BD08B5002441E0AA204107087255201D
:1003100008727448007858B16C48A038806B40F07F
:1003200000406A49A039886300206E49087018E0CF
:100330006648A038C06B40F000406449A039C863EB
:100340000120684908705F48801C0090801E437837
:100350005F48027864A1684807F0D2FA664801F065
:10036000A7FE601CC4B20A2C0CDD002457480C38D0
:10037000006800F01F00401C5549087008460078CE
:100380005049C8744FF4FA7006F0FEF9BCE708E073
:10039000FFF710FF4C490978642201FB02F006F0D8
:1003A000F3F9F5E708B54FF4FA7006F0EDF910E04F
:1003B0006A4600215148006804F0ACFD504800F046
:1003C000DFF8041E03DD21464D4801F093FF00F0E5
:1003D00085FEEDE727E04A4C00BF01F0A4FF207046
:1003E0003C28FAD1641C002511E001F09CFF064670
:1003F00004F8016B0A2E08D104E0002004F8010B78
:10040000681CC5B2302DF8DB03E0681CC5B2322D84
:10041000EBDB00BF3948006804F0D4FC38493748AA
:10042000006804F03FFED6E710B503F01FF8FFF7B1
:100430007DFE07F052FA03F0A6FD324800684FF443
:100440007A71B0FBF1F4204603F015F901232E4A2E
:100450000021AFF2511005F0E2FD02232B4A0021EA
:10046000AFF2D50005F0DBFD0323294A002129481E
:1004700005F0D5FD0423284A0021284805F0CFFDCA
:100480000523274A0021274805F0C9FD0523264AF0
:100490000021AFF2EF0005F0C2FD0623234A002140
:1004A000AFF2CF0005F0BBFD002004F0A1FC134922
:1004B00008600846006808B9012010BD03F04DFE31
:1004C0000020FAE73C01001004000010A080092081
:1004D0000500001048E801000100001002000010B3
:1004E00006000010000000103C253032645F25300B
:1004F00031755F25733E0A00A0000010080000104F
:10050000B4000010280000105C0500105C11001001
:100510005C150010851200005C1900109B13000090
:100520005C1B0010931400005C0900105C0D0010AF
:10053000F0B5034600241DE00125002607E005EB89
:1005400085004FF6FF7707EA4005701CC6B2481ECB
:10055000B042F4DC18783038092803DD012010702F
:100560000020F0BD1878303800FB054084B25B1CD9
:10057000481EC1B20029DFD1002010702046F0E7EC
:100580002DE9F04F8DB004464FF00008FEA1204643
:1005900006F054FD002835D0FC4800780A2190FB75
:1005A000F1F03030E17888422CD1F84800780A2107
:1005B00090FBF1F201FB1200303021798842F3D137
:1005C00060795F28F0D1F2A1A01D06F037FD002868
:1005D00042D0207B3E2802D0E07C3E283CD1E07A0D
:1005E0003F2810D1EC480090801E407800EB80003E
:1005F000EA494318E5480278E9A1204607F080F966
:100600001FFA80F878E2002506E005F10B00215C76
:10061000E1484155681CC5B2082DF6DB0021DE48D3
:10062000801E81720921801C01F065F9DA48009072
:10063000801E4378D5480278DFA1E34807F060F9CF
:10064000E14801F035FDD1480278E0A1204607F0ED
:1006500057F91FFA80F8D5E7E1A1A01D06F0EEFCDE
:10066000E0B1E07A3E2819D1DF48006840F0100080
:10067000DD49B839C1F8B800C4480278DBA120468A
:1006800007F03EF91FFA80F8204601F041FE4FF4D2
:100690007A7006F079F802F087FDB3E7D8A1A01DC3
:1006A00006F0CCFC48B1D84BB8480278D7A1204618
:1006B00007F026F91FFA80F8A4E7D8A1A01D06F0DC
:1006C000BDFC38B1D7A001F023FEFFF70FFD02F00B
:1006D0006BFD97E7D7A104F1080006F0AFFCB0F17D
:1006E000000B6FD0207B3E286CD1E0793038A179A7
:1006F000303901EB810100EB4100C6B2102E7DDCE8
:10070000002E4CD1E07A3F2825D110200090A2483D
:10071000801EC27C3346C8A1204607F0F1F81FFABC
:1007200080F800250CE09C4912314A5D04EB08007A
:10073000C7A107F0E5F840441FFA80F8681CC5B26D
:10074000102DF0DB04EB0800AEA107F0D9F840440F
:100750001FFA80F856E7E07A302802D0E07A312894
:100760001CD1002507E0E07A3038C1B28A48123047
:100770004155681CC5B2102DF5DB0120B649087043
:10078000B649087048708448801EC27C3346B4A1C4
:10079000204607F0B5F81FFA80F833E71CE2E07A4C
:1007A0003F2810D1701E7C491231085C0090A1F1E5
:1007B0001400C27C3346AFA1204607F0A1F81FFA0F
:1007C00080F81FE723E0E07A302802D0E07A312871
:1007D0001BD1E07A3038C2B2701E6F4912310A5410
:1007E00001209D4908709D4908708870701EC8706E
:1007F0006948801EC27C334699A100E006E020468D
:1008000007F07EF81FFA80F8FCE6C7E7C6E79EA16E
:1008100004F1080006F012FCB0F1000B70D0207B50
:100820003E286DD1E0793038A179303901EB810172
:1008300000EB4100C6B204F10B0B102E7EDC002E43
:1008400050D19BF800003F2825D11020009052483D
:10085000801EC27C33468DA1204607F051F81FFA56
:1008600080F800250CE04C49E2314A5D04EB0800B9
:1008700077A107F045F840441FFA80F8681CC5B21C
:10088000102DF0DB04EB08005EA107F039F84044BE
:100890001FFA80F8B6E69BF80000302803D09BF8DA
:1008A000000031281DD1002508E09BF800003038F9
:1008B000C1B23948E2304155681CC5B2102DF4DB95
:1008C0000120654908707749087048703248801ED9
:1008D000C27C334674A1204607F012F81FFA80F854
:1008E000FAE3EDE39BF800003F280AD1701E2A4985
:1008F000E231085C30308BF800004FF00D08EBE37C
:1009000026E09BF80000302803D09BF80000312837
:100910001CD19BF800003038C2B2701E1E49E23173
:100920000A5401204C4908705E4908708870701E96
:10093000C8701948801EC27C334600E007E05AA107
:10094000204606F0DDFF1FFA80F8C5E3B8E3B7E301
:100950005AA104F1080006F071FBB0F1000B11D0B0
:10096000207B3E2802D0607C3E280BD1E0793038D5
:10097000A179303901EB810100EB4100C6B204F1ED
:100980000B099DE088E200003C4144000500001096
:10099000494E464F5F0000003E010010B28100004A
:1009A0003C4144253032755F494E464F5F25735FA9
:1009B00025733E0A000000003C253032645F25307C
:1009C00031755F25733E0A00A00000103C414425AC
:1009D0003032755F494E464F5F4F4B3E0A00000074
:1009E00052455345543E0000B88009203C414425FF
:1009F0003032755F52455345545F4F4B3E0A0000FD
:100A000053565F3F3E000000AC8100003C4144254E
:100A10003032755F535625733E0A000052455355D8
:100A20004D453E003C524553554D455F4F4B3E0AA8
:100A3000000000005F435F003C4144253032755F99
:100A4000253032755F253032755F435F000000004E
:100A500025303175000000000C0000100F00001060
:100A60003C4144253032755F253032755F435F4F1E
:100A70004B3E00003C4144253032755F25303275D5
:100A80005F435F2531753E005F575F003C41442561
:100A90003032755F253032755F253032755F575FB4
:100AA00000000000130000103C4144253032755F07
:100AB000253032755F575F4F4B3E00005F415F004E
:100AC00004F10F000B90102E71DC002E70D199F8FC
:100AD00000003F2811D102200790FE4910220798FC
:100AE000CDE900200291FC48C27C3346FBA12046A0
:100AF00006F006FF1FFA80F8EEE299F800002D28B4
:100B000057D108AA022109F10100FFF711FDC7B270
:100B1000632F05DC9DF8200010B98DF8247000E0EB
:100B2000CEE208AA02210B98FFF702FDC7B2632F9D
:100B300005DC9DF8200010B98DF8257000E0BFE2BB
:100B4000002522E09DF8250006F0DFFCEB4AEC4B87
:100B5000CDE9000106F0F3FBCDE904019DF8240086
:100B600006F0D3FCCDE90201DDE9042306F040FBE9
:100B700081F00041CDE9060106F02CFDD649F431A3
:100B800001EB85010860681CC5B2102DDADB01207D
:100B9000DC490870DC4908704870CF48C27C334695
:100BA000DAA1204606F0ACFE1FFA80F894E272E16A
:100BB00058E099F800002B289ED108AA022109F1DB
:100BC0000100FFF7B5FCC7B2632F05DC9DF82000DC
:100BD00010B98DF8247000E072E208AA02210B9887
:100BE000FFF7A6FCC7B2632F05DC9DF8200010B903
:100BF0008DF8257000E063E2002521E09DF82500D6
:100C000006F083FCBD4ABE4BCDE9000106F097FB20
:100C1000CDE904019DF8240006F077FCCDE902013E
:100C2000DDE9042306F0E4FACDE9060106F0D2FC82
:100C30000146A948F43000EB85000160681CC5B28C
:100C4000102DDBDB0120AF490870AF4908704870F8
:100C5000A148C27C3346ADA1204606F051FE1FFAE2
:100C600080F839E299F800003F2865D1711E9A4A50
:100C7000F43202EB81010868002106F0D1FC10D8A3
:100C80002B208DF82400711E934AF43202EB81016F
:100C90000868A34906F03CFA079006F043FC824638
:100CA00013E02D208DF82400701E8B4AF43202EBE5
:100CB00080000168002006F025FA9949069006F0A8
:100CC00027FA079006F02EFC82464FF47A70BAFBA2
:100CD000F0F03030C0B28DF825004FF47A70BAFBD6
:100CE000F0F100FB11A06421B0FBF1F03030C0B294
:100CF0008DF826002E208DF827006420BAFBF0F135
:100D000000FB11A00A21B0FBF1F030308DF8280073
:100D10000A20BAFBF0F100FB11A030308DF8290059
:100D200009AA80A1484606F0EBFD1FFA80F808F1F9
:100D300010001FFA80F8CFE199F800002D2853D158
:100D400008AA022109F10100FFF7F2FBC7B2632FE5
:100D500005DC9DF8200010B98DF8247000E0AFE1AB
:100D600008AA02210B98FFF7E3FBC7B2632F05DC4B
:100D70009DF8200010B98DF8257000E0A0E19DF8E5
:100D8000250006F0C2FB5D4A5D4BCDE9000106F08F
:100D9000D6FACDE904019DF8240006F0B6FBCDE9B2
:100DA0000201DDE9042306F023FA81F00041CDE9D8
:100DB000060106F00FFC0146701E474AF43202EBB2
:100DC0008000016001204F4908704F490870887009
:100DD000701EC8704048C27C33464CA1204606F0C5
:100DE0008FFD1FFA80F877E199F800002B2851D188
:100DF00008AA022109F10100FFF79AFBC7B2632F8D
:100E000005DC9DF8200010B98DF8247000E057E152
:100E100008AA02210B98FFF78BFBC7B2632F05DCF2
:100E20009DF8200010B98DF8257000E048E19DF88C
:100E3000250006F06AFB314A314BCDE9000106F08E
:100E40007EFACDE904019DF8240006F05EFBCDE9B1
:100E50000201DDE9042306F0CBF9CDE9060106F035
:100E6000B9FB0146701E1C4AF43202EB800001609F
:100E7000012024490870244908708870701EC870C9
:100E80001548C27C334621A1204606F039FD1FFAE1
:100E900080F821E114E113E123A104F1080006F038
:100EA000CDF8B0F1000B79D0207B3E2876D1E079E7
:100EB0003038A179303901EB810100EB4100C6B235
:100EC000102E6ADC96BBE07A3F2851D10248C27CE2
:100ED00033462CE0700200103C0100103C414425D8
:100EE0003032755F253032755F253032755F2530C1
:100EF00032755F415F25733E000000007B14AE47F2
:100F0000E17A843F0C000010170000103C4144259A
:100F10003032755F253032755F415F4F4B3E0000C8
:100F20000000C84225733E005F425F0021E0ACA193
:100F3000204606F0E5FC1FFA80F800250CE0AC49DD
:100F40004A5D04EB0800AFF2F84106F0D9FC4044DA
:100F50001FFA80F8681CC5B2102DF0DB04EB080006
:100F6000AFF2605106F0CCFC40441FFA80F8B3E0C9
:100F7000A6E0E07A3F280FD1701E9D49085C0090E2
:100F80009C48C27C33469CA1204606F0B9FC1FFA5F
:100F900080F8A1E002E000E092E091E09CA104F181
:100FA000080006F04BF8B0F1000B7DD0A07B3E2886
:100FB0007AD104F10609E01D0B900B98007899F89E
:100FC000001001EB810100EB4100C6B2102E75DC70
:100FD0008EB902200790904910220798CDE9002091
:100FE00002918448C27C33468CA1204606F088FCDE
:100FF0001FFA80F870E0711E904A52F8210000211B
:1010000006F00EFB0ED82B208DF82400711E8B4AA3
:1010100052F821008A4906F07BF8079006F082FA20
:10102000824611E02D208DF82400701E834A52F86C
:101030002010002006F066F88149069006F068F856
:10104000079006F06FFA82464FF47A70BAFBF0F020
:101050003030C0B28DF825004FF47A70BAFBF0F151
:1010600000FB11A06421B0FBF1F03030C0B28DF86C
:1010700026002E208DF827006420BAFBF0F100FB3B
:1010800011A00A21B0FBF1F030308DF828000A20C1
:10109000BAFBF0F100FB11A030308DF8290009A84F
:1010A00000905448C27C01E009E007E0334665A1A6
:1010B000204606F025FC1FFA80F80DE000E000BF96
:1010C0006648027866A1204606F01AFC1FFA80F8EE
:1010D00040460DB0BDE8F08F4046FAE710B56448D1
:1010E000007801287AD100206149087061480078B1
:1010F000012805D100205F49087002F055F86DE025
:101100005D48007801281DD100205B490870084621
:101110004078012807D1002048701021354814304C
:1011200000F0E9FB5AE054488078012856D10020AD
:1011300051498870CA782F4914315018012100F0A4
:10114000DAFB4BE04D48007801281DD100204B49C7
:10115000087008464078012807D100204870102107
:101160002448E43000F0C7FB38E044488078012888
:1011700034D1002041498870CA781E49E4315018A2
:10118000012100F0B8FB29E03D480078012825D175
:1011900000203B4908700846407801280FD1002004
:1011A0004870002408E01349F43101EB8400042165
:1011B00000F0A1FB601CC4B2102CF4DB0EE0304840
:1011C000807801280AD100202D498870CA78094901
:1011D000F43101EB8200042100F08DFB10BD000012
:1011E0003C4144253032755F253032755F425F00E7
:1011F0001C1F00103C0100103C4144253032755F3B
:10120000253032755F425F253031753E00000000A9
:101210005F504F575F3F0000E80200103C414425FB
:101220003032755F253032755F253032755F25307D
:1012300032755F504F575F25733E00005C1E0010F3
:101240000000C8423C4144253032755F253032757C
:101250005F504F575F25733E0000000005000010EF
:101260003C4144253032755F45523E0A0000000083
:101270000C0000100D0000100F00001013000010F3
:101280001700001086B0002404E00420FE49085531
:10129000601CC4B2082CF8DB642005F075FA4FF42A
:1012A000C87001F0C3F8642005F06EFA74E0002401
:1012B0006DE006F0D5FA0190F448C06F40F01C00D4
:1012C000F249C8670846806F40EA84008867019841
:1012D00006F0CAFA052005F057FAEB48015D2046F2
:1012E00001F065FA322005F04FFA4FF000090EE0E8
:1012F000E548015D204601F0FAFB02A941F829000A
:10130000022005F041FA09F1010000F0FF09B9F1EE
:10131000040FEDDBDDE9020105F0A2FE0090049967
:1013200005F09EFE8346059905F09AFE824606F07A
:101330000DF907460022D64B06F073F8054606F075
:1013400049F9D44941F82400D348005D012812D15D
:10135000D14AE03202EB84021168CE4A52F82400EE
:1013600006F054F903D80120CC4908550AE00020C2
:10137000CA49085506E0CA48C64941F82400002079
:10138000C64908550A2005F0FFF9601CC4B2082CB4
:101390008FDB0A2005F0F8F989E71FB5082404E07F
:1013A0000420B9490855601CC4B2102CF8DB642035
:1013B00005F0EAF96CE0082465E006F051FA814690
:1013C000A4F10800C6B2B148C06B40F46030AF4928
:1013D000C8630846806F40EAC6308867484606F012
:1013E00043FA052005F0D0F9A748015D204601F039
:1013F000DEF9322005F0C8F900250BE0A248015DB6
:10140000204601F052FC4DF82500022005F0BCF901
:10141000681CC5B2042DF1DBDDE9000105F020FEFA
:101420008246029905F01CFE8046039905F018FEDD
:1014300007464FF0814105F09DFE964941F8240092
:101440009548005D012812D1934AE03202EB8402F4
:101450001168904A52F8240006F0D8F803D8012009
:101460008E4908550AE000208C49085506E08C4852
:10147000884941F824000020884908550A2005F0D1
:1014800083F9601CC4B2102C97DB0A2005F07CF9AC
:1014900091E79EB080491439B1F8111001EB410277
:1014A000C2EBC1114FF4FA6202EBC10005F06CF916
:1014B00013E10024002562E0764951F8250000215F
:1014C00006F0AEF80FD82B200DF80400601CC4B253
:1014D000704951F82500734905F01AFE074606F0D9
:1014E00021F886B212E02D200DF80400601CC4B271
:1014F000684850F82510002005F004FE814669492F
:1015000005F006FE074606F00DF886B24FF47A7035
:1015100096FBF0F03030C0B20DF80400601CC4B28D
:101520004FF47A7096FBF0F100FB1160642190FBA0
:10153000F1F03030C0B20DF80400601CC4B22E20AF
:101540000DF80400601CC4B2642096FBF0F100FBAF
:1015500011600A2190FBF1F03030C0B20DF80400A8
:10156000601CC4B20A2096FBF0F100FB1160303021
:10157000C0B20DF80400601CC4B2681CC5B2102DC6
:101580009ADB06F06DF98046002509E01DF805009C
:1015900045494855602D01D100204855681CC5B209
:1015A000612DF3DB404606F05FF90024002568E07A
:1015B0003949E03101EB85010868002106F030F877
:1015C00011D82B200DF80400601CC4B23249E03160
:1015D00001EB85010868334905F09AFD074605F0DF
:1015E000A1FF86B214E02D200DF80400601CC4B2E7
:1015F0002948E03000EB85000168002005F082FDFD
:101600008146284905F084FD074605F08BFF86B228
:101610004FF47A7096FBF0F03030C0B20DF8040051
:10162000601CC4B24FF47A7096FBF0F100FB1160BD
:10163000642190FBF1F03030C0B20DF80400601C62
:10164000C4B22E200DF80400601CC4B2642096FBC6
:10165000F0F100FB11600A2190FBF1F03030C0B2D4
:101660000DF80400601CC4B20A2096FBF0F100FBE8
:1016700011603030C0B20DF80400601CC4B2681CA8
:10168000C5B2102D94DB11E02C0100100080092060
:10169000000010405C1E0010500100101C1F0010C4
:1016A000000048C20000C842E802001006F0D8F866
:1016B0008046002509E01DF8050008494855602DC1
:1016C00001D100204855681CC5B2612DF3DB4046AE
:1016D00006F0CAF8142005F057F8EAE67002001088
:1016E0000022FE4B1A60FE4A1168FE4AB1FBF2F27C
:1016F000501E4FF40012C2F89400FB4AB1FBF2F204
:10170000C2EB02124FF47A73B2FBF3F2501CF64AAA
:10171000B1FBF2F202EBC203C3EB82124FF47A7315
:10172000B2FBF3F2521C40EA0220EF4AB1FBF2F2A4
:10173000C2EBC20202EB8202B2FBF3F2521C40EA9D
:101740000240E64A083A106070472DE9F043079FCF
:101750001546164694464FF0A058DFF89093C9F806
:101760000080012B06D100F00108B8F1000F0AD06B
:1017700000BFFEE7022B06D100F00308B8F1000F0E
:1017800001D000BFFEE700F03F084FF40019C9F890
:10179000848000248DE07BB94FF003084FF40019DA
:1017A000C9F8808095F80080C9F888806D1C00F128
:1017B00001081FFA88F021E0012B0FD14FF0040837
:1017C0004FF40019C9F88080B6F80080C9F8888005
:1017D000B61C00F102081FFA88F00FE04FF0050870
:1017E0004FF40019C9F88080DCF80080C9F88880BF
:1017F0000CF1040C00F104081FFA88F000BFDFF8B8
:10180000EC82A8F10808D8F80080C8F38068B8F125
:10181000000FF4D04FF08068DFF8D092C9F8008054
:10182000402802DB4FF0010801E04FF00008A7F16B
:101830000109A14502D14FF0010901E04FF0000973
:1018400048EA0908B8F1000F23D04FF08058DFF8BC
:101850009C92C9F800804FEA81684FEA18584FF40B
:101860000019C9F884804FF00608C9F8808000BFCD
:10187000DFF87882A8F10808D8F80080C8F300786B
:10188000B8F1000FF4D04FF08058DFF86092C9F83B
:10189000008040280CDB002001F101081FFA88F1CC
:1018A00080464FF40019C9F884803E2900DD0021EC
:1018B000641CBC42FFF46FAFBDE8F0832DE9F84330
:1018C0000746884691468A48381A84B22546E21768
:1018D00004EB926291112646E21704EB9262921198
:1018E000A4EB821290B200234246CDF80090FFF79D
:1018F0002CFFBDE8F8832DE9F841064688467C4870
:10190000301A84B22546E21704EB92629111274601
:10191000E21704EB92629211A4EB821290B20023C0
:101920003246CDF80080FFF710FFBDE8F8812DE9C1
:10193000F043DDF81CC01446164617464FF0A05879
:10194000DFF8A891C9F8008001F03F09804669F3EB
:101950009F184FF40019C9F8848023B94FF0080884
:10196000C9F880801BE0012B0CD14FF009084FF41F
:101970000019C9F8808000F00108B8F1000F0ED0FE
:1019800000BFFEE74FF00A084FF40019C9F8808045
:1019900000F00308B8F1000F01D000BFFEE70025FA
:1019A0005DE05BB94FF40018D8F88C8084F80080B3
:1019B000641C00F101081FFA88F018E0012B0BD11C
:1019C0004FF40018D8F88C80A6F80080B61C00F1FF
:1019D00002081FFA88F00AE04FF40018D8F88C804B
:1019E000C7F800803F1D00F104081FFA88F000BF0F
:1019F000DFF8F880A8F10808D8F80080C8F38068FC
:101A0000B8F1000FF4D04FF08068DFF8E090C9F82B
:101A10000080402822DB002001F101081FFA88F134
:101A200001F03F09804669F39F184FF40019C9F887
:101A3000848023B94FF00808C9F880800EE0012B9C
:101A400006D14FF009084FF40019C9F8808005E06D
:101A50004FF00A084FF40019C9F880806D1C6545E5
:101A60009FD3BDE8F0832DE9F84104460F46904628
:101A70002546E21704EB9262C2F38F112646E21765
:101A800004EB92629211A4EB821290B200233A46C8
:101A9000CDF80080FFF74BFFBDE8F88103220F4B24
:101AA000183B1A6000210CE000220C4B103B1A601E
:101AB00000BF0E4A083A1268C2F38062002AF8D0CA
:101AC000491C4029F0D34FF08052084B1A6082061F
:101AD000120D024B143B1A6006220BE09800200006
:101AE00028000010D8B8050040420F00E80F200081
:101AF0003C0100104FF40013C3F8802000BF084AD7
:101B00001268C2F30072002AF9D07047012803D18D
:101B10000121044A116002E00021024A116070476D
:101B2000E00F200098002000002109E0002201E0E1
:101B3000531C9AB242F228339A42F9DB4B1C99B2F9
:101B40008142F3DB704710B500230DE05C1CA3B2AB
:101B5000002105E0541CA2B2541EA2B24C1CA1B23A
:101B600041F23014A142F5DD8342EFDB10BD2DE9D7
:101B7000F04704460E4617469846ECB11C2E1BD380
:101B8000254605F06DFE8146A6F11800E881E98939
:101B90002C4605F118000844A86005F118002860DB
:101BA00068600020A8812F61C5F81480484605F0C0
:101BB0005BFE0120BDE8F087FF20FBE72DE9F04147
:101BC00005460C460027264605F04AFE8046B089A9
:101BD000002804DD306800782870012700E0002725
:101BE000404605F041FE3846BDE8F0812DE9F04160
:101BF00006460D464FF0FF082DB32C4605F030FE8B
:101C00000746A089002812DD20680078307020681F
:101C1000401C2060A1682068884202D304F11800AB
:101C20002060A089401EA0814FF0010808E04FF01D
:101C30000408206920B12146304622699047804639
:101C4000384605F011FE4046BDE8F0812DE9F0412F
:101C500005460E464FF0FF0835B32C4605F000FE52
:101C60000746A089E189884211DA606806706068D9
:101C7000401C6060D4E90101884202D304F11800DD
:101C80006060A089401CA0814FF0010809E04FF07E
:101C90000808606928B101223146204663699847E7
:101CA0008046384605F0E0FD4046BDE8F08170B55D
:101CB0000446002534B105F0D3FD0646A58930461B
:101CC00005F0D2FD284670BD70B50446002534B13C
:101CD00005F0C6FD0646E589304605F0C5FD2846F7
:101CE00070BD70B504466CB1254605F0B9FD0646D9
:101CF0002C4605F11800286068600020A881304655
:101D000005F0B2FD70BD00002DE9F04105460E461C
:101D1000144600BF2846FFF7D7FF074602E00A2017
:101D200004F032FD2846FFF7C2FFB842F7DA314629
:101D30002846FFF78BFFBDE8F08170B58B4800683F
:101D400040F008008949C439C1F8C400012088491D
:101D50008860C860874800780A2821D2DFE800F050
:101D60002005080B0E1114171A1D4FF4166418E005
:101D70004FF4965415E04FF4165412E04FF46154AA
:101D80000FE04FF496440CE04FF4164409E04DF692
:101D9000C02406E04FF4614403E04FF4E13400E076
:101DA00000BF00BF802074490873744800680009B0
:101DB000B0FBF4F085B22846E91705EB1161090A7A
:101DC0006D4A1171E91705EB11610912A5EB0121AB
:101DD000117003201146087305204860872008729F
:101DE0000520012181404209920002F1E022C2F85F
:101DF000001100BFAFF2EF0300224FF48071604882
:101E0000FFF7B5FEFF2801D1002070BD002003F0D0
:101E10005DFE5C4908600846006808B10120F4E7EF
:101E20000020F2E738B5044621465548FFF70EFF7B
:101E300005F016FD05465048007D00F0200060B119
:101E40004F496846FFF7D2FE9DF800004A490870E6
:101E50000846406840F002004860284605F004FD4E
:101E600038BD70B504460D4603E014F8010BFFF7CA
:101E7000D9FF281EA5F101018DB2F6DC70BD10B5A9
:101E8000044603E014F8010BFFF7CCFF207800288C
:101E9000F8D110BD08B50BE03748406840F00100AC
:101EA000354948606A4600213648006803F0A0FEC4
:101EB0003148007D00F001000028EDD02E48007868
:101EC00000909DF8000008BDF8B505F0C9FC064675
:101ED00041E004F00E00022806D004281CD0062899
:101EE00025D00C2832D126E0002512E0244968468E
:101EF000FFF77CFE012804D19DF800001E49087000
:101F000005E01D48406820F002001B494860681C3D
:101F1000C5B2102DEADB1DE01A48006803F023FF6C
:101F20001548406820F001001349486012E012484B
:101F3000007D00900EE01348006803F014FF0E4887
:101F4000406820F001000C49486003E00A48007D29
:101F5000009000BF00BF08488068C4B204F00100D0
:101F60000028B6D0304605F07FFCF8BDC4C00F4055
:101F700000C002403C01001000C000402C000010D6
:101F80005C1B00101C0000102DE9F04105460E46B8
:101F9000144600BF2846FFF797FE074602E00A20D6
:101FA00004F0F2FB2846FFF782FEB842F7DA31462A
:101FB0002846FFF74BFEBDE8F08170B50546844822
:101FC000006840F010008249C439C1F8C400012003
:101FD0008049C863086480207F4908737F4800688F
:101FE0000009B0FBF5F084B22046E11704EB116163
:101FF000090A794A1171E11704EB11610912A4EB86
:1020000001211170032011460873052048608720C4
:1020100008720620012181404209920002F1E0226B
:10202000C2F8001100BFAFF29F0300224FF480718D
:102030006B48FFF79CFDFF2801D1002070BD0020F8
:1020400003F044FD674908600846006808B10120B4
:10205000F4E70020F2E738B5044621466048FFF770
:10206000F5FD05F0FDFB05465B48007D00F0200016
:1020700060B15B496846FFF7B9FD9DF8000056491D
:1020800008700846406840F002004860284605F0A5
:10209000EBFB38BD70B504460D4603E014F8010BA8
:1020A000FFF7D9FF281EA5F101018DB2F6DC70BD46
:1020B00010B5044603E014F8010BFFF7CCFF2078BD
:1020C0000028F8D110BD08B50BE04348406840F047
:1020D0000100414948606A4600214248006803F017
:1020E00087FD3D48007D00F001000028EDD03A4812
:1020F000007800909DF8000008BD08B53648007DC6
:1021000000F0010058B93448406840F001003249FD
:1021100048606A4601213348006803F069FD2E4893
:10212000007800909DF8000008BDF8B505F098FB18
:10213000064641E004F00E00022806D004281CD018
:10214000062825D00C2832D126E0002512E02449AB
:102150006846FFF74BFD012804D19DF800001E4999
:10216000087005E01C48406820F002001A494860E9
:10217000681CC5B2082DEADB1DE01A48006803F0B0
:10218000F2FD1548406820F001001349486012E054
:102190001148007D00900EE01248006803F0E3FD56
:1021A0000D48406820F001000B49486003E00A48F0
:1021B000007D009000BF00BF07488068C4B204F0F3
:1021C00001000028B6D0304605F04EFBF8BD0000F7
:1021D000C4C00F4000C00240000001402C000010AD
:1021E0005C1C0010200000102DE9F04105460E4651
:1021F000144600BF2846FFF767FD074602E00A20A5
:1022000004F0C2FA2846FFF752FDB842F7DA314629
:102210002846FFF71BFDBDE8F08170B505467D48F7
:10222000006840F080707B49C439C1F8C4000120C7
:1022300079498862C86280207849087378480068C4
:102240000009B0FBF5F084B22046E11704EB116100
:10225000090A724A1171E11704EB11610912A4EB2A
:102260000121117003201146087305204860872062
:1022700008720720012181404209920002F1E02208
:10228000C2F8001100BFAFF29F0300224FF480712B
:102290006448FFF76CFCFF2801D1002070BD0020CE
:1022A00003F014FC604908600846006808B101208A
:1022B000F4E70020F2E738B5044621465948FFF715
:1022C000C5FC05F0CDFA05465448007D00F020001D
:1022D00060B154496846FFF789FC9DF800004F49FA
:1022E00008700846406840F002004860284605F043
:1022F000BBFA38BD70B504460D4603E014F8010B77
:10230000FFF7D9FF281EA5F101018DB2F6DC70BDE3
:1023100010B5044603E014F8010BFFF7CCFF20785A
:102320000028F8D110BD08B50BE03C48406840F0EB
:1023300001003A4948606A4600213B48006803F0C2
:1023400057FC3648007D00F001000028EDD03348EE
:10235000007800909DF8000008BD3049097D01F02B
:10236000010111B12D49087800E000207047F8B54F
:1023700005F076FA064641E004F00E00022806D089
:1023800004281CD0062825D00C2832D126E00025B0
:1023900012E024496846FFF729FC012804D19DF882
:1023A00000001E49087005E01C48406820F002004B
:1023B0001A494860681CC5B2082DEADB1DE01A48BE
:1023C000006803F0D0FC1548406820F00100134974
:1023D000486012E01148007D00900EE0124800684D
:1023E00003F0C1FC0D48406820F001000B49486033
:1023F00003E00A48007D009000BF00BF07488068E6
:10240000C4B204F001000028B6D0304605F02CFA22
:10241000F8BD0000C4C00F4000C002400080094069
:102420002C0000105C1D0010240000100146F8482C
:10243000006840F48050F64AC43AC2F8C400012053
:10244000F44AD06510660020F34A1060F348006833
:10245000F34AB0FBF2F0401E012242EA002040F0B5
:102460009070ED4A106000BFEB48406800F00040FB
:102470000028F9D07047014649B9E74A1268E94B8C
:102480001A40521C42F08072E34B1A600AE00129A4
:1024900008D1E14A1268E34B1A40921C42F0807264
:1024A000DD4B1A6000BFDC4A526802F00042002A8D
:1024B000F9D0D94A126842F08072D74B1A6000BF37
:1024C000D54A526802F00042002AF9D0D24A506838
:1024D000C0F3891070472DE9FC4705460C4690462D
:1024E000D149404605F09CF80BD234B1641ECF4967
:1024F000404604F03FFE804614E000BFDFF828832A
:1025000010E0CB49404605F081F80BD2072C06D2EB
:10251000641CC649404604F0FBFD804602E000BF53
:10252000DFF80C83C049404605F07AF80BD234B18D
:10253000641EBE49404604F01DFE804614E000BF04
:10254000DFF8E48210E0BA49404605F05FF80BD2AC
:10255000072C06D2641CB549404604F0D9FD8046DC
:1025600002E000BFDFF8C88274B3404604F0EEFF1B
:1025700081464A460B460020AE4904F052FF06460B
:1025800005F028F88046404604F0E0FF064605F0D6
:102590009BFD0022A84BCDE9000104F0D0FE81464E
:1025A00005F018F88046611E01EB8101480004F037
:1025B000A7FF0646414604F053FD804641469F482A
:1025C00004F0A6FD804626E0404604F0BFFF064624
:1025D00000229B4B04F025FF814604F0FBFF804660
:1025E000404604F0B3FF814605F06EFD064600222A
:1025F000914B04F0A4FECDE9000104F0EBFF80460E
:10260000614201EB8101480004F07AFF0646414631
:1026100004F026FD8046404604F098FF064600225E
:10262000884B04F0BFFF01D2DFF81C82404604F063
:102630008DFF06460022854B04F09CFF01D2DFF897
:102640001082844840F82580834A02EB8502116895
:10265000024652F8250004F0D9FF03D801207F4933
:10266000485502E000207D494855BDE8FC872DE92A
:10267000F05F0C4691466C49484604F0D1FF0BD2FE
:1026800034B1641E6949484604F074FD814614E083
:1026900000BFDFF8949110E06549484604F0B6FFAA
:1026A0000BD2072C06D2641C6049484604F030FD6A
:1026B000814602E000BFDFF878915B49484604F0AC
:1026C000AFFF0BD234B1641E5849484604F052FDA6
:1026D000814614E000BFDFF8509110E054494846AD
:1026E00004F094FF0BD2072C06D2641C4F494846D5
:1026F00004F00EFD814602E000BFDFF834916CB3B8
:10270000484604F023FF07463A460B460020494955
:1027100004F087FE054604F05DFF8146484604F05C
:1027200015FF074605F0D0FC05460022424B04F099
:1027300006FE824604F04EFF8146611E01EB8101D8
:10274000480004F0DDFE0546494604F089FC814658
:1027500049463A4804F0DCFC814625E0484604F04E
:10276000F5FE05460022364B04F05BFE074604F0FA
:1027700031FF8146484604F0E9FE054605F0A4FC19
:10278000074600222C4B04F0DAFD824604F022FFBB
:102790008146614201EB8101480004F0B1FE05462B
:1027A000494604F05DFC81464846BDE8F09F10288C
:1027B00070D2DFE800F00814205763707C8894A47E
:1027C000B4C0CCDCE7F4264AD26F42F0E062244B7E
:1027D000DA671A46926F42EA01629A67ECE0204A91
:1027E000D26942F060421E4BDA611A46926942EAAF
:1027F00041729A61E0E01A4AD26B42F4E012184B3F
:10280000DA631A46926B42EA81429A63D4E000008E
:10281000C4C00F4000C00240004003402C00001024
:1028200040420F0000FFFF0000004844000020412C
:102830000000A0420000894000002440000080BF4A
:102840000000544000003E400000F041000049C03C
:10285000000048C25C1E0010300200101C1F001057
:1028600000800920FE4AD26B42F46002FC4BDA631E
:102870001A46926B42EA41529A639DE0F84AD26B43
:1028800042F0E062F64BDA631A46926B42EA01626A
:102890009A6391E08FE0F24AD26F42F0E002F04B8F
:1028A000DA671A46926F42EA41129A6784E0EC4A6C
:1028B000D26B42F06052EA4BDA631A46926B42EAFC
:1028C000C1629A6378E0E64AD26D42F46052E44B0A
:1028D000DA651A46926D42EAC1229A656CE0E04AD6
:1028E0009C32126842F0E002DD4BC3F89C201A468D
:1028F000D2F8982042EA4112C3F898205CE0D84A06
:102900009C32126842F4E052D54BC3F89C201A4620
:10291000D2F8982042EA8122C3F898204CE0D04AAD
:10292000D26D42F4E072CE4BDA651A46926D42EAFD
:1029300081129A6540E0CA4AD26D42F03802C84B13
:10294000DA651A46926D42EAC1029A6534E0C44AD9
:102950009C32126842F46052C14BC3F89C201A4664
:10296000D2F8982042EAC122C3F8982024E0BC4A59
:10297000D26D42F00702BA4BDA651A46926D0A43ED
:102980009A6519E0B64AD26942F46062B44BDA61E2
:102990001A46926942EA41229A610DE0FFE7B04A85
:1029A000D26942F07002AE4BDA611A46926942EA8D
:1029B00001129A6100E000BF00BF70472DE9FE4F91
:1029C00004460D46082C02DA4FF0000B01E04FF0F0
:1029D000010B00BF5846FFF74EFD1FFA80F9B9F111
:1029E000320F11DA072D24DA681CC5B204F038FF63
:1029F000029029462046FFF7DAFE029804F034FFE1
:102A00000A2003F0C1FEE5E7B9F57A7F11DD002D5C
:102A10000FDD681EC5B204F023FF02902946204650
:102A2000FFF7C5FE029804F01FFF0A2003F0ACFE7A
:102A3000D0E7484604F064FD82468A4800EB8401F2
:102A4000C030005D01EB4000B0F9000000281CDD43
:102A500000260EE0504604F079FD834A834BCDE911
:102A6000000104F06CFC074604F0B4FD8246701CC3
:102A7000C6B27C4800EB8401C030005D01EB400031
:102A8000B0F90000B042E5DC28E0764800EB8401B4
:102A9000C030005D01EB4000B0F9000000281DDAF5
:102AA00000260EE0504604F051FD714A714BCDE90D
:102AB000000104F044FC074604F08CFD8246701CC3
:102AC000C6B2684800EB8401C030005D01EB4000F5
:102AD000B0F90000401EC043B042E3DC5246294634
:102AE0002046FFF7F8FC64480555BDE8FE8F2DE948
:102AF000FF5F04460D46082C02DA4FF0000A01E0A1
:102B00004FF0010A00BF5046FFF7B5FC87B2322FE5
:102B100011DA072D24DA681CC5B204F0A1FE834641
:102B200029462046FFF743FE584604F09DFE0A2042
:102B300003F02AFEE7E7B7F57A7F11DD002D0FDD00
:102B4000681EC5B204F08CFE834629462046FFF776
:102B50002EFE584604F088FE0A2003F015FED2E748
:102B6000384604F0CDFC80463E48403000EB44013E
:102B70008030005D085C01281DD100260FE0404632
:102B800004F0E4FC384A394BCDE9000104F0D7FBEE
:102B9000CDE9020104F01EFD8046701CC6B231482A
:102BA00000EB8401C030005D01EB4000B0F9000093
:102BB000B042E4DC24E02B48403000EB440180309C
:102BC000005D085CE0B900260FE0404604F0BEFC62
:102BD000274A284BCDE9000104F0B1FBCDE9020101
:102BE00004F0F8FC8046701CC6B21E4800EB84015D
:102BF000C030005D01EB4000B0F90000B042E4DC01
:102C000004F02EFE8346424629462046FFF72FFD5C
:102C10008146584604F028FE184840F8249016488B
:102C20000555012D0DD1484604F090FC0022144BAF
:102C3000CDE9000104F07DFBCDE9020104F0CAFCFE
:102C40008146484604F082FC00220E4BCDE9020189
:102C500004F0A8FC01D2DFF83090484616E00000EE
:102C60000080092060010010959C137B685FF03F95
:102C7000EB1D6E878645EF3F2C0100109C1E001057
:102C80000000E03F000037400000B84104F05EFC67
:102C90000022FE4BCDE9020104F06CFC01D2DFF80A
:102CA000F093484604B0BDE8F09F2DE9FF5F04466D
:102CB0000D46082C02DA4FF0000A01E04FF0010A3D
:102CC00000BF5046FFF7D7FB87B2322F11DA072D2E
:102CD00024DA681CC5B204F0C3FD834629462046A9
:102CE000FFF765FD584604F0BFFD0A2003F04CFDD8
:102CF000E7E7B7F57A7F11DD002D0FDD681EC5B25D
:102D000004F0AEFD834629462046FFF750FD5846A5
:102D100004F0AAFD0A2003F037FDD2E7384604F09C
:102D2000EFFB8046DB4800EB44018030005D085C2F
:102D300001281ED100260FE0404604F007FCD64AC9
:102D4000D64BCDE9000104F0FAFACDE9020104F016
:102D500041FC8046701CC6B2CE48403800EB84016E
:102D6000C030005D01EB4000B0F90000B042E3DC90
:102D700024E0C84800EB44018030005D085CE8B9FD
:102D800000260FE0404604F0E1FBC54AC54BCDE903
:102D9000000104F0D4FACDE9020104F01BFC8046E6
:102DA000701CC6B2BB48403800EB8401C030005DE7
:102DB00001EB4000B0F90000B042E3DC04F050FD4C
:102DC0008346424629462046FFF751FC8146584635
:102DD00004F04AFDB44840F82490B4480555012D4C
:102DE0000DD1484604F0B2FB0022B14BCDE9000101
:102DF00004F09FFACDE9020104F0ECFB814648465D
:102E000004F0A4FB0022AB4BCDE9020104F0CAFBA5
:102E100001D2DFF8A492484604F098FB00229B4BB5
:102E2000CDE9020104F0A6FB01D2DFF86492484626
:102E300004B0BDE8F09F2DE9FC5F04468B464FF4DB
:102E40007A700BFB00F69D4886420AD9301A9149E8
:102E5000403101EB44010988B0FBF1F64FF0010964
:102E600010E0964886420AD2811B8A48403000EB27
:102E700044000088B1FBF0F64FF0000902E00026A4
:102E80004FF00109304604F03BFB8246B9F1000FD8
:102E900068D18B49504604F06DF9834941F824000C
:102EA0008749504604F066F982467A4800EB4401AF
:102EB0008030005D085C01281DD100250EE05046E1
:102EC00004F044FB7F4A804BCDE9000104F090F907
:102ED000074604F07FFB8246681C85B26D48403887
:102EE00000EB8401C030005D01EB4000B0F9000050
:102EF000A842E4DC23E0674800EB44018030005D39
:102F0000085CE0B900250EE0504604F01FFB0746C0
:102F10006C4A6D4B04F00DFACDE9000104F05AFB48
:102F20008246681C85B25B48403800EB8401C030A3
:102F3000005D01EB4000B0F90000A842E4DC63480A
:102F400040F824A0014651F8240004F0FFFA074697
:102F500000225F4B04F026FB03D25E485B4941F838
:102F60002400F1E05649504604F004F907460021D8
:102F700004F0CBF84C4941F824005149504604F084
:102F8000F9F80746002104F0C0F88246504604F0E4
:102F9000DDFA07460022504B04F004FB4BD83D48B5
:102FA00000EB44018030005D085C01281DD1002544
:102FB0000EE0504604F0CAFA0746424A424B04F07B
:102FC00017F9CDE9000104F005FB8246681C85B2C3
:102FD0003048403800EB8401C030005D01EB400018
:102FE000B0F90000A842E4DC9CE02A4800EB440170
:102FF0008030005D085C00281CD100250EE05046A2
:1030000004F0A4FA07462F4A2F4B04F092F9CDE9B9
:10301000000104F0DFFA8246681C85B21D48403882
:1030200000EB8401C030005D01EB4000B0F900000E
:10303000A842E4DC76E0504604F088FA0746002215
:10304000254B04F097FA6DD21248203000EB440172
:103050006030005D085C012843D100250EE0504639
:1030600004F074FA0746174A174B04F0C1F8CDE98B
:10307000000104F0AFFA8246681C85B20548603052
:1030800000EB44012030005D085627E0000049C0F5
:10309000000048C2A0010010959C137B685FF03FC0
:1030A000EB1D6E878645EF3F9C1E00102C01001023
:1030B0000000E03F000037400000B8414208010036
:1030C0000000C8429A9999999999B93F5C1E0010DD
:1030D00000003E400000F041008042C0A842BEDC3B
:1030E00020E02A4800EB44016030005D085CC8B96C
:1030F00000250EE0504604F029FA0746244A254BE5
:1031000004F017F9CDE9000104F064FA8246681C66
:1031100085B21E48403000EB44012030005D085667
:10312000A842E7DC1C4840F824A0014651F82400DE
:1031300004F00CFA07460022184B04F01BFA03D2E5
:103140001748154941F8240010487038005D0128DF
:1031500012D10E4A703202EB840211680E4A52F804
:10316000240004F053FA03D801200E4908550AE060
:1031700000200C49085506E00948074941F8240099
:10318000002008490855BDE8FC9F0000C001001060
:103190009A9999999999B93F5C1E0010000049C00D
:1031A000000048C21C1F0010064880470648004720
:1031B000FEE7FEE7FEE7FEE7FEE7FEE7FEE7FEE7E7
:1031C000FEE7FEE76D340000C5000000D748006848
:1031D00000F48070002851D1D4480830006800F015
:1031E0000100F0B9D148006800F01F00D049B1FBE0
:1031F000F0F0D0490860D048D0F8A80100F01F00D6
:10320000CB49B1FBF0F0CD490860C848001F006809
:1032100000F00100401CC649B1FBF0F0C84908604D
:10322000B8E0C2489C30006800F0400038B9002087
:10323000C0490860C1490860C1490860AAE0BB48AC
:10324000006800F01F00BA49B1FBF0F0B94908600E
:10325000B948D0F8A80100F01F00B549B1FBF0F063
:10326000B6490860B148001F006800F00100401C2A
:10327000AF49B1FBF0F0B24908608BE0AB487C3855
:10328000006800F4807038B90020AA490860AB4992
:103290000860AB4908607DE0A4480830006800F091
:1032A0000100A0BBA1487C38006800F01F00401C52
:1032B0009F494843A049D1F8041101F01F01B0FB18
:1032C000F1F09C49086099487C38006800F01F00C4
:1032D000401C974948439549A431096801F01F01F2
:1032E000B0FBF1F09549086090487C38006800F028
:1032F0001F00401C8E4948438F49D1F8001101F04E
:103300000101491CB0FBF1F08D49086042E0FFE784
:1033100086489C30006800F0400038B9002085499C
:103320000860864908608649086033E07F487C3839
:10333000006800F01F00401C7D4948437E49D1F8D9
:10334000041101F01F01B0FBF1F07A4908607748E1
:103350007C38006800F01F00401C754948437349E1
:10336000A431096801F01F01B0FBF1F07349086056
:103370006E487C38006800F01F00401C6C494843D0
:103380006D49D1F8001101F00101491CB0FBF1F0C9
:103390006B4908606548001D006800F48070C8B380
:1033A0006248001D006800F01F0020B1042806D00C
:1033B000062830D104E00020624908602FE000BFF9
:1033C0005A480830006800F0010088B157487C383E
:1033D000006800F01F00401C554948435649D1F889
:1033E000081101F01F01B0FBF1F05649086010E030
:1033F0004E487C38006800F01F00401C4C49484390
:103400004D49D1F8081101F01F01B0FBF1F04D4911
:10341000086004E004E000204A49086000BF24E09E
:103420004248001D006800F40070D8B13F480830E1
:10343000006800F0010050B13C485C38006800F0C2
:103440001F00401C3A4948433E4908600DE0374898
:103450007C38006800F01F00401C3549484339495A
:10346000086002E0002037490860704721202F499A
:103470009C31086000BF2D489C30006800F040007F
:103480000028F8D0012029490831086009202A497C
:10349000C1F884000120284980310860AA2023490E
:1034A000783908605520086000BF20487C380068E3
:1034B00000F480600028F8D023201C49603908609F
:1034C00001201D49C1F8A000AA20184958390860F8
:1034D00055201949C1F8AC0000BF14485C38006899
:1034E00000F480600028F8D040F201100F49086015
:1034F00040F201201049C1F8080101200B49091FC1
:10350000086002200949A43108600F480749403982
:10351000086088150549C431086045F23A0006493B
:1035200008600020094908607047000004C10F408E
:10353000001BB7002800001000C00F402C00001036
:103540003000001034000010DE87280408ED00E091
:103550000020534908807047704710B50446204644
:10356000FCF7BBFD10BD10B504462046FCF7B6FDC8
:1035700010BD10B5FCF7B3FD10BD10B5FCF7B1FDE3
:1035800010BD70B5044610464FF080750560051FEC
:1035900028462C60434E051F28462E604FF01236F9
:1035A000051F28462E604FF00336051F28462E6063
:1035B0004FF00236051F28462E607610051F28465C
:1035C0002E60051F284629604FF01136051F28463A
:1035D0002E604FF01036051F28462E604FF009363A
:1035E000051F28462E604FF00836051F28462E601E
:1035F0004FF00736051F28462E604FF00636051F90
:1036000028462E604FF00536051F28462E604FF0E5
:103610000436051F28462E6070BD10B5FCF762FD0C
:1036200010BD10B504462046FCF75DFD10BD10B579
:10363000FCF75AFD1A480088401C194908800846C2
:103640000088642803D30020088003F013FC10BD19
:1036500010B504F005F9044613480078401C1249DF
:103660000870FCF742FD00F0AFFD204604F0FCF8C6
:1036700000F0B3FC10BD411E4FF0E0225161FF216C
:103680000A4A11704FF0E021096941F005014FF03D
:10369000E02211611146096941F002011161704790
:1036A000380000106F6700005500001023ED00E0A7
:1036B0001D481E481E481F481F48204820482148D2
:1036C00021482248224823482348244824482548A2
:1036D0002548264826482748274828482848294872
:1036E00029482A482A482B482B482C482C482D4842
:1036F0002D482E482E482F482F4830483048314812
:1037000031483248324833483348344834483548E1
:1037100035483648364837483748384838483948B1
:10372000394800BF70470000CC810000D081000004
:10373000D6810000D8810000D4810000DA81000029
:10374000DC810000DE810000E0810000E2810000F9
:10375000E4810000E6810000E8810000EA810000C9
:10376000EC810000EE810000F0810000F281000099
:10377000F4810000F6810000F8810000FA81000069
:10378000FC810000FE810000008200000282000037
:103790000482000006820000088200000A82000005
:1037A0000C8200000E8200001082000012820000D5
:1037B0001482000016820000188200001A820000A5
:1037C0001C8200001E820000228200002482000071
:1037D0002682000028820000442C0010C42F001014
:1037E0002C8200002E820000308200003282000015
:1037F0003482000036820000388200003A820000E5
:103800003C8200002A8200003E8200000146002027
:1038100002E0491C421CD0B20A78002AF9D1704754
:103820002DE9F04105460E461446002725B904202F
:1038300020700020BDE8F0811EB90C20207000200F
:10384000F8E7F748007818B1112020700020F1E760
:103850002878012808D0022807D0032802D004289D
:1038600004D100E000BF00BF00BF03E001202070D2
:103870000020DFE700BF03F0F3FF07466869306010
:103880003068FFF7C3FF8046384603F0EDFF0020A5
:1038900020704046CEE72DE9F04105460E4614461D
:1038A00000271DB904202070BDE8F08116B90C2056
:1038B0002070F9E7DA48007810B112202070F3E7A1
:1038C0002878012808D0022807D0032802D004282D
:1038D00004D100E000BF00BF00BF02E00120207063
:1038E000E2E700BF03F0BCFF07466E61384603F015
:1038F000BBFF0020207000BFD6E7F0B5024612F8EB
:10390000384F95785678383A0B4618680FE000F132
:103910000B073F5DB74300F10B0C0CF804706746D2
:103920003F5D17B9877AAF4387721B1D186800285F
:10393000EDD1F0BDBB49BC4A1278885CBB49095C3B
:10394000B84A515C01EBC001B94A1170704710B51B
:10395000002403F085FF0446B1480078F8B9B54863
:103960000078E0B9FFF7E6FFB348B149097850F8AD
:103970002100B2490860AE480078B1490978884210
:103980000DD0AE480068C06B401CAC490968C863E4
:10399000AC480068401CAB49086003F078FF204643
:1039A00003F062FF10BD70B501460024A64D2D68DE
:1039B000EC61A54C246821620B4618681BE0A24C00
:1039C000246894F8385000F10B04645D9E4D2D6816
:1039D00095F839502C439C4D2D6895F8386000F1CE
:1039E0000B05AC55847A984D2D6895F83A502C43C8
:1039F00084721B1D18680028E1D1934C246894F848
:103A000038208A4CA45C904D2D6895F83950AC4311
:103A1000864DAC542C46A45C44B98B4C246894F875
:103A20003A50814C2478AC437F4D2C7070BD2DE909
:103A3000FF4F83B081460E461546109F0020009030
:103A4000B9F1000F05D104203870002007B0BDE89F
:103A5000F08FD9F8000018B9042038700020F5E77D
:103A60001EB9042038700020F0E71DB9042038701A
:103A70000020EBE700203060CA46DAF8004015E08D
:103A80002078062807D2DFE800F0060405030708BF
:103A900007E006E005E000BF00BF0120387000200D
:103AA000D4E700BF0AF1040ADAF80040002CE7D19D
:103AB0005B48007818B1022038700020C6E75D48E6
:103AC000007818B10D2038700020BFE703F0C8FE61
:103AD00000900020029083460190CA46DAF8004028
:103AE00066E02078062853D2DFE800F052172A0358
:103AF0005354208960B12089401E208110C60120C6
:103B00000290002001C50BF101001FFA80FB03E0C9
:103B1000019840F00100019045E0606858B160688C
:103B200001C50020606010C6012002900BF1010069
:103B30001FFA80FB03E0019840F00200019032E0A0
:103B4000D4F80480B8F81600E8B1D8F81010081DB1
:103B5000C8F81000086801C5D8F80810D8F8100097
:103B6000884203D1D8F80400C8F81000B8F816004D
:103B7000401EA8F8160010C6012002900BF10100AB
:103B80001FFA80FB03E0019840F0040001900AE076
:103B900000BF00BF009803F067FE002030600120E6
:103BA0003870584652E700BF0AF1040ADAF80040BC
:103BB000002C96D10298012808D10020306000988E
:103BC00003F052FE0020387058463FE71E48006858
:103BD00090F83400019941F0800108431A490968BE
:103BE00081F8340000201849096881F83500164929
:103BF0000698096808634846FFF7D5FE009803F069
:103C000033FEFFF7A4FE03F02BFE00900E48006881
:103C100090F83500D0B1012831D002282ED116E01D
:103C20005500001040820000590000105A0000109A
:103C30005800001056000010DC2200107000001028
:103C4000570000103C0000106800001000BFFE4844
:103C50000068C4693CB110C6002030600BF101005F
:103C60001FFA80FB09E00120F749096881F8350057
:103C70004946F5480068FFF740FE06E000BF4946A8
:103C8000F1480068FFF739FE00BF00BFEE4800684A
:103C900090F8350020B1012828D0022825D11FE056
:103CA000207806280DD2DFE800F00C0607030D0E81
:103CB000002001C510E000BFE3480068406A01C56C
:103CC0000AE000BF00BF009803F0CEFD0020306086
:103CD000012038705846B9E600BF002038700AE06D
:103CE000002001C50E20387005E000BF002001C58E
:103CF0000A20387000BF00BF0020D349096881F84E
:103D00003400D149096881F83500CF490968C86194
:103D1000CD4909680862CC4909684862009803F0F7
:103D2000A3FD584692E67CB5002514E06946284676
:103D300002F0E5FB064666B9C44850F8254044B198
:103D4000012C06D0D4E9020100EB8100A0640198A7
:103D5000E064681CC5B23F2DE8D97CBD002400BFDB
:103D600002E0C82002F010FDB94800780028F8D021
:103D7000B84800686421B0FBF1F0B6490860084615
:103D8000006828B90020B4490870FF2002F002FC46
:103D900000BF03F065FD0446B0480068B049086004
:103DA0000020AE490860204603F05EFDAC48006884
:103DB000A8490968B0FBF1F0C0F16400A649087099
:103DC000FFF7DBFBFFF7AFFF642002F0DDFCE0E76D
:103DD00000B587B0032000214022A24BCDE901327B
:103DE000CDE903104FF6FE703E239E4AFC32009050
:103DF000AFF2970002F06EF906AA9BA13E2002F0F6
:103E0000F1FA07B000BD002400BF00BF03F028FD99
:103E1000044692480068401C90490860204603F020
:103E200023FDFFF7A6FBF1E700B587B003200021D3
:103E30002022914BCDE90132CDE903104FF6FF70FE
:103E40003F238D4A7C320090AFF2450002F042F9E8
:103E500006AA8AA13F2002F0C5FA07B000BD04E01F
:103E6000002200F8012B4A1E91B20029F8D17047B8
:103E700070B54FF4F0718548FFF7F1FF002411E0B1
:103E8000601C85B204EB4400804901EBC00305EBE4
:103E9000450001EBC006002018705E607CA05861F0
:103EA000601C84B2132CEBD304EB4400774901EB84
:103EB000C00300201870586075A058610846754905
:103EC000086070BD70B54FF4F2617348FFF7C7FF2B
:103ED0004FF480715D48FFF7C2FF002413E0601CBF
:103EE000C5B204EB440000EBC4006B4901EBC00316
:103EF00005EB450000EBC50001EBC0065E6164A068
:103F00001865601CC4B2152CE9D304EB440000EB27
:103F1000C400614901EBC003002058615CA0186532
:103F200000205E4908605C485D49086070BD002162
:103F30005C4A1170002004E000215B4A1154411CCE
:103F4000C8B20828F8D30021584A1170584A117095
:103F5000584A11603C4A1160704700205649086079
:103F600056490870564908705649087056490870F5
:103F70005649086039490860394908603549086080
:103F800033490870704710B5FFF7E2FAFFF7E5FF15
:103F9000FFF7CDFFFFF796FFFFF76AFF00F0E4FEA3
:103FA00001F025FA01F051FDFFF73EFFFFF710FF8A
:103FB00002F0BBFFFFF7D0FAFFF77AFB10BD4248D3
:103FC0000078012808D13D480078FF2804D23B48FA
:103FD0000078401C39490870704710B500243A48F1
:103FE0000078012876D103F03BFC04463348007882
:103FF00020B132480078401E304908702F480078C0
:10400000F8B92F480078E0B9FFF794FC0F48284929
:10401000097850F82100274908602548007823498D
:10402000097888420DD023480068C06B401C2149A4
:104030000968C86325480068401C2449086003F0EB
:104040002BFC204644E045E068000010DC22001014
:10405000540000104C0000104800001064000010D4
:10406000500000105C21001075432F4F532D49491B
:1040700020537461740000005C22001075432F4FC0
:10408000532D49492049646C650000002C1F001025
:104090003F00000040000010DC23001074000010FE
:1040A0006C000010590000105A000010570000105A
:1040B000580000107000001084000010550000101F
:1040C0005600001063000010620000103C00001059
:1040D00003F0CAFB10BD10B50024FE48007801288B
:1040E00011D103F0BDFB0446FB48007840B9FB4802
:1040F0000078FF2804D2F9480078401CF74908707E
:10410000204603F0B1FB10BD10B50024F148007843
:10411000012821D103F0A4FB0446F0480078C0B187
:10412000EE480078401EED4908700846007860B9F6
:10413000E948007828B9204603F096FBFFF707FC12
:104140000AE0204603F090FB06E0204603F08CFBDB
:1041500002E0204603F088FB10BD10B5DD48007872
:1041600090B9FFF7E7FBDE480078DE490870DE48CB
:10417000DB49097850F82100DC49086008460068EE
:10418000DB49086003F073FB10BD10B5002402206A
:1041900002F0FAFA03F064FB04460020D5490860F7
:1041A000204603F061FB642002F0EEFA03F058FBB6
:1041B0000446D0480068D04908600120CF49087003
:1041C000204603F051FB10BD70B50026FFF72FFA13
:1041D00003F046FB0646CA480068401CC849086010
:1041E000304603F041FBBB480078012853D1C54855
:1041F000007820B1012804D0022809D103E001256C
:104200000BE0002509E001250120BE49087004E00B
:1042100001250020BB49087000BF00BF05B970BD73
:10422000B948046833E003F01BFB0646206B50B32B
:10423000206B401E2063206B28BB94F8340000F0F4
:10424000370040B114F8340F00F0C800207001208E
:104250006070343C02E0002084F8350094F83400AB
:1042600000F0080078B93834A078A84909780843E4
:10427000A64908702078A649085C6178084314F8BC
:104280003819A34A50546469304603F0EDFA94F8A3
:1042900036003F28C7D100BFC1E740F22310704766
:1042A000704710B590F8382001F10B039B5C90F833
:1042B0003940A34301F10B04A35423469B5C23B96B
:1042C0008B7A90F83A40A3438B7210BD2DE9F04FE2
:1042D00005460F4690469946A87A8E490E5C05F130
:1042E0000B00805D11F800B00BEBC60000F0FF0A78
:1042F0007D4850F82A4000202434E0602760207C6C
:1043000020EA0800207484F81190207C243C00F0FE
:10431000080068B994F83A007C49097808437B4959
:1043200008707B48805D94F83910084378498855B7
:1043300029462046FFF7B5FF206A20B12046216AB2
:10434000FFF7DBFAE5615046BDE8F08F10B5684A2B
:104350001268D061664A126892F8383000F10B0298
:10436000D25C634B1B6893F839301A43604B1B686F
:1043700093F8384000F10B031A55827A5C4B1B68A6
:1043800093F83A301A438272594A126892F83810F8
:104390005F4A525C564B1B6893F839309A435C4B2A
:1043A0005A541A46525C42B9514A126892F83A304D
:1043B000564A12789A43554B1A7010BD0146002296
:1043C0008A72002005E0002301F10B021354421C05
:1043D000D0B20828F7D3704705E011F8013B00F888
:1043E000013B531E9AB2002AF7D170472DE9F84FCE
:1043F00005460F4690469946DDE90AAB002000903D
:1044000003F02EFA009044480468002C60D01C345D
:1044100054F8080C40490860009803F025FA44F865
:104420001C7CA576002020766076606144F818BC7C
:1044300044F810AC44F8148C0C9824F80C0C24F8B4
:104440000A9C0020E077E810207705F00700E0766E
:10445000217F01208840A077E17E0120884060779D
:10446000002020606060E060A0602062A062606266
:10447000E0622063AFF2E83060631C3C002606E097
:10448000002104F1540040F82610701CC6B2002E22
:10449000F6D02046FFF7C5F82046FFF75EF803F098
:1044A000DFF90090104840F8254017480068606127
:1044B0000020A0611448006810B1134800688461AE
:1044C000114804603834A07810490978084325E081
:1044D0003AE0000062000010550000105600001085
:1044E0005800001057000010DC220010700000106F
:1044F00068000010640000104C0000105400001010
:1045000084000010780000107400001059000010A2
:104510005A000010408200006C0000100D49087025
:1045200020780D49085C6178084314F838190A4A64
:1045300050540A480078401C08490870009803F05D
:1045400093F90020BDE8F88F009803F08DF9422020
:10455000F8E70000590000105A0000106300001036
:104560002DE9F05F04460F4691461E464FF0000BC2
:1045700024B96E2030700020BDE8F09F2078052817
:1045800003D0012030700020F6E709F0800ABAF16C
:10459000000F04D029F080094FF0010801E04FF02E
:1045A00000080020307003F05BF98346B9F1000F7A
:1045B0002CD0B9F1010F3BD0B9F1020F03D0B9F102
:1045C000030F46D111E0208900EA0705BD4206D15C
:1045D000B8F1010F05D12089A843208101E07020A6
:1045E0003070584603F040F93AE0208900EA0705A8
:1045F00035B1B8F1010F05D12089A843208101E030
:1046000070203070584603F02FF929E0208927EAFE
:104610000005BD4206D1B8F1010F05D1208928431C
:10462000208101E070203070584603F01DF917E03A
:10463000208927EA000535B1B8F1010F05D120899D
:104640002843208101E070203070584603F00CF9B7
:1046500006E0584603F008F900256F20307000BFCF
:1046600000BF284688E72DE9F04106460D460027A1
:10467000F748007820B1102028700020BDE8F081B4
:1046800003F0EEF80746F348046884B10068406818
:10469000F049086005202070268100206060EEA0AF
:1046A000E060384603F0E0F80020287004E0384667
:1046B00003F0DAF8722028702046DFE730B50146B3
:1046C0004A6808682AB9CC68606028B1002545604E
:1046D00002E0106000B142608B6800259D6230BD31
:1046E000F0B506460F46B46800202C346060278081
:1046F000207A00F0DF00207200206072207A2C3CCB
:1047000088B93834A078D54909780843D349087066
:104710002078D349085C6178084314F83819D04AE6
:104720005054012500E000253046FFF7C7FF28461A
:10473000F0BD2DE9F0470446894615464FF0000AC2
:1047400024B96E2028702046BDE8F087C048007864
:1047500018B10F2028702046F6E72078052803D0EE
:10476000012028702046EFE703F07AF8824660685F
:1047700008B1012700E00027B9F1000F03D0B9F11B
:10478000010F3CD119E08FB9B3A0E0600020207088
:10479000B0480068606000202081AE480460504648
:1047A00003F062F800202870002605E0504603F070
:1047B0005BF849202870264628E0D4F8048005E0FC
:1047C00000214046FFF78CFFD8F80080B8F1000FB9
:1047D000F6D1A1A0E060002020709E4800686060D3
:1047E000002020819B480460504603F03DF8012FD3
:1047F00001D1FFF7ACF800202870002606E05046F3
:1048000003F032F807202870264600BF00BF30466C
:104810009AE72DE9F04105460E461446002725B9D2
:104820006E2020700020BDE8F0811EB90C202070A1
:104830000020F8E78648007818B111202070002089
:10484000F1E703F00DF807462878052806D038462A
:1048500003F00AF8012020700020E4E7E8683060E7
:104860003068FEF7D3FF8046384602F0FDFF002097
:1048700020704046D7E72DE9F04105460E46144624
:1048800000271DB96E202070BDE8F08116B90C20FC
:104890002070F9E76E48007810B112202070F3E71D
:1048A00002F0DEFF07462878052805D0384602F0DA
:1048B000DBFF01202070E7E7EE60384602F0D4FF0E
:1048C0000020207000BFDFE7F0B51446059E654F5D
:1048D0003F6897F8347047F02007DFF888C1DCF8AC
:1048E00000C08CF834700027DFF878C1DCF800C015
:1048F0008CF835705B4F3F683E635A4F3F68B96232
:104900000C828B74574F3F688F6047680F60002799
:104910004F60C860456805B169604160514F3F68AC
:1049200097F838204E4FBF5CDFF838C1DCF800C084
:104930009CF839C027EA0C07DFF824C10CF8027094
:104940006746BF5C5FB9474F3F6897F83AC0434F2F
:104950003F7827EA0C07DFF804C18CF80070F0BD3F
:104960002DE9F04F89B005460F4691469A46129EB2
:10497000002002902DB96E203070002009B0BDE8F3
:10498000F08F3348007818B1022030700020F5E72E
:104990003548007818B10D2030700020EEE72878F7
:1049A000052803D0012030700020E7E709F0800BD4
:1049B000BBF1000F04D009F07F094FF0010801E0BE
:1049C0004FF0000802F04CFF0290B9F1000F59D0EF
:1049D000B9F1010F79D0B9F1020F03D0B9F1030F8A
:1049E00072D120E0288900EA0704BC420FD1B8F157
:1049F000010F02D12889A04328811A4800688485C4
:104A0000029802F031FF002030702046B6E74B4696
:104A10003A4604A92846CDF800A0FFF755FF0298B2
:104A200002F022FF79E0288900EA0704F4B1B8F126
:104A3000010F02D12889A04328810A480068848593
:104A4000029802F011FF00203070204696E7000027
:104A500055000010440000103F00000059000010F5
:104A60005A00001068000010560000104B463A46ED
:104A700004A92846CDF800A0FFF726FF029802F00F
:104A8000F3FE4AE0288927EA0004BC420FD1B8F1BE
:104A9000010F02D1288920432881C74800688485F6
:104AA000029802F0E1FE00203070204666E74B4697
:104AB0003A4604A92846CDF800A0FFF705FF029862
:104AC00002F0D2FE29E000E01FE0288927EA000476
:104AD0007CB1B8F1010F02D1288920432881B64862
:104AE00000688485029802F0BFFE002030702046E6
:104AF00044E74B463A4604A92846CDF800A0FFF704
:104B0000E3FE029802F0B0FE07E0029802F0ACFE6D
:104B100000246F203070204630E700BFFEF717FFFB
:104B200002F09EFE0290A448006890F8350020B381
:104B3000A148006890F83500039000209E4909685C
:104B400081F8350004A8FFF7B9FD00209A490968EB
:104B500081F83400029802F087FE002403980128AF
:104B600005D0022802D10E20307003E000BF0A20D9
:104B7000307000BF00BF204600E78F480068848D7A
:104B8000B8F1010F1ED1B9F1000F0ED0B9F1010F2C
:104B90000CD0B9F1020F03D0B9F1030F0AD100E034
:104BA00000BF2889A04328810BE000BF288920434B
:104BB000288106E0029802F057FE6F203070002036
:104BC000DCE600BF029802F04FFE00203070204665
:104BD000D4E670B5002502F043FE0546764800682D
:104BE000848D284602F040FE204670BD2DE9FC5F12
:104BF0000446894692461E460020009024B96E2045
:104C000030700020BDE8FC9F2078052803D00120EB
:104C100030700020F6E702F023FE0090BAF1000F9A
:104C200003D0BAF1010F0AD104E0208920EA09007B
:104C300020810BE0208940EA0900208106E00098ED
:104C400002F012FE712030700020DBE700BF4FF051
:104C5000000B656855E0A87C40B3012838D00228D5
:104C600002D0032844D111E02089298A00EA0107F3
:104C7000288AB84209D139462846FFF731FD8046D7
:104C8000B8F1010F01D14FF0010B38E02089298ADA
:104C900000EA01074FB139462846FFF721FD80465B
:104CA000B8F1010F01D14FF0010B28E0288A2189CA
:104CB00020EA0107288AB84209D139462846FFF779
:104CC0000FFD8046B8F1010F01D14FF0010B16E046
:104CD000288A218920EA01074FB139462846FFF783
:104CE000FFFC8046B8F1010F01D14FF0010B06E047
:104CF000009802F0B9FD6F203070002082E700BFFD
:104D00002D68002DA7D1009802F0AEFDBBF1010F78
:104D100001D1FEF71CFE02F0A3FD00902089019056
:104D2000009802F0A1FD0020307001986AE72DE99B
:104D3000F04104460D46002724B96E20287000205B
:104D4000BDE8F0812078052803D0012028700020DC
:104D5000F6E702F085FD07462689384602F084FD15
:104D6000002028703046EBE72DE9F0415021134830
:104D7000FFF775F800250EE0681C86B20F4800EBBF
:104D8000051400EB0617002020706760AFF2383082
:104D9000E060681C85B2042DEED3084800EB0514D2
:104DA000002020706060AFF25030E060034804499A
:104DB0000860BDE8F0810000680000100C210010C0
:104DC0004400001070B5044600260CB9002070BDE8
:104DD0002078012801D00020F9E702F041FD0646C5
:104DE000656800206060304602F03EFD2846EEE730
:104DF00070B505460026F948007808B1002070BD5E
:104E000002F02EFD0646F6480468006820B1F4481A
:104E100000684068F2490860304602F025FD4CB158
:104E200001202070002020816560EEA06061204696
:104E3000FFF7C4FA2046E2E72DE9F047044688462A
:104E400015464FF0000924B9042028702046BDE81B
:104E5000F0872078012803D0012028702046F6E74B
:104E6000DE48007818B10F2028702046EFE702F0E6
:104E7000F7FC8146A07A08B1012700E00027B8F1CD
:104E8000000F03D0B8F1010F3AD119E08FB9D5A0C6
:104E9000606100202070D24800686060002020819E
:104EA000CF480460484602F0DFFC0020287000264E
:104EB00005E0484602F0D8FC49202870264626E046
:104EC00005E00023022219462046FFF7FFF9A07AE9
:104ED0000028F6D1C3A0606100202070C04800689F
:104EE000606000202081BE480460484602F0BCFC9F
:104EF000012F01D1FEF72BFD00202870002606E0CF
:104F0000484602F0B1FC07202870264600BF00BFCB
:104F100030469CE72DE9F04105460F4614464FF018
:104F2000000825B9042020700020BDE8F081287811
:104F3000012803D0012020700020F6E7A748007860
:104F400018B1022020700020EFE7A748007818B1C0
:104F50000D2020700020E8E702F082FC80466E6899
:104F600046B100206860404602F07EFC00202070C0
:104F70003046DAE79D48006890F8340040F00200BF
:104F80009A49096881F8340000209849096881F835
:104F900035009648006807632846FFF7D7F9404672
:104FA00002F062FCFEF7D3FC02F05AFC80468F4808
:104FB000006890F8350020B101280DD002280AD1F0
:104FC00005E08A480068466A002020700DE000264F
:104FD0000E20207009E000BF294684480068FFF7D2
:104FE00060F900260A20207000BF00BF00207F4922
:104FF000096881F834007D49096881F835007B49EA
:105000000968C8617949096808627849096848628D
:10501000404602F029FC304687E72DE9F04104467E
:105020000F4615464FF0000824B9042028700020D0
:10503000BDE8F0812078012803D0012028700020ED
:10504000F6E702F00DFC8046A07A20B300267FB17F
:10505000012F0CD107E002231A4600212046FFF75A
:1050600035F9701CC6B2A07A0028F4D109E000BF5F
:1050700002231A4600212046FFF728F9701CC6B209
:1050800000BF00BF404602F0EFFBFEF760FC0E20C1
:1050900028703046CCE7404602F0E6FB002028703E
:1050A00000BFC5E770B504460D4600260CB90420C4
:1050B00070BD0DB90320FBE72078012801D0012045
:1050C000F6E702F0CDFB0646A07A60B1002302228B
:1050D00029462046FFF7FAF8304602F0C5FBFEF7F6
:1050E00036FC0020E4E7606820B1304602F0BCFBEB
:1050F0001420DDE76560304602F0B6FB0020D7E7FC
:105100002DE9F04104460D461646002714B9042047
:10511000BDE8F0810DB90320FAE72078012801D01D
:105120000120F5E702F09CFB0746A07AE8B106F003
:10513000010050B105E00023022229462046FFF776
:10514000C5F8A07A0028F6D105E0002302222946FE
:105150002046FFF7BBF8384602F086FB06F0040055
:1051600008B9FEF7F4FB0020D2E7606820B13846AA
:1051700002F07AFB1420CBE76560384602F074FB3E
:105180000020C5E72DE9F04704460D464FF0000921
:1051900014B90420BDE8F0870DB90920FAE720789A
:1051A000012801D00120F5E702F05AFB8146A07AE0
:1051B000287304F10B0705F10408002605E017F831
:1051C000010B08F8010B701CC6B2082EF7D36068FB
:1051D0002860484602F048FB0020DBE7550000103D
:1051E000400000103F000000560000106800001052
:1051F0002DE9FC5F05460F4691461E4600200090B3
:1052000025B9622030700020BDE8FC9F05F0030046
:1052100018B1622030700020F6E7022F03D25B2025
:1052200030700020F0E7B9F1040F03D25C20307039
:105230000020E9E702F014FB00907F480468006852
:1052400020B17D48006840687B490860009802F002
:105250000BFB1CB95A2030700020D5E7AA46A8469F
:10526000781E01904FF0000B05E0C844CAF800809A
:10527000C2460BF1010B01988345F6D30020CAF812
:105280000000256065602761E760C4F80890307011
:105290002046B9E72DE9F04104460D46002724B920
:1052A000602028700020BDE8F08102F0D9FA07469E
:1052B000206960B16668306860602069401E2061C6
:1052C000384602F0D1FA002028703046EBE7384625
:1052D00002F0CAFA5D2028700020E4E72DE9F041D1
:1052E00006460D461446002726B96020207000208F
:1052F000BDE8F0811DB90C2020700020F8E74F4870
:10530000007818B1112020700020F1E702F0A8FA0F
:105310000746706928602868FEF778FA80463846A4
:1053200002F0A2FA002020704046E1E72DE9F041AA
:1053300005460E46144600271DB960202070BDE8C2
:10534000F08116B90C202070F9E73C48007810B1C4
:1053500012202070F3E702F083FA07466E613846A8
:1053600002F082FA0020207000BFE8E770B5044622
:105370000D4600260CB9602070BD0DB95F20FBE71B
:1053800002F06EFA0646D4E90310884204D3304690
:1053900002F06AFA5E20EFE76068286065602069C5
:1053A000401C2061304602F05FFA0020E4E770B54F
:1053B00005460C4600260DB9602070BD0CB9612071
:1053C000FBE702F04DFA06462868206068686060D6
:1053D000A868A060E868E06028692061304602F0B3
:1053E00043FAD4E90301401A60610020E5E770B593
:1053F00078211348FEF733FD00240EE004EB44004F
:105400000F4901EBC005601C00EB400001EBC00040
:1054100068600CA06861601C84B2042CEED304EBBD
:105420004400074901EBC0050020686005A06861E1
:1054300008460149086070BD7C000010550000104E
:105440006C2B00103F0000002DE9F04106460D4690
:105450004FF0000826B9042028700020BDE8F08134
:105460003078022803D0012028700020F6E702F0EF
:10547000F7F980467468E08A78B12169081D2061D7
:105480000F68E08A401EE082A1682069884201D14D
:10549000606820610020287002E01F20287000272B
:1054A000404602F0E1F93846D8E72DE9F0410646DA
:1054B0000F464FF00008FA48007810B10020BDE810
:1054C000F08102F0CDF98046F6480468006820B10A
:1054D000F44800684068F3490860404602F0C4F9A7
:1054E000FCB102F0BDF98046EF480568D5B100680F
:1054F0000068ED490860404602F0B6F96E6006EBC0
:105500008700A860EE602E61AF820020E882022052
:105510002070002020816560E4A060612046FEF7D5
:105520004DFF08E0DF4800686060DE4804604046E8
:1055300002F09AF900242046C1E72DE9F04704461D
:10554000894615464FF0000A24B9042028702046E9
:10555000BDE8F0872078022803D00120287020467B
:10556000F6E7CF48007818B10F2028702046EFE703
:1055700002F076F98246A07A10B14FF0010801E0FE
:105580004FF00008B9F1000F03D0B9F1010F49D174
:1055900021E0B8F1000F17D1C4A060616668C2486D
:1055A00000683060C048066000202070BD48006878
:1055B000606000202081BB480460504602F054F92E
:1055C00000202870002705E0504602F04DF94920E0
:1055D000287027462DE005E00023042219462046C6
:1055E000FEF774FEA07A0028F6D1B0A0606166686C
:1055F000AD4800683060AC48066000202070A948C3
:105600000068606000202081A6480460504602F0D7
:105610002BF9B8F1010F01D1FEF799F9002028709C
:10562000002706E0504602F01FF9072028702746A1
:1056300000BF00BF38468BE770B5054600260DB9A0
:10564000042070BD2878022801D00120F9E702F07B
:1056500007F906466C686068E060606820610020B9
:10566000E082304602F000F90020EAE72DE9F04739
:105670000646884615464FF0000926B904202870D2
:105680000020BDE8F0873078022803D00120287080
:105690000020F6E78248007818B102202870002028
:1056A000EFE78348007818B10D2028700020E8E764
:1056B00002F0D6F881467468E08A98B12169081D25
:1056C00020610F68E08A401EE082A168206988425C
:1056D00001D160682061484602F0C6F800202870B9
:1056E0003846CEE77348006890F8340040F0040074
:1056F0007049096881F8340000206E49096881F812
:1057000035006C480068C0F830803046FEF71EFE59
:10571000484602F0A9F8FEF71AF902F0A1F881460E
:105720006448006890F8350020B101280DD00228A7
:105730000AD105E05F480068476A002028700DE044
:1057400000270E20287009E000BF31465948006844
:10575000FEF7A7FD00270A20287000BF00BF002029
:105760005449096881F834005249096881F83500C4
:1057700050490968C8614F49096808624D4909687C
:105780004862484602F070F838467AE72DE9F04161
:1057900004460F4615464FF0000824B9042028702F
:1057A0000020BDE8F0812078022803D00120287075
:1057B0000020F6E702F054F88046A07A20B30026D5
:1057C0007FB1012F0CD107E00223042200212046E3
:1057D000FEF77CFD701CC6B2A07A0028F4D109E067
:1057E00000BF0223042200212046FEF76FFD701C3B
:1057F000C6B200BF00BF404602F036F8FEF7A7F879
:105800000E2028703046CCE7404602F02DF80020EC
:10581000287000BFC5E72DE9F04105460E46002778
:1058200015B90420BDE8F0812878022801D00120B4
:10583000F8E702F015F80746A87A60B100230422C1
:1058400031462846FEF742FD384602F00DF8FEF7D5
:105850007EF80020E6E76C68E08AA18A884204DBD3
:10586000384602F001F81E20DCE7E168081DE06020
:105870000E60E08A401CE082D4E90210884201D127
:105880006068E060384601F0EFFF0020CAE72DE9CC
:10589000F04105460E46002775B90420BDE8F081A9
:1058A0005500001040000010800000103F00000074
:1058B00056000010680000102878022801D001204E
:1058C000ECE701F0CDFF0746A87A60B1002304227F
:1058D00031462846FEF7FAFC384601F0C5FFFEF7D0
:1058E00036F80020DAE76C68E08AA18A884204DB97
:1058F000384601F0B9FF1E20D0E761682069884270
:1059000001D1A06820612069001F20612069066024
:10591000E08A401CE082384601F0A6FF0020BDE787
:105920002DE9F04105460F4616464FF0000815B91F
:105930000420BDE8F0812878022801D00120F8E792
:1059400001F08EFF8046A87AE8B106F0010050B160
:1059500005E00023042239462846FEF7B7FCA87A62
:105960000028F6D105E00023042239462846FEF738
:10597000ADFC404601F078FF06F0040008B9FDF7E1
:10598000E6FF0020D5E76C68E08AA18A884204DB44
:10599000404601F069FF1E20CBE706F0020058B137
:1059A00061682069884201D1A06820612069001FD8
:1059B00020612069076009E0E168081DE0600F6070
:1059C000D4E90210884201D16068E060E08A401C9E
:1059D000E082404601F048FF0020AAE72DE9F047A9
:1059E00005460C464FF0000A15B90420BDE8F087C3
:1059F0000CB90920FAE72878022801D00120F5E740
:105A000001F02EFF8246A87A207405F10B0804F1FC
:105A10000809002705E018F8010B09F8010B781CAC
:105A2000C7B2082FF7D36E68F08A18B130690068E2
:105A3000206001E000202060F08AA080B08AE08031
:105A4000504601F011FF0020D0E72DE9F041602120
:105A50001048FEF704FA00240DE0601C86B204EB47
:105A600044000C4901EBC00506EB460001EBC00702
:105A70002F60601C84B2032CEFD304EB4400054973
:105A800001EBC00500202860084603490860BDE816
:105A9000F0810000E42B00108000001070B5044677
:105AA00000260CB9002070BD2078032801D000200A
:105AB000F9E701F0D5FE0646258915B12089401E7B
:105AC0002081304601F0D0FE2846ECE770B505464F
:105AD0000026E548007808B1002070BD01F0C0FE46
