:020000040000FA
:10000000082E001091350000993500009B35000046
:100010009D3500009F350000A13500000000000064
:10002000000000000000000000000000A3350000F8
:10003000A5350000000000008B7C0000393A00006C
:10004000AB350000AB350000AB350000AB35000030
:10005000AB3500002D2200008F240000D3260000C5
:10006000AB350000AB350000AB350000AB35000010
:10007000AB350000AB350000AB350000AB35000000
:10008000AB350000AB350000AB350000AB350000F0
:10009000AB350000AB350000AB350000AB350000E0
:1000A000AB350000AB350000AB350000AB350000D0
:1000B000AB350000AB350000AB350000AB350000C0
:1000C000AB350000DFF80CD007F09CFD004800477E
:1000D00023030000082E00107047704770477047D8
:1000E00070477047704770477047704710B50920D8
:1000F000B649087001F0A6FC10BD10B501F0A2FCD5
:1001000040F23512B149002001F05FFE142001F0E9
:10011000BDFE40F23512AD49002001F056FE092027
:10012000AA4908700120AA49087010BD10B5A94855
:10013000006840F01000A749A039C1F8A0000846A7
:10014000D0F8B80040F01000C1F8B8000846006AC6
:1001500040F0004008620846006A9F4908439D49F4
:10016000A03908620846006840F47C7008600846C0
:10017000006840F0604008600846006C40F2FF11E3
:1001800008439449A03908640846006C40F4605064
:1001900008640846006E40F0FC0008660846006EE1
:1001A00040F0E06008668B482038006843F6E07154
:1001B00008438849203908600320844948704FF477
:1001C000C87002F0E5FAFFF798FF01F068FF4FF4FE
:1001D000E13002F0A4F84FF4E13002F0D0F97D48AC
:1001E000A038D0F8BC0040F010007A49A039C1F81E
:1001F000BC0078480C38006800F01F00401C7749AC
:10020000087008460078714948747548C10648600E
:100210000320087010BD08B500243EE0AA20410765
:100220000872552008726F48007858B16948A038A4
:10023000806B40F000406749A0398863002069491D
:10024000087015E06348A038C06B40F00040614979
:10025000A039C8630120634908705C48801C009085
:10026000801E43785D4802785FA1634807F03CFD3B
:10027000601CC4B20A2C0CDD002456480C380068FF
:1002800000F01F00401C55490870084600784F498F
:1002900048744FF4FA7006F06BFCBFE708B54FF4F2
:1002A000FA7006F065FC10E06A46002153480068C9
:1002B00005F024F8524800F0E1F8041E03DD214661
:1002C0004F4802F099F801F0C7F8EDE728E04C4CF0
:1002D00000BF02F0AAF820703C28FAD1641C002567
:1002E00012E002F0A2F8064604F8016B0A2E09D1CA
:1002F0002E4604E0002004F8010B681CC5B2302D26
:10030000F8DB03E0681CC5B2322DEADB00BF3B48D6
:10031000006804F04BFF3A493848006805F0B6F829
:10032000D5E710B503F096FAFFF700FF07F0C9FC18
:1003300004F01DF8334800684FF47A71B0FBF1F413
:10034000204603F08CFB01232F4A0021AFF2391025
:1003500006F059F802232D4A00212D4806F053F8E3
:1003600003232C4A00212C4806F04DF804232B4A85
:1003700000212B4806F047F805232A4A0021AFF256
:10038000E30006F040F80623274A0021AFF2C3003D
:1003900006F039F80523234A0021AFF2FF0006F0EA
:1003A00032F80623204A0021AFF2DF0006F02BF8D6
:1003B000002004F011FF114908600846006808B9E0
:1003C000012010BD04F0BDF80020FAE72C01001058
:1003D00004000010A08009200080FF3F05000010ED
:1003E00048E80100000000103C253032645F2530F1
:1003F00031755F25733E0A00A00000100800001050
:10040000B4000010280000106005001060110010FA
:10041000E915000060150010FF16000060170010BD
:10042000F717000060090010600D0010F0B50346DA
:1004300000241DE00125002607E005EB85004FF6AE
:10044000FF7707EA4005701CC6B2481EB042F4DCD4
:1004500018783038092803DD012010700020F0BD25
:100460001878303800FB054084B25B1C481EC1B2CE
:100470000029DFD1002010702046F0E701B596B0CA
:1004800000201390FEA1169806F0CCFF002800F083
:10049000E187FC4800780A2190FBF1F03030169992
:1004A000C978884240F0D687F64800780A2190FB48
:1004B000F1F201FB12003030169909798842F1D12E
:1004C000169840795F28EDD1EFA11698801D06F0AF
:1004D000A9FF002851D01698007B3E2803D016981B
:1004E000C07C3E2849D11698C07A3F2814D1E848EC
:1004F0000090801E407800EB4000E64901EB400090
:1005000003460990DF480278E3A1169807F0ECFB58
:1005100080B2139000F09EBF002014900AE014985F
:100520000B3016990A5CDA48149942541498401C0E
:10053000C0B2149014980828F1DB0021D448801E22
:1005400081720921801C01F088FBD1480090801E37
:10055000407803460990CB480278D5A1D84807F0E7
:10056000C3FBD74801F056FFC6480278D5A11698BC
:1005700007F0BAFB80B21390CCE7D7A11698801D84
:1005800006F050FFE8B11698C07A3E2819D1D44839
:10059000006840F01000D249B839C1F8B800B94835
:1005A0000278D0A1169807F09FFB80B2139016989E
:1005B00002F060F84FF47A7006F0DAFA02F0E8FF21
:1005C000A8E7CDA11698801D06F02CFF48B1CC4BB2
:1005D000AC480278CBA1169807F086FB80B2139046
:1005E00098E7CCA11698801D06F01CFF38B1CBA06F
:1005F00002F040F8FFF77AFD02F0CAFF8AE7CBA1CC
:100600001698083006F00EFF129000287BD016983E
:10061000007B3E2877D11698C079303816998979B1
:10062000303901EB810100EB4100C0B20E900E9811
:10063000102869DC0E98002869D11698C07A3F28E6
:1006400034D1102000909248801E407C09900246D0
:10065000B7A10E9B169807F047FB80B213900020BD
:10066000149014E08A4813301499405C099013994F
:10067000169808440890B4A1099A07F035FB13991D
:10068000084480B213901498401CC0B2149014987F
:100690001028E7DB13991698084498A1099007F0F1
:1006A00023FB1399084480B2139033E71698C07A5D
:1006B000302803D01698C07A312827D10020149012
:1006C0000BE01698C07A3038C2B2714813301499D2
:1006D00042541498401CC0B2149014981028F0DBB7
:1006E00001209B4908709B49087048706848801E2B
:1006F000407C0990024698A10E9B169807F0F4FAE8
:1007000080B2139006E742E040E000E0DEE2169897
:10071000C07A3F2812D10E98401E5D491331085C03
:100720000090A1F11500407C099002468FA10E9B1C
:10073000169807F0D9FA80B21390EBE61698C07AB3
:10074000302803D01698C07A31281ED11698C07A66
:100750003038C2B20E98401E4D4913310A54012060
:100760007B4908707B49087088700E98401EC870DD
:100770004748801E407C0990024677A10E9B169840
:1007800007F0B2FA80B21390C4E6BFE7BEE77CA1DF
:100790001698083006F046FE129000286CD0169885
:1007A000007B3E2868D11698C0793038169989792F
:1007B000303901EB810100EB4100C0B20E90169878
:1007C0000B3012900E98102857DC0E98002855D147
:1007D000129800783F2834D1102000902C48801EB9
:1007E000407C0990024667A10E9B169807F07CFAA0
:1007F00080B213900020149014E02548E33014993F
:10080000405C099013991698084408904EA1099AE3
:1008100007F06AFA1399084480B213901498401CA8
:10082000C0B2149014981028E7DB13991698084466
:1008300032A1099007F058FA1399084480B2139036
:1008400068E612980078302803D012980078312892
:1008500015D1002014900BE0129800783038C2B205
:100860000B48E330149942541498401CC0B21490C1
:1008700014981028F0DB91E0DDE0DBE0A3E0A1E0DC
:100880003C41440005000010494E464F5F00000007
:100890002E0100109A8500003C4144253032755FDE
:1008A000494E464F5F25735F25733E0A00000000E6
:1008B0003C253032645F253031755F25733E0A0078
:1008C000A00000103C4144253032755F494E464F30
:1008D0005F4F4B3E0A00000052455345543E000016
:1008E000B88009203C4144253032755F524553455C
:1008F000545F4F4B3E0A000053565F3F3E000000DE
:10090000948500003C4144253032755F5356257371
:100910003E0A0000524553554D453E003C5245535A
:10092000554D455F4F4B3E0A000000005F435F009E
:100930003C4144253032755F253032755F253032B9
:10094000755F435F00000000253031750000000036
:100950000C0000100F0000103C4144253032755F40
:10096000253032755F435F4F4B3E00003C414425CC
:100970003032755F253032755F435F2531753E003B
:100980005F575F003C4144253032755F253032753A
:100990005F253032755F575F000000000120FE497F
:1009A0000870FE4908700121FC484170FC48407CF9
:1009B00009900246FBA10E9B169807F095F980B2AC
:1009C0001390A7E5A2E6129800783F280BD10E9865
:1009D000401EF349E531085C3030C1B21298017015
:1009E0000D20139096E512980078302803D01298C5
:1009F000007831281DD1129800783038C2B20E9894
:100A0000401EE749E5310A540120E3490870E349F3
:100A1000087088700E98401EC870E148407C0990AC
:100A20000246E0A10E9B169807F05EF980B2139083
:100A300070E56BE66AE6E0A11698083006F0F2FC75
:100A4000129000287ED01698007B3E2803D016987E
:100A5000407C3E2876D11698C0793038169989792D
:100A6000303901EB810100EB4100C0B20E901698C5
:100A70000B30119016980F3010900E9810287DDCD6
:100A80000E9800287BD1119800783F2878D1022059
:100A9000099010210998CDE90010C148407C0790C9
:100AA0000246C6A10E9B169807F01EF980B213905D
:100AB00000200890149075E0B948F530149900EBC7
:100AC000810000680021079006F09EFF11D82B20BE
:100AD0008DF82C00B248F530149900EB81000068C5
:100AE000BD49069006F008FD079006F00FFF0D9037
:100AF00015E02D208DF82C00A948F530149900EB55
:100B00008100006801460590002006F0EFFCB24924
:100B1000069006F0F1FC079006F0F8FE0D904FF4F9
:100B20007A710D98B0FBF1F03030C0B28DF82D0025
:100B30000D98B0FBF1F201FB12006421B0FBF1F063
:100B4000303000E096E2C0B28DF82E002E208DF8F5
:100B50002F000D98B0FBF1F201FB12000A21B0FB4F
:100B6000F1F030308DF830000D98B0FBF1F201FB60
:100B7000120030308DF83100984902E079E2F6E059
:100B800025E00622149802FB00110B980860BDF8BE
:100B9000300088800898801DC0B208901498401CCE
:100BA000C0B214901498102886DB8C491022099842
:100BB000CDE9002002917A48407C0790024688A146
:100BC0000E9B169807F090F880B21390A2E411984B
:100BD00000782D2864D10AAA02211198401CFFF741
:100BE00025FCC0B20F900F98632806DC9DF8280002
:100BF00018B90F988DF82C0000E087E50AAA0221A9
:100C00001098FFF713FCC0B20F900F98632806DC12
:100C10009DF8280018B90F988DF82D0000E075E5B3
:100C20000020149027E09DF82D00019006F061FE51
:100C3000734A744BCDE9020106F075FDCDE906015A
:100C40009DF82C00039006F054FECDE90401DDE987
:100C5000062306F0C1FC81F00041CDE9080106F051
:100C6000ADFE4F49F531149A01EB820108601498EA
:100C7000401CC0B2149014981028D4DB01204649BF
:100C800008706149087048704548407C09900246E8
:100C90005EA10E9B169807F027F880B21390D9E357
:100CA000119800782B2891D10AAA02211198401C92
:100CB000FFF7BCFBC0B20F900F98632806DC9DF8CD
:100CC000280018B90F988DF82C0000E0B7E30AAAA5
:100CD00002211098FFF7AAFBC0B20F900F9863286B
:100CE00006DC9DF8280018B90F988DF82D0000E05B
:100CF000A5E30020149025E09DF82D00019006F05A
:100D0000F8FD3F4A3F4BCDE9020106F00CFDCDE96D
:100D100006019DF82C00039006F0EBFDCDE90401DF
:100D2000DDE9062306F058FCCDE9080106F046FE91
:100D30001B49F531149A01EB820108601498401C9C
:100D4000C0B2149014981028D6DB01201249087004
:100D50002D49087048701248407C099002462BA12A
:100D60000E9B169806F0C0FF80B2139072E31198A4
:100D700000783F287ED10E98401E0949F53101EBDD
:100D8000800000680021099006F03EFE56D82B2016
:100D90008DF82C000E9843E00C000010130000109A
:100DA0002C0100103C4144253032755F25303275EE
:100DB0005F575F4F4B3E00005F415F003C41442561
:100DC0003032755F253032755F253032755F2530E2
:100DD00032755F415F0000000000C84271020010E0
:100DE0003C4144253032755F253032755F25303205
:100DF000755F253032755F415F25733E000000004E
:100E00007B14AE47E17A843F170000103C41442533
:100E10003032755F253032755F415F4F4B3E0000C9
:100E2000401EFD4901EB80000068FC49089006F077
:100E300063FB099006F06AFD0D9015E02D208DF8FA
:100E40002C000E98401EF44901EB8000006801461A
:100E50000790002006F04AFBF049089006F04CFB92
:100E6000099006F053FD0D904FF47A710D98B0FB88
:100E7000F1F000E034E03030C0B28DF82D000D9874
:100E8000B0FBF1F201FB12006421B0FBF1F0303055
:100E9000C0B28DF82E002E208DF82F000D98B0FBDB
:100EA000F1F201FB12000A21B0FBF1F030308DF8B5
:100EB00030000D98B0FBF1F201FB120030308DF8DC
:100EC000310000208DF832000BAAD5A1119806F050
:100ED0000BFF80B213901398103080B21390B9E2D8
:100EE000119800782D2860D10AAA02211198401C7F
:100EF000FFF79CFAC0B20F900F98632806DC9DF8AC
:100F0000280018B90F988DF82C0000E097E20AAA83
:100F100002211098FFF78AFAC0B20F900F98632849
:100F200006DC9DF8280018B90F988DF82D0000E018
:100F300085E29DF82D00019006F0DBFCB94ABA4B22
:100F4000CDE9020106F0EFFBCDE906019DF82C008A
:100F5000039006F0CEFCCDE90401DDE9062306F09E
:100F60003BFB81F00041CDE9080106F027FD014679
:100F70000E98401EA84A02EB800001600120AB4998
:100F80000870AB49087088700E98401EC870A2F1B6
:100F9000F500407C09900246AFF290110E9B169826
:100FA00006F0A2FE80B2139054E2119800782B282C
:100FB0005ED10AAA02211198401CFFF737FAC0B28D
:100FC0000F900F98632806DC9DF8280018B90F9839
:100FD0008DF82C0000E032E20AAA02211098FFF7F7
:100FE00025FAC0B20F900F98632806DC9DF8280000
:100FF00018B90F988DF82D0000E020E29DF82D0023
:10100000019006F076FC874A874BCDE9020106F095
:101010008AFBCDE906019DF82C00039006F069FCDF
:10102000CDE90401DDE9062306F0D6FACDE9080191
:1010300006F0C4FC01460E98401E774A02EB800081
:1010400001600120794908707949087088700E980C
:10105000401EC870A2F1F500407C09900246AFF234
:1010600054210E9B169806F03FFE80B21390F1E1DA
:10107000E5E1E4E16FA11698083006F0D3F912908B
:10108000F0B31698007B3E2864D11698C0793038AA
:1010900016998979303901EB810100EB4100C0B22A
:1010A0000E900E98102854DC0E9850BB1698C07AFB
:1010B0003F2836D15848F538407C099002465EA159
:1010C0000E9B169806F010FE80B21390002014902C
:1010D00014E05D491498085C099013991698084427
:1010E0000890AFF29C71099A06F0FEFD139908442E
:1010F00080B213901498401CC0B21490149801E070
:1011000028E00FE01028E4DB139916980844AFF6A6
:101110001401099006F0E8FD1399084480B2139079
:1011200098E18CE11698C07A3F2811D10E98401EA4
:101130004549085C00903848F538407C09900246E3
:1011400042A10E9B169806F0CFFD80B2139081E16C
:1011500075E174E143A11698083006F063F9129026
:10116000002858D01698807B3E2854D11698C07914
:10117000303816998979303901EB810100EB410053
:10118000C0B20E900E98102872DC0E98F0BB0220B0
:101190000990002014909BE03449149851F82000E5
:1011A0000021079006F030FC0FD82B208DF82C0082
:1011B0002E49149851F820001849069006F09CF921
:1011C000079006F0A3FB0D9013E02D208DF82C0066
:1011D0002649149851F8200001460590002006F099
:1011E00085F90E49069006F087F9079006F08EFB08
:1011F0000D904FF47A710D98B0FBF1F03030C0B221
:101200008DF82D000D98B0FBF1F200E076E001FBC7
:10121000120064212DE0E0E0210200100000C8422D
:1012200025733E007B14AE47E17A843F0C0000102A
:10123000170000105F425F003C4144253032755F6B
:10124000253032755F425F00201B00103C41442571
:101250003032755F253032755F425F253031753E23
:10126000000000005F504F575F3F0000601A001001
:10127000B2E0B0FBF1F03030C0B28DF82E002E207D
:101280008DF82F000D98B0FBF1F201FB12010A203E
:10129000B1FBF0F030308DF830000A220D98B0FB31
:1012A000F2F102FB110030308DF83100AB4906221B
:1012B000149802FB00100B990160BDF8301081807A
:1012C0000898801DC0B208901498401CC0B21490B9
:1012D00014981028FFF660AFA04910220998CDE9B4
:1012E000002002919E48407C079002469DA10E9BE3
:1012F000169806F0F9FC80B21390ABE00E98401EF1
:10130000A04951F820000021099006F07DFB10D87B
:101310002B208DF82C000E98401E9A4951F8200081
:101320009949089006F0E8F8099006F0EFFA0D9058
:1013300014E02D208DF82C000E98401E914951F894
:10134000200001460790002006F0D0F88E49089052
:1013500006F0D2F8099006F0D9FA0D904FF47A71A0
:101360000D98B0FBF1F03030C0B28DF82D000D9823
:10137000B0FBF1F201FB12006421B0FBF1F0303060
:10138000C0B28DF82E002E208DF82F000D98B0FBE6
:10139000F1F201FB12000A21B0FBF1F030308DF8C0
:1013A00030000D98B0FBF1F201FB120030308DF8E7
:1013B000310000208DF832008DF833000BA800902A
:1013C0006748407C0990024670A10E9B169806F073
:1013D0008BFC80B213903DE031E072A11698401D65
:1013E00006F020F8129048B31698C07A3E2825D10E
:1013F0001698C01C11901698001D10901098017836
:10140000303911980078303800EB800001EB400053
:10141000C0B20F905248417C0F9881420BD1504886
:10142000407C1023024661A10990169806F05CFCEE
:1014300080B213900EE0002013900BE000BF6048D4
:10144000027860A1169806F04FFC80B213901398B2
:1014500017B000BD1398FBE710B55E48007801286F
:101460007AD100205B4908705B480078012805D1DB
:1014700000205949087002F08BF86DE05748007859
:1014800001281DD1002055490870084640780128E0
:1014900007D10020487010213148153000F0DDFBE5
:1014A0005AE04E488078012856D100204B49887078
:1014B000CA782B4915315018012100F0CEFB4BE0C2
:1014C0004748007801281DD100204549087008468A
:1014D0004078012807D10020487010212048E530CD
:1014E00000F0BBFB38E03E488078012834D1002072
:1014F0003B498870CA781A49E5315018012100F03B
:10150000ACFB29E037480078012825D10020354977
:1015100008700846407801280FD100204870002448
:1015200008E00F49F53101EB8400042100F095FB40
:10153000601CC4B2102CF4DB0EE02A48807801282D
:101540000AD1002027498870CA780549F53101EB96
:101550008200042100F081FB10BD0000E9020010B0
:101560002C0100103C4144253032755F2530327526
:101570005F253032755F253032755F504F575F25DC
:10158000733E0000601A00100000C8423C41442530
:101590003032755F253032755F504F575F25733E8F
:1015A000000000005F4D41585F3F00003C41442572
:1015B0003032755F4D41585F253033753E00000075
:1015C000050000103C4144253032755F45523E0A0B
:1015D000000000000C0000100D0000100F000010B3
:1015E000130000101700001086B0002404E004204F
:1015F000FE490855601CC4B2082CF8DB642005F0D5
:10160000B7FA4FF4C87001F0C3F8642005F0B0FADF
:1016100074E000246DE006F017FB0190F448C06F01
:1016200040F01C00F249C8670846806F40EA840019
:101630008867019806F00CFB052005F099FAEB4845
:10164000015D204601F0DCFA322005F091FA4FF0FE
:1016500000090EE0E548015D204601F045FC02A9C5
:1016600041F82900022005F083FA09F1010000F099
:10167000FF09B9F1040FEDDBDDE9020105F0E4FE3D
:101680000090049905F0E0FE8346059905F0DCFE24
:10169000824606F04FF907460022D64B06F0B5F811
:1016A000054606F08BF9D44941F82400D348005D83
:1016B000012812D1D14AE03202EB84021168CE4AED
:1016C00052F8240006F096F903D80120CC490855B9
:1016D0000AE00020CA49085506E0CA48C64941F850
:1016E00024000020C64908550A2005F041FA601C74
:1016F000C4B2082C8FDB0A2005F03AFA89E71FB53F
:10170000082404E00420B9490855601CC4B2102C18
:10171000F8DB642005F02CFA6CE0082465E006F0A4
:1017200093FA8146A4F10800C6B2B148C06B40F4F8
:101730006030AF49C8630846806B40EAC6308863B2
:10174000484606F085FA052005F012FAA748015D23
:10175000204601F055FA322005F00AFA00250BE088
:10176000A248015D204601F094FC4DF825000220BE
:1017700005F0FEF9681CC5B2042DF1DBDDE90001BE
:1017800005F062FE8246029905F05EFE80460399EE
:1017900005F05AFE07464FF0814105F0DFFE9649FD
:1017A00041F824009548005D012812D1934AE032A7
:1017B00002EB84021168904A52F8240006F01AF9EC
:1017C00003D801208E4908550AE000208C490855AD
:1017D00006E08C48884941F82400002088490855D3
:1017E0000A2005F0C5F9601CC4B2102C97DB0A2052
:1017F00005F0BEF991E79EB080491539498A01EBA1
:101800004102C2EBC1114FF4FA6202EBC10005F0D4
:10181000AFF914E10024002562E0774951F8250072
:10182000002106F0F1F80FD82B200DF80400601C01
:10183000C4B2714951F82500734905F05DFE0746B1
:1018400006F064F886B212E02D200DF80400601C4A
:10185000C4B2694850F82510002005F047FE8146C3
:10186000694905F049FE074606F050F886B24FF484
:101870007A7096FBF0F03030C0B20DF80400601CB6
:10188000C4B24FF47A7096FBF0F100FB1160642152
:1018900090FBF1F03030C0B20DF80400601CC4B20F
:1018A0002E200DF80400601CC4B2642096FBF0F1F9
:1018B00000FB11600A2190FBF1F03030C0B20DF84E
:1018C0000400601CC4B20A2096FBF0F100FB11601A
:1018D0003030C0B20DF80400601CC4B2681CC5B240
:1018E000102D9ADB06F0B0F98046002509E01DF8BE
:1018F000050046494855602D01D100204855681C17
:10190000C5B2612DF3DB404606F0A2F900240025A4
:1019100068E03A49E03101EB85010868002106F0F2
:1019200073F811D82B200DF80400601CC4B23349A1
:10193000E03101EB85010868334905F0DDFD07461C
:1019400005F0E4FF86B214E02D200DF80400601CC1
:10195000C4B22A48E03000EB85000168002005F0A1
:10196000C5FD8146284905F0C7FD074605F0CEFFB5
:1019700086B24FF47A7096FBF0F03030C0B20DF8BA
:101980000400601CC4B24FF47A7096FBF0F100FBC7
:101990001160642190FBF1F03030C0B20DF804000A
:1019A000601CC4B22E200DF80400601CC4B2642078
:1019B00096FBF0F100FB11600A2190FBF1F0303052
:1019C000C0B20DF80400601CC4B20A2096FBF0F10E
:1019D00000FB11603030C0B20DF80400601CC4B2CE
:1019E000681CC5B2102D94DB12E0000061020010EB
:1019F0000080092000001040601A00104101001012
:101A0000201B0010000048C20000C842E90200107C
:101A100006F01AF98046002509E01DF8050008497E
:101A20004855602D01D100204855681CC5B2612D74
:101A3000F3DB404606F00CF9142005F099F8E9E6CE
:101A4000710200100022FE4B1A60FE4A1168FE4A25
:101A5000B1FBF2F2501E4FF40012C2F89400FB4AA0
:101A6000B1FBF2F2C2EB02124FF47A73B2FBF3F263
:101A7000501CF64AB1FBF2F202EBC203C3EB821236
:101A80004FF47A73B2FBF3F2521C40EA0220EF4AA1
:101A9000B1FBF2F2C2EBC20202EB8202B2FBF3F242
:101AA000521C40EA0240E64A083A106070472DE9AD
:101AB000F043079F1546164694464FF0A058DFF8AE
:101AC0009093C9F80080012B06D100F00108B8F10D
:101AD000000F0AD000BFFEE7022B06D100F003087A
:101AE000B8F1000F01D000BFFEE700F03F084FF44F
:101AF0000019C9F8848000248DE07BB94FF00308F9
:101B00004FF40019C9F8808095F80080C9F88880E2
:101B10006D1C00F101081FFA88F021E0012B0FD1A4
:101B20004FF004084FF40019C9F88080B6F800801F
:101B3000C9F88880B61C00F102081FFA88F00FE08F
:101B40004FF005084FF40019C9F88080DCF80080D8
:101B5000C9F888800CF1040C00F104081FFA88F021
:101B600000BFDFF8EC82A8F10808D8F80080C8F3BD
:101B70008068B8F1000FF4D04FF08068DFF8D092A1
:101B8000C9F80080402802DB4FF0010801E04FF067
:101B90000008A7F10109A14502D14FF0010901E0B8
:101BA0004FF0000948EA0908B8F1000F23D04FF0C0
:101BB0008058DFF89C92C9F800804FEA81684FEAAC
:101BC00018584FF40019C9F884804FF00608C9F876
:101BD000808000BFDFF87882A8F10808D8F800807C
:101BE000C8F30078B8F1000FF4D04FF08058DFF858
:101BF0006092C9F8008040280CDB002001F1010848
:101C00001FFA88F180464FF40019C9F884803E29F4
:101C100000DD0021641CBC42FFF46FAFBDE8F0831F
:101C20002DE9F8430746884691468A48381A84B217
:101C30002546E21704EB926291112646E21704EB67
:101C400092629211A4EB821290B200234246CDF828
:101C50000090FFF72CFFBDE8F8832DE9F841064618
:101C600088467C48301A84B22546E21704EB92621B
:101C700091112746E21704EB92629211A4EB8212B3
:101C800090B200233246CDF80080FFF710FFBDE888
:101C9000F8812DE9F043DDF81CC0144616461746BE
:101CA0004FF0A058DFF8A891C9F8008001F03F0973
:101CB000804669F39F184FF40019C9F8848023B94E
:101CC0004FF00808C9F880801BE0012B0CD14FF0C1
:101CD00009084FF40019C9F8808000F00108B8F134
:101CE000000F0ED000BFFEE74FF00A084FF40019B6
:101CF000C9F8808000F00308B8F1000F01D000BFE0
:101D0000FEE700255DE05BB94FF40018D8F88C8041
:101D100084F80080641C00F101081FFA88F018E0C4
:101D2000012B0BD14FF40018D8F88C80A6F8008056
:101D3000B61C00F102081FFA88F00AE04FF4001800
:101D4000D8F88C80C7F800803F1D00F104081FFA06
:101D500088F000BFDFF8F880A8F10808D8F8008004
:101D6000C8F38068B8F1000FF4D04FF08068DFF856
:101D7000E090C9F80080402822DB002001F1010832
:101D80001FFA88F101F03F09804669F39F184FF46C
:101D90000019C9F8848023B94FF00808C9F8808079
:101DA0000EE0012B06D14FF009084FF40019C9F8D5
:101DB000808005E04FF00A084FF40019C9F88080D0
:101DC0006D1C65459FD3BDE8F0832DE9F8410446BD
:101DD0000F4690462546E21704EB9262C2F38F113C
:101DE0002646E21704EB92629211A4EB821290B2A3
:101DF00000233A46CDF80080FFF74BFFBDE8F8819D
:101E000003220F4B183B1A6000210CE000220C4B00
:101E1000103B1A6000BF0E4A083A1268C2F3806293
:101E2000002AF8D0491C4029F0D34FF08052084BCB
:101E30001A608206120D024B143B1A6006220BE058
:101E40009800200028000010D8B8050040420F007C
:101E5000E80F20002C0100104FF40013C3F880207D
:101E600000BF084A1268C2F30072002AF9D0704716
:101E7000012803D10121044A116002E00021024A35
:101E800011607047E00F200098002000002109E059
:101E9000002201E0531C9AB242F228339A42F9DB45
:101EA0004B1C99B28142F3DB704710B500230DE063
:101EB0005C1CA3B2002105E0541CA2B2541EA2B2C5
:101EC0004C1CA1B241F23014A142F5DD8342EFDB9C
:101ED00010BD2DE9F04704460E4617469846ECB172
:101EE0001C2E1BD3254605F0AFFE8146A6F1180037
:101EF000E881E9892C4605F118000844A86005F13D
:101F00001800286068600020A8812F61C5F814803F
:101F1000484605F09DFE0120BDE8F087FF20FBE765
:101F20002DE9F04105460C460027264605F08CFEBB
:101F30008046B089002804DD3068007828700127C9
:101F400000E00027404605F083FE3846BDE8F081FA
:101F50002DE9F04106460D464FF0FF082DB32C4603
:101F600005F072FE0746A089002812DD206800787F
:101F700030702068401C2060A1682068884202D32D
:101F800004F118002060A089401EA0814FF00108D4
:101F900008E04FF00408206920B12146304622694C
:101FA00090478046384605F053FE4046BDE8F08134
:101FB0002DE9F04105460E464FF0FF0835B32C469B
:101FC00005F042FE0746A089E189884211DA60687F
:101FD00006706068401C6060D4E90101884202D349
:101FE00004F118006060A089401CA0814FF0010836
:101FF00009E04FF00808606928B101223146204607
:10200000636998478046384605F022FE4046BDE8A1
:10201000F08170B50446002534B105F015FE064682
:10202000A589304605F014FE284670BD70B50446FB
:10203000002534B105F008FE0646E589304605F076
:1020400007FE284670BD70B504466CB1254605F004
:10205000FBFD06462C4605F118002860686000204C
:10206000A881304605F0F4FD70BD00002DE9F04177
:1020700005460E46144600BF2846FFF7D7FF074621
:1020800002E00A2004F074FD2846FFF7C2FFB842C0
:10209000F7DA31462846FFF78BFFBDE8F08170B5CF
:1020A0008B48006840F008008949C439C1F8C40071
:1020B000012088498860C860874800780A2821D2B2
:1020C000DFE800F02005080B0E1114171A1D4FF45D
:1020D000166418E04FF4965415E04FF4165412E0CD
:1020E0004FF461540FE04FF496440CE04FF4164463
:1020F00009E04DF6C02406E04FF4614403E04FF4DC
:10210000E13400E000BF00BF8020744908737448C8
:1021100000680009B0FBF4F085B22846E91705EB2A
:102120001161090A6D4A1171E91705EB1161091274
:10213000A5EB0121117003201146087305204860AA
:10214000872008720520012181404209920002F196
:10215000E022C2F8001100BFAFF2EF0300224FF4FB
:1021600080716048FFF7B5FEFF2801D1002070BDE7
:10217000002003F09FFE5C4908600846006808B133
:102180000120F4E70020F2E738B50446214655481F
:10219000FFF70EFF05F058FD05465048007D00F0A2
:1021A000200060B14F496846FFF7D2FE9DF800005D
:1021B0004A4908700846406840F0020048602846D6
:1021C00005F046FD38BD70B504460D4603E014F831
:1021D000010BFFF7D9FF281EA5F101018DB2F6DC36
:1021E00070BD10B5044603E014F8010BFFF7CCFFF7
:1021F00020780028F8D110BD08B50BE037484068BA
:1022000040F00100354948606A46002136480068C0
:1022100003F0E2FE3148007D00F001000028EDD01F
:102220002E48007800909DF8000008BDF8B505F034
:102230000BFD064641E004F00E00022806D00428FB
:102240001CD0062825D00C2832D126E0002512E02B
:1022500024496846FFF77CFE012804D19DF8000060
:102260001E49087005E01D48406820F002001B4927
:102270004860681CC5B2102DEADB1DE01A480068F2
:1022800003F065FF1548406820F0010013494860DD
:1022900012E01248007D00900EE01348006803F041
:1022A00056FF0E48406820F001000C49486003E0EA
:1022B0000A48007D009000BF00BF08488068C4B293
:1022C00004F001000028B6D0304605F0C1FCF8BD8E
:1022D000C4C00F4000C002402C01001000C00040EC
:1022E0002C000010601700101C0000102DE9F041B8
:1022F00005460E46144600BF2846FFF797FE0746E0
:1023000002E00A2004F034FC2846FFF782FEB842BF
:10231000F7DA31462846FFF74BFEBDE8F08170B58D
:1023200005468448006840F010008249C439C1F86D
:10233000C40001208049C863086480207F49087375
:102340007F4800680009B0FBF5F084B22046E11731
:1023500004EB1161090A794A1171E11704EB11616B
:102360000912A4EB01211170032011460873052006
:1023700048608720087206200121814042099200AE
:1023800002F1E022C2F8001100BFAFF29F03002269
:102390004FF480716B48FFF79CFDFF2801D10020AE
:1023A00070BD002003F086FD67490860084600689C
:1023B00008B10120F4E70020F2E738B504462146D1
:1023C0006048FFF7F5FD05F03FFC05465B48007DE2
:1023D00000F0200060B15B496846FFF7B9FD9DF849
:1023E0000000564908700846406840F00200486006
:1023F000284605F02DFC38BD70B504460D4603E0B7
:1024000014F8010BFFF7D9FF281EA5F101018DB2C9
:10241000F6DC70BD10B5044603E014F8010BFFF7BD
:10242000CCFF20780028F8D110BD08B50BE0434858
:10243000406840F00100414948606A460021424836
:10244000006803F0C9FD3D48007D00F00100002850
:10245000EDD03A48007800909DF8000008BD08B51E
:102460003648007D00F0010058B93448406840F01B
:102470000100324948606A4600213348006803F091
:10248000ABFD2E48007800909DF8000008BDF8B51F
:1024900005F0DAFB064641E004F00E00022806D003
:1024A00004281CD0062825D00C2832D126E000258F
:1024B00012E024496846FFF74BFD012804D19DF83E
:1024C00000001E49087005E01C48406820F002002A
:1024D0001A494860681CC5B2082DEADB1DE01A489D
:1024E000006803F034FE1548406820F001001349ED
:1024F000486012E01148007D00900EE0124800682C
:1025000003F025FE0D48406820F001000B494860AB
:1025100003E00A48007D009000BF00BF07488068C4
:10252000C4B204F001000028B6D0304605F090FB9C
:10253000F8BD0000C4C00F4000C0024000000140D0
:102540002C00001060180010200000102DE9F04150
:1025500005460E46144600BF2846FFF767FD0746AE
:1025600002E00A2004F004FB2846FFF752FDB842BF
:10257000F7DA31462846FFF71BFDBDE8F08170B55C
:1025800005467D48006840F080707B49C439C1F839
:10259000C400012079498862C862802078490873A4
:1025A000784800680009B0FBF5F084B22046E117D6
:1025B00004EB1161090A724A1171E11704EB116110
:1025C0000912A4EB012111700320114608730520A4
:1025D000486087200872072001218140420992004B
:1025E00002F1E022C2F8001100BFAFF29F03002207
:1025F0004FF480716448FFF76CFCFF2801D1002084
:1026000070BD002003F056FC604908600846006871
:1026100008B10120F4E70020F2E738B5044621466E
:102620005948FFF7C5FC05F00FFB05465448007DEF
:1026300000F0200060B154496846FFF789FC9DF81E
:1026400000004F4908700846406840F002004860AA
:10265000284605F0FDFA38BD70B504460D4603E086
:1026600014F8010BFFF7D9FF281EA5F101018DB267
:10267000F6DC70BD10B5044603E014F8010BFFF75B
:10268000CCFF20780028F8D110BD08B50BE03C48FD
:10269000406840F001003A4948606A4600213B48E2
:1026A000006803F099FC3648007D00F00100002826
:1026B000EDD03348007800909DF8000008BD304907
:1026C000097D01F0010111B12D49087800E00020D9
:1026D0007047F8B505F0B8FA064641E004F00E0080
:1026E000022806D004281CD0062825D00C2832D178
:1026F00026E0002512E024496846FFF729FC01285E
:1027000004D19DF800001E49087005E01C4840688F
:1027100020F002001A494860681CC5B2082DEADBA7
:102720001DE01A48006803F012FD1548406820F0CB
:1027300001001349486012E01148007D00900EE04E
:102740001248006803F003FD0D48406820F00100C6
:102750000B49486003E00A48007D009000BF00BFBD
:1027600007488068C4B204F001000028B6D03046A3
:1027700005F06EFAF8BD0000C4C00F4000C0024072
:10278000008009402C000010601900102400001087
:102790000146FE48006840F48050FC4AC43AC2F842
:1027A000C4000120FA4AD06510660020F94A106082
:1027B000F9480068F94AB0FBF2F0401E012242EAF3
:1027C000002040F09070F34A106000BFF14840686C
:1027D00000F000400028F9D07047014649B9ED4AA1
:1027E0001268EF4B1A40521C42F08072E94B1A609B
:1027F00057E0012909D1E74A1268E94B1A40921CB7
:1028000042F08072E34B1A604BE0022909D1E14AA1
:102810001268E34B1A40121D42F08072DD4B1A60C1
:102820003FE003290AD1DB4A1268DD4B1A4042F02F
:10283000080242F08072D74B1A6032E004290AD1B4
:10284000D44A1268D64B1A4042F0100242F080720D
:10285000D04B1A6025E005290AD1CE4A1268D04B28
:102860001A4042F0200242F08072CA4B1A6018E00F
:1028700006290AD1C74A1268C94B1A4042F04002E1
:1028800042F08072C34B1A600BE0072909D1C14A9C
:102890001268C34B1A4042F0800242F08072BD4B76
:1028A0001A6000BFBB4A526802F00042002AF9D009
:1028B000B84A126842F08072B64B1A6000BFB54A3F
:1028C000526802F00042002AF9D0B24A5068C0F3C0
:1028D000891070472DE9FC4705460C469046B149E2
:1028E000404605F091F80BD234B1641EAE49404623
:1028F00004F034FE804614E000BFDFF8A88210E048
:10290000AA49404605F076F80BD2072C06D2641C83
:10291000A549404604F0F0FD804602E000BFDFF824
:102920008C82A049404605F06FF80BD234B1641E8A
:102930009D49404604F012FE804614E000BFDFF8D7
:10294000648210E09949404605F054F80BD2072CF8
:1029500006D2641C9449404604F0CEFD804602E055
:1029600000BFDFF8488274B3404604F0E3FF8146BD
:102970004A460B4600208E4904F047FF064605F004
:102980001DF88046404604F0D5FF064605F090FD50
:102990000022884BCDE9000104F0C5FE814605F018
:1029A0000DF88046611E01EB8101480004F09CFF98
:1029B0000646414604F048FD804641467E4804F004
:1029C0009BFD804627E0FFE7404604F0B3FF064644
:1029D00000227A4B04F019FF814604F0EFFF804695
:1029E000404604F0A7FF814605F062FD064600223E
:1029F000704B04F098FECDE9000104F0DFFF804643
:102A0000614201EB8101480004F06EFF0646414639
:102A100004F01AFD8046404604F08CFF0646002272
:102A2000674B04F0B3FF01D2DFF89881404604F011
:102A300081FF06460022644B04F090FF01D2DFF8CC
:102A40008C81634840F82580624A02EB8502116858
:102A5000024652F8250004F0CDFF03D801205E495C
:102A6000485502E000205C494855BDE8FC872DE947
:102A7000F05F0C4691464B49484604F0C5FF0BD227
:102A800034B1641E4849484604F068FD814614E0AC
:102A900000BFDFF8109110E04449484604F0AAFF57
:102AA0000BD2072C06D2641C3F49484604F024FD93
:102AB000814602E000BFDFF8F4903A49484604F04E
:102AC000A3FF0BD234B1641E3749484604F046FDDB
:102AD000814614E000BFDFF8CC9010E0334948464F
:102AE00004F088FF0BD2072C06D2641C2E494846FE
:102AF00004F002FD814602E000BFDFF8B0906CB345
:102B0000484604F017FF07463A460B46002028497E
:102B100004F07BFE054604F051FF8146484604F070
:102B200009FF074605F0C4FC05460022214B04F0CE
:102B3000FAFD824604F042FF8146611E01EB8101ED
:102B4000480004F0D1FE0546494604F07DFC81466C
:102B50004946194804F0D0FC81464EE0484604F04E
:102B6000E9FE05460022154B04F04FFE074604F02F
:102B700025FF8146484604F0DDFE054605F098FC39
:102B8000074600220B4B04F0CEFD27E0C4C00F40E7
:102B900000C00240004003402C00001040420F00E3
:102BA00000FFFF0000004844000020410000A04258
:102BB0000000894000002440000080BF0000544015
:102BC00000003E400000F041000049C0000048C243
:102BD000601A001021020010201B0010824604F031
:102BE000EDFE8146614201EB8101480004F07CFE6C
:102BF0000546494604F028FC81464846BDE8F09F5A
:102C0000102879D2DFE800F00814202C3844505CFA
:102C100068798995A1B1BCC8FE4AD26F42F0E062E2
:102C2000FC4BDA671A46926F42EA01629A67C0E08B
:102C3000F84AD26942F06042F64BDA611A4692696C
:102C400042EA41729A61B4E0F24AD26B42F4E01275
:102C5000F04BDA631A46926B42EA81429A63A8E02B
:102C6000EC4AD26B42F46002EA4BDA631A46926B8A
:102C700042EA41529A639CE0E64AD26B42F0E0623B
:102C8000E44BDA631A46926B42EA01629A6390E07F
:102C9000E04AD26F42F0E002DE4BDA671A46926FEA
:102CA00042EA41129A6784E0DA4AD26B42F06052FB
:102CB000D84BDA631A46926B42EAC1629A6378E0B3
:102CC000D44AD26D42F46052D24BDA651A46926D04
:102CD00042EAC1229A656CE0CE4A9C32126842F008
:102CE000E002CC4BC3F89C201A46D2F8982042EA66
:102CF0004112C3F898205CE05AE0C64A9C32126840
:102D000042F4E052C34BC3F89C201A46D2F89820F4
:102D100042EA8122C3F898204BE0BE4AD26D42F4C9
:102D2000E072BC4BDA651A46926D42EA81129A65EE
:102D30003FE0B84AD26D42F03802B64BDA651A4627
:102D4000926D42EAC1029A6533E0B24A9C3212683F
:102D500042F46052AF4BC3F89C201A46D2F8982038
:102D600042EAC122C3F8982023E0AA4AD26D42F079
:102D70000702A84BDA651A46926D0A439A6518E075
:102D8000A44AD26942F46062A24BDA611A4692699F
:102D900042EA41229A610CE09E4AD26942F07002F6
:102DA0009C4BDA611A46926942EA01129A6100E08C
:102DB00000BF00BF70472DE9FE4F04460D46082CAA
:102DC00002DA4FF0000B01E04FF0010B00BF584654
:102DD000FFF703FD1FFA80F9B9F1320F11DA072D61
:102DE00024DA681CC5B204F02FFF02902946204661
:102DF000FFF706FF029804F02BFF0A2003F0B8FE4D
:102E0000E5E7B9F57A7F11DD002D0FDD681EC5B24B
:102E100004F01AFF029029462046FFF7F1FE0298BF
:102E200004F016FF0A2003F0A3FED0E7484604F0A2
:102E30005BFD8246784800EB8401C030005D01EB09
:102E40004000B0F9000000281CDD00260EE05046CE
:102E500004F070FD714A724BCDE9000104F063FC8F
:102E6000074604F0ABFD8246701CC6B26A4800EB10
:102E70008401C030005D01EB4000B0F90000B042B9
:102E8000E5DC28E0644800EB8401C030005D01EB24
:102E90004000B0F9000000281DDA00260EE0504680
:102EA00004F048FD5F4A604BCDE9000104F03BFCB3
:102EB000074604F083FD8246701CC6B2564800EBFC
:102EC0008401C030005D01EB4000B0F90000401EFD
:102ED000C043B042E3DC524629462046FFF7FAFCE5
:102EE00052480555BDE8FE8F2DE9FF5F04460D46AB
:102EF000082C02DA4FF0000A01E04FF0010A00BF8F
:102F00005046FFF76AFC87B2322F11DA072D24DA18
:102F1000681CC5B204F098FE834629462046FFF798
:102F20006FFE584604F094FE0A2003F021FEE7E706
:102F3000B7F57A7F11DD002D0FDD681EC5B204F0F4
:102F400083FE834629462046FFF75AFE584604F082
:102F50007FFE0A2003F00CFED2E7384604F0C4FCE2
:102F600080462D48403000EB44018030005D085C15
:102F700001281DD100260FE0404604F0DBFC274A63
:102F8000274BCDE9000104F0CEFBCDE9020104F0AE
:102F900015FD8046701CC6B21F4800EB8401C0308E
:102FA000005D01EB4000B0F90000B042E4DC24E039
:102FB0001948403000EB44018030005D085CE0B906
:102FC00000260FE0404604F0B5FC164A164BCDE94A
:102FD000000104F0A8FBCDE9020104F0EFFC8046FB
:102FE000701CC6B20C4800EB8401C030005D01EBE0
:102FF0004000B0F90000B042E4DC04F025FE834656
:10300000424629462046FFF732FD8146584604F0E5
:103010001FFE0DE00080092051010010959C137BDC
:10302000685FF03FEB1D6E878645EF3F6102001041
:10303000FB4840F82490FB480555012D0DD148462A
:1030400004F078FC0022F84BCDE9000104F065FBA8
:10305000CDE9020104F0B2FC8146484604F06AFC66
:103060000022F24BCDE9020104F090FC01D2DFF81E
:10307000C093484604F05EFC0022EE4BCDE902010D
:1030800004F06CFC01D2DFF8B093484604B0BDE810
:10309000F09F2DE9FF5F04460D46082C02DA4FF041
:1030A000000A01E04FF0010A00BF5046FFF795FB10
:1030B00087B2322F11DA072D24DA681CC5B204F06A
:1030C000C3FD834629462046FFF79AFD584604F083
:1030D000BFFD0A2003F04CFDE7E7B7F57A7F11DD6D
:1030E000002D0FDD681EC5B204F0AEFD83462946F3
:1030F0002046FFF785FD584604F0AAFD0A2003F09C
:1031000037FDD2E7384604F0EFFB8046CB4800EBB2
:1031100044018030005D085C01281ED100260FE0CC
:10312000404604F007FCC64AC64BCDE9000104F056
:10313000FAFACDE9020104F041FC8046701CC6B2E7
:10314000BE48403800EB8401C030005D01EB400018
:10315000B0F90000B042E3DC24E0B84800EB4401E1
:103160008030005D085CE8B900260FE0404604F0BE
:10317000E1FBB54AB54BCDE9000104F0D4FACDE945
:10318000020104F01BFC8046701CC6B2AB484038FC
:1031900000EB8401C030005D01EB4000B0F900009D
:1031A000B042E3DC04F050FD834642462946204607
:1031B000FFF75DFC8146584604F04AFD984840F808
:1031C000249098480555012D0DD1484604F0B2FBD6
:1031D0000022954BCDE9000104F09FFACDE90201F0
:1031E00004F0ECFB8146484604F0A4FB00228F4B20
:1031F000CDE9020104F0CAFB01D2DFF8349248465F
:1032000004F098FB00228B4BCDE9020104F0A6FBF1
:1032100001D2DFF82492484604B0BDE8F09F2DE9C2
:10322000FC5F04468B464FF47A700BFB00F688482F
:1032300086420AD9301A8149403101EB440109889C
:10324000B0FBF1F64FF0010910E0814886420AD246
:10325000811B7A48403000EB44000088B1FBF0F657
:103260004FF0000902E000264FF00109304604F05B
:103270003BFB8246B9F1000F68D17649504604F015
:103280006DF9674941F824007249504604F066F927
:1032900082466A4800EB44018030005D085C0128EA
:1032A0001DD100250EE0504604F044FB6A4A6B4BEA
:1032B000CDE9000104F090F9074604F07FFB824657
:1032C000681C85B25D48403800EB8401C030005D69
:1032D00001EB4000B0F90000A842E4DC23E05748CD
:1032E00000EB44018030005D085CE0B900250EE091
:1032F000504604F01FFB0746574A584B04F00DFA9E
:10330000CDE9000104F05AFB8246681C85B24B48A7
:10331000403800EB8401C030005D01EB4000B0F9A3
:103320000000A842E4DC4E4840F824A0014651F8D1
:10333000240004F0FFFA074600224A4B04F026FB63
:1033400003D24948464941F82400F0E0414950463B
:1033500004F004F90746002104F0CBF8304941F8A5
:1033600024003C49504604F0F9F80746002104F0D7
:10337000C0F88246504604F0DDFA074600223B4B77
:1033800004F004FB74D82D4800EB44018030005D4C
:10339000085C01281DD100250EE0504604F0CAFA51
:1033A00007462D4A2D4B04F017F9CDE9000104F032
:1033B00005FB8246681C85B22048403800EB84013A
:1033C000C030005D01EB4000B0F90000A842E4DC31
:1033D0009BE01A4800EB44018030005D085C002847
:1033E0001CD100250EE0504604F0A4FA07461A4A04
:1033F0001A4B04F092F9CDE9000104F0DFFA82469D
:10340000681C85B20D48403800EB8401C030005D77
:1034100001EB4000B0F90000A842E4DC75E027E0D1
:10342000A01A0010610200100000E03F00003740C9
:103430000000B841000049C0000048C291010010DE
:10344000959C137B685FF03FEB1D6E878645EF3FD1
:10345000420801000000C8429A9999999999B93F88
:10346000601A001000003E400000F041008042C0A1
:10347000504604F05FFA074600223D4B04F06EFA16
:1034800043D23C4800EB44016030005D085C0128F9
:103490001AD100250EE0504604F04CFA0746364A91
:1034A000364B04F099F8CDE9000104F087FA824622
:1034B000681C85B22F48403000EB44012030005D8D
:1034C0000856A842E7DC20E02A4800EB44016030BF
:1034D000005D085CC8B900250EE0504604F02AFAE9
:1034E0000746254A254B04F018F9CDE9000104F000
:1034F00065FA8246681C85B21E48403000EB4401E4
:103500002030005D0856A842E7DC1D4840F824A0A2
:10351000014651F8240004F00DFA07460022194B29
:1035200004F01CFA03D21848154941F82400114848
:103530007038005D012812D10E4A703202EB84020D
:1035400011680F4A52F8240004F054FA03D80120FD
:103550000E4908550AE000200C49085506E00A48C3
:10356000074941F82400002008490855BDE8FC9FA0
:10357000008042C0B10100109A9999999999B93F78
:10358000601A0010000049C0000048C2201B001053
:103590000648804706480047FEE7FEE7FEE7FEE7ED
:1035A000FEE7FEE7FEE7FEE7FEE7FEE75538000030
:1035B000C5000000D748006800F48070002851D191
:1035C000D4480830006800F00100F0B9D148006824
:1035D00000F01F00D049B1FBF0F0D0490860D0489E
:1035E000D0F8A80100F01F00CB49B1FBF0F0CD49A5
:1035F0000860C848001F006800F00100401CC64970
:10360000B1FBF0F0C8490860B8E0C2489C300068DF
:1036100000F0400038B90020C0490860C149086086
:10362000C1490860AAE0BB48006800F01F00BA4921
:10363000B1FBF0F0B9490860B948D0F8A80100F032
:103640001F00B549B1FBF0F0B6490860B148001F52
:10365000006800F00100401CAF49B1FBF0F0B24936
:1036600008608BE0AB487C38006800F4807038B9A3
:103670000020AA490860AB490860AB4908607DE0BA
:10368000A4480830006800F00100A0BBA1487C38C5
:10369000006800F01F00401C9F494843A049D1F832
:1036A000041101F01F01B0FBF1F09C49086099483A
:1036B0007C38006800F01F00401C9749484395493A
:1036C000A431096801F01F01B0FBF1F095490860D1
:1036D00090487C38006800F01F00401C8E49484329
:1036E0008F49D1F8001101F00101491CB0FBF1F044
:1036F0008D49086042E0FFE786489C30006800F092
:10370000400038B90020854908608649086086492C
:10371000086033E07F487C38006800F01F00401CE0
:103720007D4948437E49D1F8041101F01F01B0FBE7
:10373000F1F07A49086077487C38006800F01F0093
:10374000401C754948437349A431096801F01F01C1
:10375000B0FBF1F0734908606E487C38006800F0F7
:103760001F00401C6C4948436D49D1F8001101F01D
:103770000101491CB0FBF1F06B4908606548001D70
:10378000006800F48070C8B36248001D006800F053
:103790001F0020B1042806D0062830D104E0002004
:1037A000624908602FE000BF5A480830006800F006
:1037B000010088B157487C38006800F01F00401CA9
:1037C000554948435649D1F8081101F01F01B0FB93
:1037D000F1F05649086010E04E487C38006800F06F
:1037E0001F00401C4C4948434D49D1F8081101F0D5
:1037F0001F01B0FBF1F04D49086004E004E0002037
:103800004A49086000BF24E04248001D006800F4F7
:103810000070D8B13F480830006800F0010050B196
:103820003C485C38006800F01F00401C3A4948439F
:103830003E4908600DE037487C38006800F01F0002
:10384000401C354948433949086002E000203749A7
:103850000860704721202F499C31086000BF2D4827
:103860009C30006800F040000028F8D00120294971
:103870000831086009202A49C1F88400012028493C
:1038800080310860AA2023497839086055200860F3
:1038900000BF20487C38006800F480600028F8D021
:1038A00023201C496039086001201D49C1F8A0008F
:1038B000AA2018495839086055201949C1F8AC00A8
:1038C00000BF14485C38006800F480600028F8D01D
:1038D00040F201100F49086040F201201049C1F880
:1038E000080101200B49091F086002200949A43181
:1038F00008600F4807494039086088150549C431F8
:10390000086045F23A00064908600020094908604D
:103910007047000004C10F40001BB70028000010D2
:1039200000C00F402C0000103000001034000010C8
:10393000DE87280408ED00E0002053490880704726
:10394000704710B504462046FCF7C7FB10BD10B504
:1039500004462046FCF7C2FB10BD10B5FCF7BFFBC8
:1039600010BD10B5FCF7BDFB10BD70B50446104688
:103970004FF080750560051F28462C60434E051FDB
:1039800028462E604FF01236051F28462E604FF055
:103990000336051F28462E604FF00236051F2846C5
:1039A0002E607610051F28462E60051F28462960C8
:1039B0004FF01136051F28462E604FF01036051FB8
:1039C00028462E604FF00936051F28462E604FF01E
:1039D0000836051F28462E604FF00736051F28467B
:1039E0002E604FF00636051F28462E604FF0053634
:1039F000051F28462E604FF00436051F28462E600E
:103A000070BD10B5FCF76EFB10BD10B50446204626
:103A1000FCF769FB10BD10B5FCF766FB1A4800887F
:103A2000401C1949088008460088642803D30020F8
:103A3000088003F013FC10BD10B504F005F904462E
:103A400013480078401C12490870FCF74EFB00F048
:103A5000AFFD204604F0FCF800F0B3FC10BD411EA1
:103A60004FF0E0225161FF210A4A11704FF0E0212E
:103A7000096941F005014FF0E02211611146096921
:103A800041F002011161704738000010576B0000CF
:103A90005500001023ED00E01D481E481E481F4839
:103AA0001F482048204821482148224822482348CE
:103AB000234824482448254825482648264827489E
:103AC000274828482848294829482A482A482B486E
:103AD0002B482C482C482D482D482E482E482F483E
:103AE0002F4830483048314831483248324833480E
:103AF00033483448344835483548364836483748DE
:103B00003748384838483948394800BF70470000BE
:103B1000C0850000C4850000CA850000CC85000077
:103B2000C8850000CE850000D0850000D285000049
:103B3000D4850000D6850000D8850000DA85000015
:103B4000DC850000DE850000E0850000E2850000E5
:103B5000E4850000E6850000E8850000EA850000B5
:103B6000EC850000EE850000F0850000F285000085
:103B7000F4850000F6850000F8850000FA85000055
:103B8000FC850000FE850000008600000286000023
:103B90000486000006860000088600000A860000F1
:103BA0000C8600000E8600001086000012860000C1
:103BB00016860000188600001A8600001C86000089
:103BC00048280010C82B0010208600002286000024
:103BD0002486000026860000288600002A86000031
:103BE0002C8600002E860000308600001E86000015
:103BF000328600000146002002E0491C421CD0B27F
:103C00000A78002AF9D170472DE9F04105460E46A1
:103C10001446002725B9042020700020BDE8F0815B
:103C20001EB90C2020700020F8E7F748007818B182
:103C3000112020700020F1E72878012808D0022800
:103C400007D0032802D0042804D100E000BF00BF41
:103C500000BF03E0012020700020DFE700BF03F079
:103C6000F3FF0746686930603068FFF7C3FF80469E
:103C7000384603F0EDFF002020704046CEE72DE9E6
:103C8000F04105460E46144600271DB90420207059
:103C9000BDE8F08116B90C202070F9E7DA48007809
:103CA00010B112202070F3E72878012808D00228EC
:103CB00007D0032802D0042804D100E000BF00BFD1
:103CC00000BF02E001202070E2E700BF03F0BCFF6C
:103CD00007466E61384603F0BBFF0020207000BF2E
:103CE000D6E7F0B5024612F8384F95785678383A4C
:103CF0000B4618680FE000F10B073F5DB74300F17A
:103D00000B0C0CF8047067463F5D17B9877AAF4318
:103D100087721B1D18680028EDD1F0BDBB49BC4A55
:103D20001278885CBB49095CB84A515C01EBC00160
:103D3000B94A1170704710B5002403F085FF04469E
:103D4000B1480078F8B9B5480078E0B9FFF7E6FF68
:103D5000B348B149097850F82100B2490860AE482B
:103D60000078B149097888420DD0AE480068C06B30
:103D7000401CAC490968C863AC480068401CAB49AA
:103D8000086003F078FF204603F062FF10BD70B5B5
:103D900001460024A64D2D68EC61A54C24682162E3
:103DA0000B4618681BE0A24C246894F8385000F1C8
:103DB0000B04645D9E4D2D6895F839502C439C4D45
:103DC0002D6895F8386000F10B05AC55847A984D54
:103DD0002D6895F83A502C4384721B1D18680028F2
:103DE000E1D1934C246894F838208A4CA45C904D1F
:103DF0002D6895F83950AC43864DAC542C46A45CE4
:103E000044B98B4C246894F83A50814C2478AC43E4
:103E10007F4D2C7070BD2DE9FF4F83B081460E465B
:103E20001546109F00200090B9F1000F05D1042025
:103E30003870002007B0BDE8F08FD9F8000018B93D
:103E4000042038700020F5E71EB9042038700020E7
:103E5000F0E71DB9042038700020EBE70020306047
:103E6000CA46DAF8004015E02078062807D2DFE8D5
:103E700000F006040503070807E006E005E000BFC0
:103E800000BF012038700020D4E700BF0AF1040A07
:103E9000DAF80040002CE7D15B48007818B1022026
:103EA00038700020C6E75D48007818B10D203870E2
:103EB0000020BFE703F0C8FE009000200290834678
:103EC0000190CA46DAF8004066E02078062853D20E
:103ED000DFE800F052172A035354208960B120898B
:103EE000401E208110C601200290002001C50BF168
:103EF00001001FFA80FB03E0019840F001000190EF
:103F000045E0606858B1606801C50020606010C677
:103F1000012002900BF101001FFA80FB03E00198E1
:103F200040F00200019032E0D4F80480B8F81600A6
:103F3000E8B1D8F81010081DC8F81000086801C5CD
:103F4000D8F80810D8F81000884203D1D8F8040037
:103F5000C8F81000B8F81600401EA8F8160010C6E1
:103F6000012002900BF101001FFA80FB03E0019891
:103F700040F0040001900AE000BF00BF009803F089
:103F800067FE0020306001203870584652E700BFBD
:103F90000AF1040ADAF80040002C96D102980128B0
:103FA00008D100203060009803F052FE00203870E5
:103FB00058463FE71E48006890F83400019941F0E8
:103FC000800108431A49096881F834000020184923
:103FD000096881F83500164906980968086348465B
:103FE000FFF7D5FE009803F033FEFFF7A4FE03F0C1
:103FF0002BFE00900E48006890F83500D0B10128E3
:1040000031D002282ED116E0550000103486000071
:10401000590000105A0000105800001056000010FF
:10402000E01E001070000010570000103C0000104F
:104030006800001000BFFE480068C4693CB110C6AB
:10404000002030600BF101001FFA80FB09E0012025
:10405000F749096881F835004946F5480068FFF7D7
:1040600040FE06E000BF4946F1480068FFF739FE10
:1040700000BF00BFEE48006890F8350020B101286D
:1040800028D0022825D11FE0207806280DD2DFE8AD
:1040900000F00C0607030D0E002001C510E000BF64
:1040A000E3480068406A01C50AE000BF00BF00980D
:1040B00003F0CEFD00203060012038705846B9E68C
:1040C00000BF002038700AE0002001C50E203870C3
:1040D00005E000BF002001C50A20387000BF00BF06
:1040E0000020D349096881F83400D149096881F872
:1040F0003500CF490968C861CD4909680862CC49D3
:1041000009684862009803F0A3FD584692E67CB522
:10411000002514E06946284602F0E5FB064666B92C
:10412000C44850F8254044B1012C06D0D4E902011E
:1041300000EB8100A0640198E064681CC5B23F2DCB
:10414000E8D97CBD002400BF02E0C82002F010FDC9
:10415000B94800780028F8D0B84800686421B0FB5E
:10416000F1F0B64908600846006828B90020B44953
:104170000870FF2002F002FC00BF03F065FD04465A
:10418000B0480068B04908600020AE490860204689
:1041900003F05EFDAC480068A8490968B0FBF1F087
:1041A000C0F16400A6490870FFF7DBFBFFF7AFFF23
:1041B000642002F0DDFCE0E700B587B003200021B9
:1041C0004022A24BCDE90132CDE903104FF6FE703B
:1041D0003E239E4AFC320090AFF2970002F06EF947
:1041E00006AA9BA13E2002F0F1FA07B000BD002410
:1041F00000BF00BF03F028FD044692480068401C41
:1042000090490860204603F023FDFFF7A6FBF1E785
:1042100000B587B0032000212022914BCDE9013267
:10422000CDE903104FF6FF703F238D4A7C3200909A
:10423000AFF2450002F042F906AA8AA13F2002F03F
:10424000C5FA07B000BD04E0002200F8012B4A1EA9
:1042500091B20029F8D1704770B54FF4F0718548DC
:10426000FFF7F1FF002411E0601C85B204EB44006D
:10427000804901EBC00305EB450001EBC0060020BF
:1042800018705E607CA05861601C84B2132CEBD364
:1042900004EB4400774901EBC0030020187058601C
:1042A00075A0586108467549086070BD70B54FF437
:1042B000F2617348FFF7C7FF4FF480715D48FFF765
:1042C000C2FF002413E0601CC5B204EB440000EB05
:1042D000C4006B4901EBC00305EB450000EBC500D2
:1042E00001EBC0065E6164A01865601CC4B2152CA9
:1042F000E9D304EB440000EBC400614901EBC003C7
:10430000002058615CA0186500205E4908605C4888
:104310005D49086070BD00215C4A1170002004E016
:1043200000215B4A1154411CC8B20828F8D300216F
:10433000584A1170584A1170584A11603C4A11602D
:104340007047002056490860564908705649087061
:10435000564908705649087056490860394908603E
:10436000394908603549086033490870704710B50D
:10437000FFF7E2FAFFF7E5FFFFF7CDFFFFF796FF44
:10438000FFF76AFF00F0E4FE01F025FA01F051FDAD
:10439000FFF73EFFFFF710FF02F0BBFFFFF7D0FA79
:1043A000FFF77AFB10BD42480078012808D13D484C
:1043B0000078FF2804D23B480078401C3949087037
:1043C000704710B500243A480078012876D103F0F0
:1043D0003BFC04463348007820B132480078401E48
:1043E000304908702F480078F8B92F480078E0B9B4
:1043F000FFF794FC0F482849097850F82100274915
:104400000860254800782349097888420DD0234860
:104410000068C06B401C21490968C86325480068D2
:10442000401C2449086003F02BFC204644E045E092
:1044300068000010E01E0010540000104C00001036
:10444000480000106400001050000010601D0010B3
:1044500075432F4F532D4949205374617400000058
:10446000601E001075432F4F532D49492049646C3D
:1044700065000000301B00103F00000040000010ED
:10448000E01F0010740000106C00001059000010B4
:104490005A00001057000010580000107000001063
:1044A000840000105500001056000010630000103A
:1044B000620000103C00001003F0CAFB10BD10B5F4
:1044C0000024FE480078012811D103F0BDFB04460A
:1044D000FB48007840B9FB480078FF2804D2F9482F
:1044E0000078401CF7490870204603F0B1FB10BD6E
:1044F00010B50024F1480078012821D103F0A4FB75
:104500000446F0480078C0B1EE480078401EED49FE
:1045100008700846007860B9E948007828B9204654
:1045200003F096FBFFF707FC0AE0204603F090FB40
:1045300006E0204603F08CFB02E0204603F088FBF7
:1045400010BD10B5DD48007890B9FFF7E7FBDE48F5
:104550000078DE490870DE48DB49097850F8210010
:10456000DC49086008460068DB49086003F073FB1B
:1045700010BD10B50024022002F0FAFA03F064FB2B
:1045800004460020D5490860204603F061FB642002
:1045900002F0EEFA03F058FB0446D0480068D04918
:1045A00008600120CF490870204603F051FB10BD80
:1045B00070B50026FFF72FFA03F046FB0646CA48FF
:1045C0000068401CC8490860304603F041FBBB4806
:1045D0000078012853D1C548007820B1012804D0C3
:1045E000022809D103E001250BE0002509E001259F
:1045F0000120BE49087004E001250020BB49087075
:1046000000BF00BF05B970BDB948046833E003F0CE
:104610001BFB0646206B50B3206B401E2063206BB3
:1046200028BB94F8340000F0370040B114F8340F80
:1046300000F0C800207001206070343C02E00020CF
:1046400084F8350094F8340000F0080078B9383464
:10465000A078A84909780843A64908702078A64997
:10466000085C6178084314F83819A34A5054646907
:10467000304603F0EDFA94F836003F28C7D100BF6A
:10468000C1E740F223107047704710B590F838200A
:1046900001F10B039B5C90F83940A34301F10B043B
:1046A000A35423469B5C23B98B7A90F83A40A343EA
:1046B0008B7210BD2DE9F04F05460F469046994686
:1046C000A87A8E490E5C05F10B00805D11F800B0F0
:1046D0000BEBC60000F0FF0A7D4850F82A4000208E
:1046E0002434E0602760207C20EA0800207484F8ED
:1046F0001190207C243C00F0080068B994F83A003E
:104700007C49097808437B4908707B48805D94F8B0
:10471000391008437849885529462046FFF7B5FFE8
:10472000206A20B12046216AFFF7DBFAE561504696
:10473000BDE8F08F10B5684A1268D061664A126809
:1047400092F8383000F10B02D25C634B1B6893F88F
:1047500039301A43604B1B6893F8384000F10B0363
:104760001A55827A5C4B1B6893F83A301A4382726E
:10477000594A126892F838105F4A525C564B1B68CF
:1047800093F839309A435C4B5A541A46525C42B9FA
:10479000514A126892F83A30564A12789A43554B69
:1047A0001A7010BD014600228A72002005E0002325
:1047B00001F10B021354421CD0B20828F7D3704702
:1047C00005E011F8013B00F8013B531E9AB2002AA4
:1047D000F7D170472DE9F84F05460F4690469946A8
:1047E000DDE90AAB0020009003F02EFA0090444867
:1047F0000468002C60D01C3454F8080C4049086050
:10480000009803F025FA44F81C7CA5760020207659
:104810006076606144F818BC44F810AC44F8148C1D
:104820000C9824F80C0C24F80A9C0020E077E8107F
:10483000207705F00700E076217F01208840A077EF
:10484000E17E012088406077002020606060E060A9
:10485000A0602062A0626062E0622063AFF2E83094
:1048600060631C3C002606E0002104F1540040F87F
:104870002610701CC6B2002EF6D02046FFF7C5F8F1
:104880002046FFF75EF803F0DFF90090104840F88B
:1048900025401748006860610020A0611448006846
:1048A00010B1134800688461114804603834A0785E
:1048B00010490978084325E03AE000006200001042
:1048C000550000105600001058000010570000104E
:1048D000E01E00107000001068000010640000105E
:1048E0004C000010540000108400001078000010EC
:1048F00074000010590000105A00001034860000A7
:104900006C0000100D49087020780D49085C617832
:10491000084314F838190A4A50540A480078401CD1
:1049200008490870009803F093F90020BDE8F88F5B
:10493000009803F08DF94220F8E7000059000010BC
:104940005A000010630000102DE9F05F04460F4686
:1049500091461E464FF0000B24B96E2030700020A7
:10496000BDE8F09F2078052803D00120307000209A
:10497000F6E709F0800ABAF1000F04D029F08009A7
:104980004FF0010801E04FF000080020307003F004
:104990005BF98346B9F1000F2CD0B9F1010F3BD080
:1049A000B9F1020F03D0B9F1030F46D111E020890C
:1049B00000EA0705BD4206D1B8F1010F05D12089F3
:1049C000A843208101E070203070584603F040F980
:1049D0003AE0208900EA070535B1B8F1010F05D1A9
:1049E0002089A843208101E070203070584603F0F0
:1049F0002FF929E0208927EA0005BD4206D1B8F148
:104A0000010F05D120892843208101E070203070FA
:104A1000584603F01DF917E0208927EA000535B153
:104A2000B8F1010F05D120892843208101E07020D1
:104A30003070584603F00CF906E0584603F008F9C8
:104A400000256F20307000BF00BF284688E72DE9A1
:104A5000F04106460D460027F748007820B11020A7
:104A600028700020BDE8F08103F0EEF80746F34817
:104A7000046884B100684068F0490860052020702F
:104A8000268100206060EEA0E060384603F0E0F888
:104A90000020287004E0384603F0DAF8722028700D
:104AA0002046DFE730B501464A6808682AB9CC6875
:104AB000606028B10025456002E0106000B14260EE
:104AC0008B6800259D6230BDF0B506460F46B46880
:104AD00000202C3460602780207A00F0DF002072F4
:104AE00000206072207A2C3C88B93834A078D549EF
:104AF00009780843D34908702078D349085C617865
:104B0000084314F83819D04A5054012500E0002514
:104B10003046FFF7C7FF2846F0BD2DE9F0470446B1
:104B2000894615464FF0000A24B96E2028702046A9
:104B3000BDE8F087C048007818B10F2028702046E3
:104B4000F6E72078052803D0012028702046EFE7FB
:104B500003F07AF88246606808B1012700E0002778
:104B6000B9F1000F03D0B9F1010F3CD119E08FB9B1
:104B7000B3A0E06000202070B048006860600020B2
:104B80002081AE480460504603F062F8002028708F
:104B9000002605E0504603F05BF8492028702646C1
:104BA00028E0D4F8048005E000214046FFF78CFFA0
:104BB000D8F80080B8F1000FF6D1A1A0E060002085
:104BC00020709E4800686060002020819B4804603F
:104BD000504603F03DF8012F01D1FFF7ACF800205B
:104BE0002870002606E0504603F032F807202870AF
:104BF000264600BF00BF30469AE72DE9F041054642
:104C00000E461446002725B96E2020700020BDE80E
:104C1000F0811EB90C2020700020F8E7864800784B
:104C200018B1112020700020F1E703F00DF80746BD
:104C30002878052806D0384603F00AF801202070AD
:104C40000020E4E7E86830603068FEF7D3FF804674
:104C5000384602F0FDFF002020704046D7E72DE9DE
:104C6000F04105460E46144600271DB96E202070FF
:104C7000BDE8F08116B90C202070F9E76E48007885
:104C800010B112202070F3E702F0DEFF074628780B
:104C9000052805D0384602F0DBFF01202070E7E749
:104CA000EE60384602F0D4FF0020207000BFDFE73E
:104CB000F0B51446059E654F3F6897F8347047F08D
:104CC0002007DFF888C1DCF800C08CF834700027BA
:104CD000DFF878C1DCF800C08CF835705B4F3F68B6
:104CE0003E635A4F3F68B9620C828B74574F3F68DE
:104CF0008F6047680F6000274F60C860456805B146
:104D000069604160514F3F6897F838204E4FBF5C53
:104D1000DFF838C1DCF800C09CF839C027EA0C077E
:104D2000DFF824C10CF802706746BF5C5FB9474FDB
:104D30003F6897F83AC0434F3F7827EA0C07DFF8FF
:104D400004C18CF80070F0BD2DE9F04F89B0054624
:104D50000F4691469A46129E002002902DB96E2071
:104D60003070002009B0BDE8F08F3348007818B1EA
:104D7000022030700020F5E73548007818B10D208A
:104D800030700020EEE72878052803D0012030702D
:104D90000020E7E709F0800BBBF1000F04D009F019
:104DA0007F094FF0010801E04FF0000802F04CFFCE
:104DB0000290B9F1000F59D0B9F1010F79D0B9F1D2
:104DC000020F03D0B9F1030F72D120E0288900EA65
:104DD0000704BC420FD1B8F1010F02D12889A043CA
:104DE00028811A4800688485029802F031FF00206B
:104DF00030702046B6E74B463A4604A92846CDF81F
:104E000000A0FFF755FF029802F022FF79E0288901
:104E100000EA0704F4B1B8F1010F02D12889A043D8
:104E200028810A4800688485029802F011FF00205A
:104E30003070204696E70000550000104400001036
:104E40003F000000590000105A00001068000010D8
:104E5000560000104B463A4604A92846CDF800A05B
:104E6000FFF726FF029802F0F3FE4AE0288927EABE
:104E70000004BC420FD1B8F1010F02D128892043B0
:104E80002881C74800688485029802F0E1FE00206E
:104E90003070204666E74B463A4604A92846CDF8CE
:104EA00000A0FFF705FF029802F0D2FE29E000E023
:104EB0001FE0288927EA00047CB1B8F1010F02D174
:104EC000288920432881B64800688485029802F02A
:104ED000BFFE00203070204644E74B463A4604A906
:104EE0002846CDF800A0FFF7E3FE029802F0B0FEDE
:104EF00007E0029802F0ACFE00246F2030702046DC
:104F000030E700BFFEF717FF02F09EFE0290A448B4
:104F1000006890F8350020B3A148006890F835008B
:104F2000039000209E49096881F8350004A8FFF726
:104F3000B9FD00209A49096881F83400029802F00E
:104F400087FE00240398012805D0022802D10E20F4
:104F5000307003E000BF0A20307000BF00BF204661
:104F600000E78F480068848DB8F1010F1ED1B9F1B8
:104F7000000F0ED0B9F1010F0CD0B9F1020F03D020
:104F8000B9F1030F0AD100E000BF2889A0432881AE
:104F90000BE000BF28892043288106E0029802F038
:104FA00057FE6F2030700020DCE600BF029802F050
:104FB0004FFE002030702046D4E670B5002502F088
:104FC00043FE054676480068848D284602F040FE80
:104FD000204670BD2DE9FC5F0446894692461E4678
:104FE0000020009024B96E2030700020BDE8FC9FA6
:104FF0002078052803D0012030700020F6E702F069
:1050000023FE0090BAF1000F03D0BAF1010F0AD1CC
:1050100004E0208920EA090020810BE0208940EA91
:105020000900208106E0009802F012FE7120307025
:105030000020DBE700BF4FF0000B656855E0A87C5F
:1050400040B3012838D0022802D0032844D111E00F
:105050002089298A00EA0107288AB84209D13946FD
:105060002846FFF731FD8046B8F1010F01D14FF01E
:10507000010B38E02089298A00EA01074FB139463F
:105080002846FFF721FD8046B8F1010F01D14FF00E
:10509000010B28E0288A218920EA0107288AB842E2
:1050A00009D139462846FFF70FFD8046B8F1010FB8
:1050B00001D14FF0010B16E0288A218920EA01076F
:1050C0004FB139462846FFF7FFFC8046B8F1010F83
:1050D00001D14FF0010B06E0009802F0B9FD6F20FE
:1050E0003070002082E700BF2D68002DA7D1009806
:1050F00002F0AEFDBBF1010F01D1FEF71CFE02F084
:10510000A3FD009020890190009802F0A1FD0020ED
:10511000307001986AE72DE9F04104460D460027FA
:1051200024B96E2028700020BDE8F0812078052881
:1051300003D0012028700020F6E702F085FD074625
:105140002689384602F084FD002028703046EBE7BF
:105150002DE9F04150211348FFF775F800250EE0C6
:10516000681C86B20F4800EB051400EB0617002000
:1051700020706760AFF23830E060681C85B2042DA3
:10518000EED3084800EB0514002020706060AFF2F9
:105190005030E060034804490860BDE8F081000039
:1051A00068000010101D00104400001070B5044687
:1051B00000260CB9002070BD2078012801D0002005
:1051C000F9E702F041FD0646656800206060304660
:1051D00002F03EFD2846EEE770B505460026F94888
:1051E000007808B1002070BD02F02EFD0646F6489A
:1051F0000468006820B1F44800684068F24908601B
:10520000304602F025FD4CB10120207000202081A5
:105210006560EEA060612046FFF7C4FA2046E2E731
:105220002DE9F0470446884615464FF0000924B999
:10523000042028702046BDE8F0872078012803D09C
:10524000012028702046F6E7DE48007818B10F20CC
:1052500028702046EFE702F0F7FC8146A07A08B1FB
:10526000012700E00027B8F1000F03D0B8F1010FCB
:105270003AD119E08FB9D5A0606100202070D248E2
:105280000068606000202081CF480460484602F03A
:10529000DFFC00202870002605E0484602F0D8FC1C
:1052A00049202870264626E005E000230222194600
:1052B0002046FFF7FFF9A07A0028F6D1C3A060616D
:1052C00000202070C0480068606000202081BE4837
:1052D0000460484602F0BCFC012F01D1FEF72BFD13
:1052E00000202870002606E0484602F0B1FC0720A6
:1052F0002870264600BF00BF30469CE72DE9F041EC
:1053000005460F4614464FF0000825B904202070CA
:105310000020BDE8F0812878012803D0012020700A
:105320000020F6E7A748007818B10220207000207E
:10533000EFE7A748007818B10D2020700020E8E7BB
:1053400002F082FC80466E6846B1002068604046EC
:1053500002F07EFC002020703046DAE79D480068AD
:1053600090F8340040F002009A49096881F834004E
:1053700000209849096881F835009648006807635D
:105380002846FFF7D7F9404602F062FCFEF7D3FC4F
:1053900002F05AFC80468F48006890F8350020B132
:1053A00001280DD002280AD105E08A480068466A23
:1053B000002020700DE000260E20207009E000BFC4
:1053C000294684480068FFF760F900260A2020700B
:1053D00000BF00BF00207F49096881F834007D4983
:1053E000096881F835007B490968C861794909680D
:1053F0000862784909684862404602F029FC304654
:1054000087E72DE9F04104460F4615464FF00008A6
:1054100024B9042028700020BDE8F08120780128FC
:1054200003D0012028700020F6E702F00DFC804632
:10543000A07A20B300267FB1012F0CD107E0022310
:105440001A4600212046FFF735F9701CC6B2A07A33
:105450000028F4D109E000BF02231A4600212046AB
:10546000FFF728F9701CC6B200BF00BF404602F02B
:10547000EFFBFEF760FC0E2028703046CCE740467C
:1054800002F0E6FB0020287000BFC5E770B50446B7
:105490000D4600260CB9042070BD0DB90320FBE7B2
:1054A0002078012801D00120F6E702F0CDFB064666
:1054B000A07A60B10023022229462046FFF7FAF8BD
:1054C000304602F0C5FBFEF736FC0020E4E76068DA
:1054D00020B1304602F0BCFB1420DDE765603046A9
:1054E00002F0B6FB0020D7E72DE9F04104460D4657
:1054F0001646002714B90420BDE8F0810DB9032039
:10550000FAE72078012801D00120F5E702F09CFBA2
:105510000746A07AE8B106F0010050B105E000238B
:10552000022229462046FFF7C5F8A07A0028F6D1C6
:1055300005E00023022229462046FFF7BBF8384643
:1055400002F086FB06F0040008B9FEF7F4FB002029
:10555000D2E7606820B1384602F07AFB1420CBE72E
:105560006560384602F074FB0020C5E72DE9F0477E
:1055700004460D464FF0000914B90420BDE8F08739
:105580000DB90920FAE72078012801D00120F5E7BC
:1055900002F05AFB8146A07A287304F10B0705F14B
:1055A0000408002605E017F8010B08F8010B701C31
:1055B000C6B2082EF7D360682860484602F048FB60
:1055C0000020DBE755000010400000103F00000005
:1055D00056000010680000102DE9FC5F05460F46DC
:1055E00091461E460020009025B9622030700020B0
:1055F000BDE8FC9F05F0030018B162203070002068
:10560000F6E7022F03D25B2030700020F0E7B9F1FB
:10561000040F03D25C2030700020E9E702F014FB95
:1056200000907F480468006820B17D4800684068A9
:105630007B490860009802F00BFB1CB95A203070BF
:105640000020D5E7AA46A846781E01904FF0000B2F
:1056500005E0C844CAF80080C2460BF1010B01986E
:105660008345F6D30020CAF80000256065602761F5
:10567000E760C4F8089030702046B9E72DE9F041A2
:1056800004460D46002724B9602028700020BDE89C
:10569000F08102F0D9FA0746206960B16668306887
:1056A00060602069401E2061384602F0D1FA002077
:1056B00028703046EBE7384602F0CAFA5D202870C1
:1056C0000020E4E72DE9F04106460D461446002788
:1056D00026B9602020700020BDE8F0811DB90C20A3
:1056E00020700020F8E74F48007818B11120207092
:1056F0000020F1E702F0A8FA0746706928602868E0
:10570000FEF778FA8046384602F0A2FA00202070B0
:105710004046E1E72DE9F04105460E4614460027D4
:105720001DB960202070BDE8F08116B90C202070F2
:10573000F9E73C48007810B112202070F3E702F03E
:1057400083FA07466E61384602F082FA0020207024
:1057500000BFE8E770B504460D4600260CB960208E
:1057600070BD0DB95F20FBE702F06EFA0646D4E982
:105770000310884204D3304602F06AFA5E20EFE755
:105780006068286065602069401C2061304602F036
:105790005FFA0020E4E770B505460C4600260DB917
:1057A000602070BD0CB96120FBE702F04DFA06469F
:1057B0002868206068686060A868A060E868E060A9
:1057C00028692061304602F043FAD4E90301401A07
:1057D00060610020E5E770B578211348FEF733FDDE
:1057E00000240EE004EB44000F4901EBC005601CEF
:1057F00000EB400001EBC00068600CA06861601C19
:1058000084B2042CEED304EB4400074901EBC0053D
:105810000020686005A0686108460149086070BD05
:105820007C00001055000010702700103F000000A1
:105830002DE9F04106460D464FF0000826B9042038
:1058400028700020BDE8F0813078022803D00120C4
:1058500028700020F6E702F0F7F980467468E08AC5
:1058600078B12169081D20610F68E08A401EE0823E
:10587000A1682069884201D16068206100202870F9
:1058800002E01F2028700027404602F0E1F9384668
:10589000D8E72DE9F04106460F464FF00008FA48D8
:1058A000007810B10020BDE8F08102F0CDF980460B
:1058B000F6480468006820B1F44800684068F3497D
:1058C0000860404602F0C4F9FCB102F0BDF9804620
:1058D000EF480568D5B100680068ED4908604046AA
:1058E00002F0B6F96E6006EB8700A860EE602E61EC
:1058F000AF820020E88202202070002020816560B5
:10590000E4A060612046FEF74DFF08E0DF48006834
:105910006060DE480460404602F09AF900242046A8
:10592000C1E72DE9F0470446894615464FF0000AC5
:1059300024B9042028702046BDE8F087207802288A
:1059400003D0012028702046F6E7CF48007818B130
:105950000F2028702046EFE702F076F98246A07A01
:1059600010B14FF0010801E04FF00008B9F1000F4D
:1059700003D0B9F1010F49D121E0B8F1000F17D1DF
:10598000C4A060616668C24800683060C0480660B4
:1059900000202070BD480068606000202081BB4866
:1059A0000460504602F054F900202870002705E0FA
:1059B000504602F04DF94920287027462DE005E0B9
:1059C0000023042219462046FEF774FEA07A002820
:1059D000F6D1B0A060616668AD4800683060AC4840
:1059E000066000202070A9480068606000202081C7
:1059F000A6480460504602F02BF9B8F1010F01D11E
:105A0000FEF799F900202870002706E0504602F0C2
:105A10001FF907202870274600BF00BF38468BE7D4
:105A200070B5054600260DB9042070BD28780228FF
:105A300001D00120F9E702F007F906466C686068BA
:105A4000E060606820610020E082304602F000F9EA
:105A50000020EAE72DE9F0470646884615464FF054
:105A6000000926B9042028700020BDE8F0873078AE
:105A7000022803D0012028700020F6E78248007831
:105A800018B1022028700020EFE78348007818B191
:105A90000D2028700020E8E702F0D6F881467468EF
:105AA000E08A98B12169081D20610F68E08A401ED4
:105AB000E082A1682069884201D16068206148467F
:105AC00002F0C6F8002028703846CEE77348006818
:105AD00090F8340040F004007049096881F83400FF
